S011000074696D65725F746573742E733139A3
S20500000013E7
S20500000100F9
S20500000200F8
S20500000300F7
S20500000413E3
S20500000500F5
S20500000600F4
S20500000700F3
S20500000813DF
S20500000900F1
S20500000A00F0
S20500000B00EF
S20500000C13DB
S20500000D00ED
S20500000E00EC
S20500000F00EB
S20500001013D7
S20500001100E9
S20500001200E8
S20500001300E7
S20500001413D3
S20500001500E5
S20500001600E4
S20500001700E3
S20500001813CF
S20500001900E1
S20500001A00E0
S20500001B00DF
S20500001C13CB
S20500001D00DD
S20500001E00DC
S20500001F00DB
S20500002013C7
S20500002100D9
S20500002200D8
S20500002300D7
S20500002413C3
S20500002500D5
S20500002600D4
S20500002700D3
S20500002813BF
S20500002900D1
S20500002A00D0
S20500002B00CF
S20500002C13BB
S20500002D00CD
S20500002E00CC
S20500002F00CB
S20500003013B7
S20500003100C9
S20500003200C8
S20500003300C7
S20500003413B3
S20500003500C5
S20500003600C4
S20500003700C3
S20500003813AF
S20500003900C1
S20500003A00C0
S20500003B00BF
S20500003C13AB
S20500003D00BD
S20500003E00BC
S20500003F00BB
S20500004013A7
S20500004100B9
S20500004200B8
S20500004300B7
S20500004413A3
S20500004500B5
S20500004600B4
S20500004700B3
S205000048139F
S20500004900B1
S20500004A00B0
S20500004B00AF
S20500004C139B
S20500004D00AD
S20500004E00AC
S20500004F00AB
S2050000501397
S20500005100A9
S20500005200A8
S20500005300A7
S2050000541393
S20500005500A5
S20500005600A4
S20500005700A3
S205000058138F
S20500005900A1
S20500005A00A0
S20500005B009F
S20500005C6F2F
S20500005D009D
S20500005E405C
S20500005F108B
S2050000606F2B
S2050000610099
S2050000628018
S2050000631186
S2050000646F27
S2050000650095
S205000066C0D4
S2050000671281
S2050000686F23
S2050000690091
S20500006A0090
S20500006B147B
S20500006C6F1F
S20500006D008D
S20500006E404C
S20500006F1576
S2050000706F1B
S2050000710089
S2050000720088
S205000073186F
S2050000746F17
S2050000750085
S2050000764044
S205000077166D
S2050000786F13
S2050000790081
S20500007A8000
S20500007B1A65
S20500007C6F0F
S20500007D007D
S20500007EC0BC
S20500007F1863
S2050000806F0B
S2050000810079
S205000082C0B8
S2050000830077
S2050000846F07
S2050000850075
S2050000864034
S2050000871B58
S2050000886F03
S2050000890071
S20500008A80F0
S20500008B1C53
S20500008C73FB
S20500008D105D
S20500008E501C
S20500008F303B
S20500009093D7
S2050000910069
S2050000920068
S2050000930067
S2050000941353
S20500009581E4
S2050000960064
S2050000970063
S20500009893CF
S20500009981E0
S20500009A0060
S20500009B005F
S20500009C134B
S20500009D82DB
S20500009E005C
S20500009F005B
S2050000A093C7
S2050000A182D7
S2050000A20058
S2050000A30057
S2050000A41343
S2050000A583D2
S2050000A60054
S2050000A70053
S2050000A893BF
S2050000A983CE
S2050000AA0050
S2050000AB004F
S2050000AC133B
S2050000AD84C9
S2050000AE004C
S2050000AF004B
S2050000B093B7
S2050000B184C5
S2050000B20048
S2050000B30047
S2050000B41333
S2050000B585C0
S2050000B60044
S2050000B70043
S2050000B893AF
S2050000B985BC
S2050000BA0040
S2050000BB003F
S2050000BC132B
S2050000BD86B7
S2050000BE003C
S2050000BF003B
S2050000C093A7
S2050000C186B3
S2050000C20038
S2050000C30037
S2050000C41323
S2050000C587AE
S2050000C60034
S2050000C70033
S2050000C8939F
S2050000C987AA
S2050000CA0030
S2050000CB002F
S2050000CC131B
S2050000CD88A5
S2050000CE002C
S2050000CF002B
S2050000D09397
S2050000D188A1
S2050000D20028
S2050000D30027
S2050000D41313
S2050000D5899C
S2050000D60024
S2050000D70023
S2050000D8938F
S2050000D98998
S2050000DA0020
S2050000DB001F
S2050000DC130B
S2050000DD8A93
S2050000DE001C
S2050000DF001B
S2050000E09387
S2050000E18A8F
S2050000E20018
S2050000E30017
S2050000E41303
S2050000E58B8A
S2050000E60014
S2050000E70013
S2050000E8937F
S2050000E98B86
S2050000EA0010
S2050000EB000F
S2050000EC13FB
S2050000ED8C81
S2050000EE000C
S2050000EF000B
S2050000F09377
S2050000F18C7D
S2050000F20008
S2050000F30007
S2050000F413F3
S2050000F58D78
S2050000F60004
S2050000F70003
S2050000F8936F
S2050000F98D74
S2050000FA0000
S2050000FB00FF
S2050000FC13EB
S2050000FD8E6F
S2050000FE00FC
S2050000FF00FB
S2050001009366
S2050001018E6A
S20500010200F7
S20500010300F6
S20500010413E2
S2050001058F65
S20500010600F3
S20500010700F2
S205000108935E
S2050001098F61
S20500010A00EF
S20500010B00EE
S20500010C17D6
S20500010D816B
S20500010E10DB
S20500010F00EA
S20500011013D6
S20500011101E7
S20500011241A6
S205000113EFF7
S20500011417CE
S2050001150DD7
S20500011610D3
S20500011700E2
S20500011813CE
S2050001190DD3
S20500011A8D52
S20500011B14CA
S20500011C9746
S20500011D0DCF
S20500011E10CB
S20500011F00DA
S2050001209346
S2050001218D4B
S2050001222DAA
S2050001231BBB
S2050001246372
S205000125587C
S205000126BD16
S20500012701D1
S20500012823AE
S20500012920B0
S20500012A0DC2
S20500012B00CE
S20500012C13BA
S20500012D0DBF
S20500012E4D7E
S20500012F00CA
S205000130E3E6
S205000131DCEC
S205000132AD1A
S205000133FFC7
S205000134EFD6
S20500013510B4
S2050001364083
S2050001377D45
S20500013813AE
S20500013905BB
S20500013A00BF
S20500013B00BE
S20500013C932A
S20500013D05B7
S20500013E10AB
S20500013F00BA
S205000140EFCA
S20500014110A8
S20500014200B7
S2050001436E48
S20500014413A2
S20500014505AF
S20500014600B3
S20500014700B2
S205000148931E
S20500014905AB
S20500014A00AF
S20500014B00AE
S20500014CEFBE
S20500014D00AC
S20500014E802B
S20500014F7733
S2050001501396
S20500015104A4
S20500015205A2
S20500015300A6
S205000154EFB6
S2050001551094
S2050001564063
S205000157732F
S205000158138E
S205000159059B
S20500015A049B
S20500015B009E
S20500015CEFAE
S20500015D108C
S20500015EC0DB
S20500015F7921
S2050001601386
S2050001610197
S2050001620196
S205000163FA9C
S2050001642372
S2050001652E66
S2050001661182
S205000167048E
S205000168EFA2
S2050001690090
S20500016A008F
S20500016B107E
S20500016C97F6
S20500016D008C
S20500016E008B
S20500016F008A
S20500017093F6
S2050001718008
S2050001724047
S205000173176F
S2050001746F16
S2050001750084
S2050001760083
S205000177770B
S205000178136E
S205000179017F
S20500017A017E
S20500017BFA84
S20500017C235A
S20500017D2E4E
S20500017E116A
S20500017F0476
S205000180EF8A
S2050001810078
S20500018280F7
S2050001830E68
S20500018497DE
S2050001850074
S2050001860073
S2050001870072
S20500018893DE
S20500018980F0
S20500018AC0AF
S20500018B1559
S20500018C6FFE
S20500018D105C
S20500018E006B
S20500018F6802
S2050001901356
S2050001910167
S2050001920166
S205000193FA6C
S2050001942342
S2050001952E36
S2050001961152
S205000197045E
S205000198EF72
S2050001990060
S20500019A005F
S20500019B0D51
S20500019C97C6
S20500019D005C
S20500019E005B
S20500019F005A
S2050001A093C6
S2050001A180D8
S2050001A24017
S2050001A31442
S2050001A46FE6
S2050001A50054
S2050001A6D083
S2050001A7232F
S2050001A8133E
S2050001A9014F
S2050001AA014E
S2050001ABFA54
S2050001AC232A
S2050001AD2E1E
S2050001AE113A
S2050001AF0446
S2050001B0EF5A
S2050001B10048
S2050001B280C7
S2050001B30B3B
S2050001B497AE
S2050001B50044
S2050001B60043
S2050001B70042
S2050001B893AE
S2050001B980C0
S2050001BAC07F
S2050001BB122C
S2050001BC6FCE
S2050001BD102C
S2050001BE40FB
S2050001BF65D5
S2050001C01326
S2050001C10137
S2050001C20136
S2050001C3FA3C
S2050001C42312
S2050001C52E06
S2050001C61122
S2050001C7042E
S2050001C8EF42
S2050001C90030
S2050001CA002F
S2050001CB0A24
S2050001CC9796
S2050001CD002C
S2050001CE002B
S2050001CF002A
S2050001D09396
S2050001D180A8
S2050001D240E7
S2050001D31115
S2050001D46FB6
S2050001D51014
S2050001D60023
S2050001D764BE
S2050001D8130E
S2050001D9011F
S2050001DA011E
S2050001DBFA24
S2050001DC23FA
S2050001DD2EEE
S2050001DE110A
S2050001DF0416
S2050001E0EF2A
S2050001E10018
S2050001E28097
S2050001E3080E
S2050001E4977E
S2050001E50014
S2050001E60013
S2050001E70012
S2050001E8937E
S2050001E98090
S2050001EAC04F
S2050001EB0FFF
S2050001EC6F9E
S2050001ED000C
S2050001EED03B
S2050001EF27E3
S2050001F013F6
S2050001F10107
S2050001F20106
S2050001F3FA0C
S2050001F423E2
S2050001F52ED6
S2050001F611F2
S2050001F704FE
S2050001F8EF12
S2050001F90000
S2050001FA00FF
S2050001FB07F7
S2050001FC9766
S2050001FD00FC
S2050001FE00FB
S2050001FF00FA
S2050002009365
S2050002018077
S20500020240B6
S2050002030EE7
S2050002046F85
S20500020510E3
S20500020640B2
S2050002076190
S20500020813DD
S20500020901EE
S20500020A01ED
S20500020BFAF3
S20500020C23C9
S20500020D2EBD
S20500020E11D9
S20500020F04E5
S205000210EFF9
S20500021100E7
S2050002128066
S20500021305E0
S205000214974D
S20500021500E3
S20500021600E2
S20500021700E1
S205000218934D
S205000219805F
S20500021AC01E
S20500021B0CD1
S20500021C6F6D
S20500021D00DB
S20500021E508A
S20500021F4099
S20500022013C5
S20500022101D6
S20500022201D5
S205000223FADB
S20500022423B1
S2050002252EA5
S20500022611C1
S20500022704CD
S205000228EFE1
S20500022900CF
S20500022A00CE
S20500022B04C9
S20500022C9735
S20500022D00CB
S20500022E00CA
S20500022F00C9
S2050002309335
S2050002318047
S2050002324086
S2050002330BBA
S2050002346F55
S20500023510B3
S2050002368042
S2050002375E63
S20500023813AD
S20500023901BE
S20500023A01BD
S20500023BFAC3
S20500023C2399
S20500023D2E8D
S20500023E11A9
S20500023F04B5
S205000240EFC9
S20500024100B7
S2050002428036
S20500024302B3
S205000244971D
S20500024500B3
S20500024600B2
S20500024700B1
S205000248931D
S205000249802F
S20500024AC0EE
S20500024B09A4
S20500024C6F3D
S20500024D00AB
S20500024E109A
S20500024F4B5E
S2050002501395
S20500025101A6
S20500025201A5
S205000253FAAB
S2050002542381
S2050002552E75
S2050002561191
S205000257049D
S205000258EFB1
S205000259009F
S20500025A009E
S20500025B019C
S20500025C9705
S20500025D009B
S20500025E009A
S20500025F0099
S2050002609305
S2050002618017
S2050002624056
S205000263088D
S2050002646F25
S2050002651083
S2050002664052
S2050002674A47
S205000268236D
S205000269206F
S20500026A315D
S20500026B008D
S20500026C2369
S20500026D2269
S20500026E4149
S20500026F0089
S2050002702365
S2050002712463
S2050002725135
S2050002730085
S2050002742361
S205000275265D
S2050002766121
S2050002770081
S205000278235D
S2050002792857
S20500027A710D
S20500027B007D
S20500027C2359
S20500027D2A51
S20500027EA1D9
S20500027F0079
S2050002802355
S2050002812C4B
S205000282B1C5
S2050002830075
S2050002842351
S2050002852E45
S205000286C1B1
S2050002870071
S205000288234D
S205000289204F
S20500028AD19D
S20500028B026B
S20500028C2349
S20500028D2249
S20500028EE189
S20500028F0267
S2050002902345
S2050002912443
S205000292F175
S2050002930263
S2050002942341
S205000295263D
S2050002960161
S205000297035E
S205000298233D
S2050002992837
S20500029A114D
S20500029B035A
S20500029C2339
S20500029D2A31
S20500029EC199
S20500029F0356
S2050002A02335
S2050002A12C2B
S2050002A2D185
S2050002A30352
S2050002A42331
S2050002A52E25
S2050002A6E171
S2050002A7034E
S2050002A8232D
S2050002A9202F
S2050002AAF15D
S2050002AB0548
S2050002AC73D9
S2050002AD2E1D
S2050002AE004A
S2050002AF7BCE
S2050002B0F355
S2050002B12E19
S2050002B21036
S2050002B37BCA
S2050002B473D1
S2050002B52F14
S2050002B62022
S2050002B77BC6
S2050002B8231D
S2050002B9221D
S2050002BAC17D
S2050002BB0538
S2050002BC2319
S2050002BD2417
S2050002BED169
S2050002BF0534
S2050002C02315
S2050002C12611
S2050002C2E155
S2050002C30530
S2050002C473C1
S2050002C52E05
S2050002C640F2
S2050002C77BB6
S2050002C8F33D
S2050002C92E01
S2050002CA50DE
S2050002CB7BB2
S2050002CC73B9
S2050002CD2FFC
S2050002CE60CA
S2050002CF7BAE
S2050002D02305
S2050002D128FF
S2050002D2C165
S2050002D30520
S2050002D42301
S2050002D52AF9
S2050002D6D151
S2050002D7051C
S2050002D823FD
S2050002D92CF3
S2050002DAE13D
S2050002DB0518
S2050002DC67B5
S2050002DD809B
S2050002DE001A
S2050002DF0019
S2050002E00315
S2050002E12EE9
S2050002E20115
S2050002E30510
S2050002E48391
S2050002E52EE5
S2050002E641D1
S2050002E7050C
S2050002E8030D
S2050002E92FE0
S2050002EA818D
S2050002EB0508
S2050002EC7399
S2050002ED10FB
S2050002EE4EBC
S2050002EF7B8E
S2050002F07395
S2050002F19077
S2050002F25EA8
S2050002F37B8A
S2050002F47391
S2050002F510F3
S2050002F66F93
S2050002F77B86
S2050002F803FD
S2050002F92ED1
S2050002FA41BD
S2050002FB04F9
S2050002FC8379
S2050002FD2ECD
S2050002FE8179
S2050002FF04F5
S20500030003F4
S2050003012FC7
S205000302C134
S20500030304F0
S2050003047380
S20500030510E2
S2050003060EE3
S2050003077B75
S205000308737C
S205000309905E
S20500030A1ECF
S20500030B7B71
S20500030C7378
S20500030D10DA
S20500030E2FBA
S20500030F7B6D
S2050003108364
S20500031121C5
S20500031201E4
S20500031300E4
S20500031403E0
S20500031522C0
S20500031641A0
S20500031700E0
S205000318835C
S20500031922BC
S20500031A815C
S20500031B00DC
S20500031C03D8
S20500031D23B7
S20500031EC118
S20500031F00D8
S2050003208354
S20500032123B3
S20500032201D4
S20500032301D3
S20500032403D0
S20500032525AD
S2050003264190
S20500032701CF
S205000328834C
S20500032925A9
S20500032A814C
S20500032B01CB
S20500032C03C8
S20500032D26A4
S20500032EC108
S20500032F01C7
S2050003308344
S20500033126A0
S20500033201C4
S20500033302C2
S20500033403C0
S205000335279B
S2050003364180
S20500033702BE
S205000338833C
S2050003392797
S20500033A813C
S20500033B02BA
S20500033C03B8
S20500033D2892
S20500033EC1F8
S20500033F02B6
S2050003408334
S205000341288E
S20500034201B4
S20500034303B1
S20500034403B0
S2050003452E84
S2050003464170
S20500034703AD
S205000348832C
S2050003492E80
S20500034A812C
S20500034B03A9
S20500034C03A8
S20500034D2F7B
S20500034EC1E8
S20500034F03A5
S2050003508324
S2050003512F77
S20500035201A4
S20500035304A0
S2050003548320
S2050003552082
S205000356C1E0
S205000357059B
S205000358138C
S205000359019D
S20500035A019C
S20500035B0696
S20500035C7328
S20500035D009A
S20500035E2079
S20500035F3068
S2050003606730
S2050003618016
S2050003620095
S2050003630094
S205000364791A
S2050003657121
S2050003665E33
S205000367C6CA
S2050003680689
S205000369D6B8
S20500036A226B
S20500036BD4B8
S20500036C2665
S20500036DD2B8
S20500036E4A3F
S20500036FD0B8
S2050003704E39
S205000371CEB8
S2050003725233
S205000373CCB8
S205000374562D
S205000375CAB8
S2050003765A27
S205000377C8B8
S205000378AED1
S2050003798BF3
S20500037AF38A
S20500037B2953
S20500037C205B
S20500037D007A
S20500037E93E6
S20500037F5424
S2050003807502
S2050003810175
S2050003821362
S2050003831B59
S20500038495DE
S2050003850072
S20500038693DE
S205000387F47C
S205000388F47B
S2050003890F5F
S20500038A135A
S20500038B5B11
S20500038C9BD0
S20500038D006A
S20500038E1356
S20500038F5A0E
S205000390F572
S2050003910165
S20500039299CC
S205000393CC98
S20500039493D0
S205000395075B
S205000396F071
S2050003970F51
S20500039863FC
S20500039988D6
S20500039AF469
S20500039B025A
S20500039C0E4D
S20500039D0B4F
S20500039EB7A2
S20500039F0751
S2050003A00057
S2050003A10452
S2050003A23322
S2050003A36BE9
S2050003A4FB58
S2050003A50052
S2050003A693BE
S2050003A784CC
S2050003A8143B
S2050003A9F856
S2050003AA81CC
S2050003AB4A02
S2050003AC014A
S2050003AD4901
S2050003AE3D0C
S2050003AFA0A8
S2050003B063E4
S2050003B10A3C
S2050003B20B3A
S2050003B3083C
S2050003B45AE9
S2050003B585BD
S2050003B659E8
S2050003B7211F
S2050003B893AC
S2050003B90737
S2050003BAB588
S2050003BBFF3D
S2050003BC93A8
S2050003BD0436
S2050003BEA099
S2050003BFF840
S2050003C03304
S2050003C11B1B
S2050003C2FB3A
S2050003C30034
S2050003C489AA
S2050003C58CA6
S2050003C6D55C
S2050003C7B779
S2050003C863CC
S2050003C9012D
S2050003CA0B22
S2050003CB0824
S2050003CC37F4
S2050003CD0921
S2050003CE40E9
S2050003CF0028
S2050003D033F4
S2050003D139ED
S2050003D22BFA
S2050003D30123
S2050003D41211
S2050003D50919
S2050003D6938E
S2050003D7041C
S2050003D8F02F
S2050003D90F0F
S2050003DA8D90
S2050003DB4AD2
S2050003DC9388
S2050003DDD743
S2050003DE7B9E
S2050003DF0117
S2050003E01304
S2050003E19482
S2050003E29B7A
S2050003E30014
S2050003E49380
S2050003E5F71B
S2050003E6F71A
S2050003E70F01
S2050003E825EA
S2050003E9808E
S2050003EA937A
S2050003EBDB31
S2050003ECFB10
S2050003ED0109
S2050003EEB554
S2050003EFC345
S2050003F013F4
S2050003F107FF
S2050003F2F015
S2050003F30FF5
S2050003F463A0
S2050003F58A78
S2050003F6E71A
S2050003F706FA
S2050003F80EF1
S2050003F904FA
S2050003FA37C6
S2050003FB07F5
S2050003FC00FB
S2050003FD04F6
S2050003FE59A0
S2050003FF8C6C
S2050004009363
S205000401876E
S20500040217DD
S205000403F8FB
S20500040401F1
S20500040547AA
S205000406BE32
S205000407945B
S205000408935B
S2050004099756
S20500040A2AC2
S20500040B00EB
S20500040CD911
S20500040D8F5A
S20500040EA93F
S20500040F45A2
S205000410B333
S205000411469F
S2050004127A6A
S20500041301E2
S20500041413CF
S205000415865B
S20500041614CC
S20500041700DF
S205000418637B
S205000419C914
S20500041AF5E7
S20500041B16C5
S20500041C8951
S20500041D4594
S20500041E6375
S20500041FCA0D
S205000420F5E1
S20500042106CF
S205000422FDD7
S20500042317BC
S205000424854D
S205000425458C
S205000426636D
S205000427E3EC
S205000428F5D9
S20500042908C5
S20500042ABA12
S20500042B8A41
S20500042C8941
S20500042D4782
S20500042E6365
S20500042F8B3C
S205000430FACC
S2050004312A9B
S2050004328D37
S205000433477C
S205000434635F
S2050004358C35
S205000436FAC6
S2050004372A95
S2050004388539
S2050004394776
S20500043A6359
S20500043B9B20
S20500043CFAC0
S20500043D0CAD
S20500043E01B7
S20500043F4770
S2050004408135
S205000441476E
S20500044205AF
S205000443A211
S2050004448131
S205000445446D
S205000446852B
S2050004474A65
S2050004489519
S205000449B7F6
S20500044A9319
S20500044B04A7
S20500044CF0BA
S20500044D0F9A
S20500044E891F
S20500044F4A5D
S205000450B1F5
S205000451BFE6
S205000452059F
S205000453C4DF
S2050004542280
S205000455851C
S205000456DDC3
S2050004572679
S205000458930B
S2050004590796
S20500045AB5E7
S20500045BFF9C
S20500045C3367
S20500045D1485
S20500045EF4A4
S20500045F0097
S2050004609303
S205000461078E
S205000462A0F4
S205000463F89B
S2050004648909
S2050004658F02
S2050004667917
S205000467BFD0
S205000468018D
S205000469CCC1
S20500046AB7D5
S20500046B0784
S20500046C404A
S20500046D0089
S20500046E6325
S20500046F6D1A
S205000470F492
S2050004710085
S20500047293F1
S205000473077C
S205000474F092
S2050004750F72
S2050004760D73
S2050004774738
S2050004787905
S205000479B7C6
S20500047A81FB
S20500047B4734
S20500047C0575
S20500047D4732
S20500047E6117
S20500047FB7C0
S20500048093E3
S205000481076E
S205000482F084
S2050004830F64
S2050004840969
S205000485472A
S205000486412F
S205000487B7B8
S20500048893DB
S2050004890766
S20500048AF07C
S20500048B0F5C
S20500048C0D5D
S20500048D4722
S20500048E4127
S20500048F491E
S2050004909DC9
S205000491BFA6
S20500049285DF
S205000493451E
S205000494B3AF
S20500049597CA
S205000496F56B
S205000497005F
S20500049893CB
S205000499F568
S20500049A0755
S20500049B5308
S20500049CF565
S20500049DED6C
S20500049E93C5
S20500049FF562
S2050004A0074F
S2050004A12431
S2050004A2ED67
S2050004A3ED66
S2050004A493BF
S2050004A5F75A
S2050004A687C9
S2050004A70847
S2050004A863EB
S2050004A992BB
S2050004AA0745
S2050004AB103B
S2050004ACC189
S2050004AD68E1
S2050004AE1335
S2050004AF88BF
S2050004B0F84E
S2050004B1FF46
S2050004B21331
S2050004B357EC
S2050004B40B37
S2050004B50140
S2050004B693AD
S2050004B757E8
S2050004B8043A
S2050004B9013C
S2050004BAB389
S2050004BB75C6
S2050004BC0436
S2050004BD0138
S2050004BE3305
S2050004BF7BBC
S2050004C00B2B
S2050004C10134
S2050004C23301
S2050004C3052E
S2050004C4BB77
S2050004C5022F
S2050004C6B37D
S2050004C7052A
S2050004C8B777
S2050004C9022B
S2050004CA1319
S2050004CB54D7
S2050004CC0525
S2050004CD0128
S2050004CE33F5
S2050004CF0720
S2050004D0F72F
S2050004D10223
S2050004D2B371
S2050004D3879C
S2050004D467BB
S2050004D5031E
S2050004D6AE72
S2050004D79788
S2050004D83EE0
S2050004D99489
S2050004DA63B9
S2050004DB73A8
S2050004DCB466
S2050004DD0019
S2050004DE46D2
S2050004DF9780
S2050004E0B363
S2050004E1779E
S2050004E20410
S2050004E30112
S2050004E4C250
S2050004E5070A
S2050004E633DD
S2050004E7759A
S2050004E80509
S2050004E9010C
S2050004EAAA62
S2050004EB9774
S2050004EC9377
S2050004ED9574
S2050004EE67A1
S2050004EF0007
S2050004F041C5
S2050004F18085
S2050004F2B351
S2050004F335CE
S2050004F4B052
S2050004F50001
S2050004F6E917
S2050004F7837C
S2050004F83AC4
S2050004F99469
S2050004FACD2F
S2050004FB8F6C
S2050004FC1AE0
S2050004FD04F5
S2050004FE5D9B
S2050004FF8C6B
S205000500B73E
S20500050107ED
S20500050200F3
S20500050308EA
S205000504E110
S2050005058F61
S205000506CD22
S205000507C727
S205000508935A
S2050005095795
S20500050A14D7
S20500050B00EA
S20500050C05E4
S20500050D8860
S20500050E5D8A
S20500050F8C5A
S2050005109352
S20500051107DD
S205000512F6ED
S20500051307DB
S20500051413CE
S205000515954B
S205000516F6E9
S20500051701DD
S205000518637A
S2050005195C80
S20500051AF0EB
S20500051B0CCE
S20500051C13C6
S20500051D7761
S20500051E7463
S20500051F00D6
S2050005200DC8
S205000521C311
S20500052209CA
S205000523478B
S20500052413BE
S2050005256967
S20500052619B6
S20500052700CE
S205000528636A
S2050005298943
S20500052AE9E2
S20500052B08C2
S20500052C0DBC
S20500052D4781
S20500052E6364
S20500052F8343
S205000530E9DC
S20500053108BC
S2050005326360
S205000533982A
S20500053409B8
S20500053500C0
S20500053613AC
S2050005377747
S205000538F4C9
S20500053900BC
S20500053A912A
S20500053B4575
S20500053C6356
S20500053D03B5
S20500053EB700
S20500053F00B6
S20500054011A4
S20500054104B0
S205000542377C
S20500054307AB
S20500054400B1
S20500054508A8
S205000546614E
S2050005478F1F
S2050005481994
S205000549C7E5
S20500054AB7F4
S20500054B07A3
S20500054C00A9
S20500054DF8B0
S20500054EFDAA
S20500054F178F
S2050005507D28
S2050005518C18
S2050005529310
S205000553079B
S205000554069B
S2050005550898
S205000556138C
S2050005570797
S205000558E0BD
S2050005590F8D
S20500055A6338
S20500055B4258
S20500055CF7A2
S20500055D0692
S20500055E1384
S20500055F573F
S2050005603461
S2050005610094
S205000562266D
S205000563078B
S205000564DEB3
S2050005650789
S205000566256A
S205000567830B
S205000568D9B4
S2050005698FFD
S20500056A1378
S20500056B95F5
S20500056CF693
S20500056D0187
S20500056E5D2A
S20500056F8DF9
S2050005706322
S2050005711B69
S205000572097A
S2050005730280
S205000574B2CF
S2050005755030
S205000576225D
S205000577542A
S20500057892EB
S2050005795428
S20500057A0279
S20500057B5921
S20500057CF287
S20500057D492F
S20500057E6215
S20500057F4A2C
S205000580D2A3
S2050005814A2A
S2050005824231
S2050005834B27
S205000584B2BF
S2050005854B25
S205000586452A
S205000587610D
S20500058882EB
S20500058980EC
S20500058ABDAE
S20500058B4624
S20500058C6306
S20500058D80E8
S20500058ED790
S20500058F1650
S205000590ADB8
S205000591461E
S2050005926300
S2050005938DD5
S205000594D78A
S2050005950060
S205000596D28D
S20500059786D8
S2050005985A03
S20500059984D8
S20500059A4912
S20500059BBD9D
S20500059CB7A2
S20500059D0751
S20500059E1047
S20500059F0056
S2050005A00352
S2050005A1A5AF
S2050005A287CC
S2050005A31C36
S2050005A44110
S2050005A54907
S2050005A673DC
S2050005A7202E
S2050005A81934
S2050005A9004C
S2050005AAE962
S2050005ABB793
S2050005ACDE6B
S2050005AD86C2
S2050005AEB592
S2050005AFBD89
S2050005B0261F
S2050005B186BE
S2050005B2B98A
S2050005B3BF83
S2050005B4D968
S2050005B5F64A
S2050005B6211E
S2050005B7043A
S2050005B869D4
S2050005B9B785
S2050005BAC17A
S2050005BBD664
S2050005BCED4C
S2050005BDBF79
S2050005BE89AE
S2050005BF47EF
S2050005C063D2
S2050005C186AE
S2050005C2F93A
S2050005C30230
S2050005C48DA4
S2050005C547E9
S2050005C663CC
S2050005C788A6
S2050005C8F934
S2050005C9002C
S2050005CA63C8
S2050005CB87A3
S2050005CC0920
S2050005CD0028
S2050005CE7DAA
S2050005CF57CF
S2050005D09392
S2050005D1071D
S2050005D2E043
S2050005D30F13
S2050005D429F8
S2050005D5A080
S2050005D6E53A
S2050005D7FE20
S2050005D8011C
S2050005D947D5
S2050005DA9388
S2050005DB0713
S2050005DCF029
S2050005DD0F09
S2050005DE1304
S2050005DF69AD
S2050005E059BC
S2050005E10014
S2050005E226ED
S2050005E3070B
S2050005E4DE33
S2050005E50709
S2050005E625EA
S2050005E7838B
S2050005E8D934
S2050005E98F7D
S2050005EA59B2
S2050005EBA06A
S2050005ECED1C
S2050005EDD236
S2050005EEED1A
S2050005EFB74F
S2050005F0C144
S2050005F1EB19
S2050005F213F0
S2050005F3778B
S2050005F4748D
S2050005F50000
S2050005F6A25D
S2050005F78777
S2050005F815E8
S2050005F9C339
S2050005FA09F2
S2050005FB47B3
S2050005FC13E6
S2050005FD698F
S2050005FE19DE
S2050005FF00F6
S2050006006391
S2050006018E65
S205000602E909
S20500060306EB
S2050006040DE3
S20500060547A8
S205000606638B
S2050006078766
S205000608E903
S20500060906E5
S20500060A6387
S20500060B9950
S20500060C09DF
S20500060D00E7
S20500060E13D3
S20500060F776E
S205000610F4F0
S20500061100E3
S2050006129151
S205000613459C
S205000614637D
S20500061504DB
S205000616B727
S20500061700DD
S2050006189349
S20500061907D4
S20500061A4496
S20500061B00D9
S20500061CEDEB
S20500061D8354
S20500061E9343
S20500061FC70E
S20500062017BD
S20500062100D3
S205000622854D
S2050006238B46
S20500062405CB
S2050006254788
S20500062613BB
S20500062706C7
S205000628E6E6
S20500062909C2
S20500062A3397
S20500062B16B3
S20500062CC404
S20500062D00C7
S20500062E3393
S20500062F368F
S205000630C004
S20500063100C3
S205000632338F
S205000633576A
S205000634E4DC
S20500063500BF
S205000636516D
S2050006378F2E
S20500063813A9
S2050006397645
S20500063A7743
S20500063B00B9
S20500063C0DAB
S20500063DC2F5
S20500063E09AD
S20500063F466F
S20500064013A1
S205000641694A
S2050006421999
S20500064300B1
S205000644634D
S2050006458827
S205000646C9E5
S20500064704A9
S2050006480D9F
S2050006494665
S20500064A6347
S20500064B8227
S20500064CC9DF
S20500064D04A3
S20500064E6343
S20500064F980D
S205000650099B
S20500065100A3
S205000652138F
S205000653762B
S205000654F7A9
S205000655009F
S205000656910D
S2050006574558
S2050006586339
S2050006590398
S20500065AB6E4
S20500065B0099
S20500065C1187
S20500065D0790
S20500065E375F
S20500065F068F
S2050006600094
S205000661048F
S2050006627919
S2050006638E03
S205000664157B
S205000665CAC5
S205000666137B
S2050006676924
S2050006681973
S205000669008B
S20500066AB1D9
S20500066BE3A6
S20500066CB7D1
S20500066D0780
S20500066E8006
S20500066F0085
S2050006705D27
S2050006718DF6
S205000672156D
S205000673BFC2
S205000674C5BB
S205000675F689
S20500067693EB
S2050006770776
S20500067884F8
S205000679007B
S20500067A4D2D
S20500067BB7C2
S20500067CC5B3
S20500067DD2A5
S20500067EE591
S20500067FBFB6
S205000680056F
S205000681472C
S2050006821D55
S2050006838FE2
S205000684ED83
S2050006854728
S205000686630B
S205000687C6A7
S205000688E785
S2050006890269
S20500068A85E5
S20500068B4722
S20500068C69FF
S20500068DBFA8
S20500068EE185
S20500068FFA6B
S2050006902143
S205000691075C
S205000692F171
S205000693B7AA
S205000694E977
S205000695D689
S205000696ED71
S205000697BF9E
S2050006980D4F
S20500069983D8
S20500069AE377
S20500069B84D5
S20500069C0751
S20500069DEC6B
S20500069E93C3
S20500069F77DE
S2050006A0193B
S2050006A10053
S2050006A2E36F
S2050006A380D1
S2050006A40749
S2050006A5EC63
S2050006A681CD
S2050006A74706
S2050006A81339
S2050006A969E2
S2050006AA2921
S2050006AB0049
S2050006AC1D2B
S2050006ADBF88
S2050006AE0145
S2050006AF47FE
S2050006B0E55F
S2050006B1BF84
S2050006B21131
S2050006B3CC75
S2050006B489B7
S2050006B547F8
S2050006B6132B
S2050006B769D4
S2050006B81923
S2050006B9003B
S2050006BA63D7
S2050006BB82B7
S2050006BCF93F
S2050006BD0235
S2050006BE8DA9
S2050006BF47EE
S2050006C063D1
S2050006C18BA8
S2050006C2F939
S2050006C30031
S2050006C4151B
S2050006C544EB
S2050006C663CB
S2050006C783AA
S2050006C80923
S2050006C9002B
S2050006CA0525
S2050006CB44E5
S2050006CC0D1B
S2050006CD80A7
S2050006CE1313
S2050006CF69BC
S2050006D029FB
S2050006D10023
S2050006D241E1
S2050006D38D94
S2050006D4C957
S2050006D5BD62
S2050006D60519
S2050006D744D9
S2050006D8F527
S2050006D9FA21
S2050006DA25F5
S2050006DB44D5
S2050006DCC553
S2050006DDBF58
S2050006DE0511
S2050006DF44D1
S2050006E0F51F
S2050006E1D63D
S2050006E2E52D
S2050006E3BF52
S2050006E4010F
S2050006E547C8
S2050006E6937B
S2050006E70706
S2050006E8F01C
S2050006E90FFC
S2050006EAA565
S2050006EBBD4C
S2050006EC37D1
S2050006ED0700
S2050006EE40C6
S2050006EF0005
S2050006F09371
S2050006F107FC
S2050006F2F012
S2050006F30FF2
S2050006F4817F
S2050006F546B9
S2050006F6B549
S2050006F7B548
S2050006F8AA52
S2050006F98675
S2050006FAF307
S2050006FB27D2
S2050006FC20D8
S2050006FD00F7
S2050006FE37BF
S2050006FF07EE
S2050007008073
S20500070100F2
S205000702935E
S205000703D719
S2050007047679
S20500070501ED
S20500070613DA
S20500070705E7
S205000708F7F4
S205000709FFEB
S20500070A9356
S20500070BF7F1
S20500070CF7F0
S20500070D0FD7
S20500070E13D2
S20500070F06DE
S205000710E003
S20500071107DB
S205000712756C
S2050007138D53
S205000714FDE2
S205000715825C
S205000716637A
S2050007174597
S205000718F6E5
S20500071900DA
S20500071AA138
S20500071BE3F5
S20500071C1DBA
S20500071DEDE9
S20500071E8253
S20500071F8054
S2050007209D36
S205000721EEE4
S205000722933E
S20500072306CA
S205000724E0EF
S20500072509C5
S205000726636A
S205000727CFFD
S205000728F6D5
S20500072902C8
S20500072A9336
S20500072B06C2
S20500072C5077
S20500072D09BD
S20500072E497C
S20500072F8F35
S2050007306360
S205000731D7EB
S205000732F6CB
S20500073300C0
S205000734932C
S2050007358737
S205000736A716
S205000737F6C6
S2050007383388
S20500073915A5
S20500073AF7C2
S20500073B00B8
S20500073C8235
S20500073D8036
S20500073E13A2
S20500073F05AF
S2050007406053
S20500074109A9
S2050007421D94
S2050007438D23
S205000744931C
S2050007458727
S205000746A706
S205000747F8B4
S2050007483378
S2050007495555
S20500074AA702
S20500074B00A8
S20500074C3374
S20500074D178F
S20500074EF7AE
S20500074F00A4
S20500075001A2
S205000751C7DB
S205000752851C
S2050007534759
S205000754732C
S205000755A0FE
S2050007561786
S205000757009C
S2050007588219
S205000759801A
S20500075A0198
S20500075B4553
S20500075CDDBA
S20500075DBFD7
S20500075E0194
S20500075F454F
S205000760C1D2
S205000761474B
S205000762CDC4
S205000763BFD1
S2050007647D12
S2050007655539
S205000766EDA0
S205000767BFCD
S205000768414A
S2050007691179
S20500076A0683
S20500076BC6C2
S20500076C2265
S20500076DC4C2
S20500076E265F
S20500076FC2C2
S205000770F390
S205000771245E
S2050007722061
S2050007730080
S2050007746916
S205000775C1BD
S2050007762A53
S20500077784F8
S205000778D1AA
S205000779205A
S20500077A1366
S20500077B0771
S20500077CE097
S20500077D096D
S20500077E096C
S20500077F8FE5
S20500078093E0
S205000781076B
S2050007826011
S2050007830967
S205000784630C
S205000785C8A6
S205000786E786
S205000787026A
S205000788B7B4
S2050007890763
S20500078A80E9
S20500078B0068
S20500078CA1C6
S20500078D4620
S20500078EFD68
S20500078F174D
S2050007906300
S2050007911B47
S205000792D58C
S2050007930060
S2050007947DE2
S2050007958CD2
S2050007963726
S2050007970557
S205000798005B
S2050007994B0F
S20500079A4118
S20500079B8DCB
S20500079CB2A5
S20500079D4016
S20500079E2233
S20500079F4410
S2050007A092C1
S2050007A1440E
S2050007A24110
S2050007A3014F
S2050007A482CD
S2050007A580CE
S2050007A661EC
S2050007A71537
S2050007A83318
S2050007A91436
S2050007AAA4A5
S2050007AB0048
S2050007AC7DCA
S2050007AD8CBA
S2050007AE1332
S2050007AF152F
S2050007B077CC
S2050007B10141
S2050007B2E55C
S2050007B3B789
S2050007B493AC
S2050007B50737
S2050007B690AD
S2050007B70933
S2050007B863D8
S2050007B9DB5F
S2050007BAE752
S2050007BB0236
S2050007BC93A4
S2050007BD072F
S2050007BEB580
S2050007BF0133
S2050007C0959E
S2050007C146EC
S2050007C2B37E
S2050007C31719
S2050007C4F43B
S2050007C5002E
S2050007C689A4
S2050007C78E9E
S2050007C8B378
S2050007C937F3
S2050007CAF039
S2050007CB0028
S2050007CC33F4
S2050007CD54D2
S2050007CED451
S2050007CF0024
S2050007D05DC6
S2050007D18C96
S2050007D2B76A
S2050007D30719
S2050007D4001F
S2050007D5FC22
S2050007D6FD20
S2050007D71705
S2050007D81308
S2050007D976A4
S2050007DA74A5
S2050007DB0018
S2050007DCE136
S2050007DD8F87
S2050007DE8194
S2050007DF46CE
S2050007E00D06
S2050007E1C64C
S2050007E29180
S2050007E3CC44
S2050007E48D82
S2050007E546C8
S2050007E663AA
S2050007E78686
S2050007E8D437
S2050007E90406
S2050007EA8584
S2050007EB46C2
S2050007EC39CE
S2050007EDA85E
S2050007EE9570
S2050007EF46BE
S2050007F09370
S2050007F107FB
S2050007F2B54C
S2050007F3FF01
S2050007F4E31C
S2050007F50FEF
S2050007F6D528
S2050007F7FC00
S2050007F833C8
S2050007F914E6
S2050007FAF405
S2050007FB00F8
S2050007FCD91E
S2050007FDBF37
S2050007FE3DB8
S2050007FF886C
S20500080011E1
S20500080146AB
S205000802856B
S20500080346A9
S205000804638B
S20500080503EA
S205000806C428
S20500080700EB
S2050008089159
S20500080907E2
S20500080A37B1
S20500080B06E1
S20500080C00E6
S20500080D04E1
S20500080E7D67
S20500080F8E55
S20500081001E1
S205000811CA17
S20500081237A9
S20500081307D8
S20500081400DE
S205000815FCE1
S2050008167D5F
S20500081717C4
S205000818F9E1
S2050008198F4A
S20500081A13C5
S20500081B07D0
S20500081CF0E6
S20500081D09CC
S20500081E09CB
S20500081F8F44
S20500082013BF
S205000821953C
S2050008226769
S20500082300CF
S20500082425A9
S205000825814C
S2050008265E6E
S20500082707C4
S2050008285971
S2050008298D3C
S20500082AAD1B
S20500082BDAED
S20500082C7353
S20500082DE0E5
S20500082E10B4
S20500082F00C3
S205000830B50D
S205000831B70A
S205000832A11F
S20500083307B8
S2050008345D61
S205000835BFFE
S20500083613A9
S20500083705B6
S20500083800BA
S20500083900B9
S20500083A8D2B
S20500083BB700
S20500083CC1F5
S20500083D674E
S20500083E6351
S20500083F763D
S205000840F5BD
S20500084102AF
S205000842931D
S2050008433778
S20500084405A9
S205000845109D
S2050008469319
S205000847C7E4
S2050008481793
S20500084900A9
S20500084A8E1A
S20500084B07A0
S20500084C376F
S20500084D079E
S20500084E1094
S20500084F00A3
S205000850930F
S205000851069B
S20500085200A0
S205000853029D
S2050008549D01
S2050008558E0F
S2050008563369
S2050008575546
S205000858F5A5
S2050008590099
S20500085A9305
S20500085B0790
S20500085C078F
S20500085D0095
S20500085EAAEA
S20500085F97FC
S205000860038F
S205000861C5CC
S2050008620789
S205000863008F
S205000864335B
S2050008658508
S205000866A6E6
S205000867404B
S2050008688208
S2050008698009
S20500086A3751
S20500086B0780
S20500086C0086
S20500086D0184
S20500086EC1C3
S20500086F473C
S205000870E39F
S2050008716E13
S205000872E59B
S205000873FC83
S205000874E19D
S2050008754736
S205000876D9A3
S205000877BFBC
S205000878007A
S2050008790079
S20500087A0078
S20500087B0077
S20500087C0076
S20500087D0075
S20500087E0074
S20500087F0073
S2050008800072
S2050008810071
S2050008820070
S205000883006F
S205000884006E
S205000885006D
S205000886006C
S205000887006B
S2050008886703
S20500088980E9
S20500088A0068
S20500088B0067
S20500088C1353
S20500088D0164
S20500088E0163
S20500088FFF64
S20500089093CF
S205000891055C
S2050008921050
S205000893005F
S205000894134B
S2050008950558
S205000896D08C
S205000897005B
S2050008982337
S2050008992633
S20500089A1147
S20500089B0057
S20500089CEF67
S20500089D0055
S20500089EC094
S20500089F282B
S2050008A0133F
S2050008A1054C
S2050008A23020
S2050008A3004F
S2050008A4EF5F
S2050008A5004D
S2050008A6004C
S2050008A74209
S2050008A893B7
S2050008A90544
S2050008AA0048
S2050008AB0047
S2050008AC1333
S2050008AD0540
S2050008AED074
S2050008AF0043
S2050008B0EF53
S2050008B10041
S2050008B280C0
S2050008B32718
S2050008B4132B
S2050008B50538
S2050008B6300C
S2050008B7003B
S2050008B8EF4B
S2050008B90039
S2050008BAC078
S2050008BB40F7
S2050008BC1323
S2050008BD0530
S2050008BE0034
S2050008BF0033
S2050008C0EF43
S2050008C11021
S2050008C280B0
S2050008C3032C
S2050008C4131B
S2050008C5012C
S2050008C6012B
S2050008C7FF2C
S2050008C82307
S2050008C92603
S2050008CA1117
S2050008CB0027
S2050008CCEF37
S2050008CD0025
S2050008CE40E4
S2050008CF50D3
S2050008D0EF33
S2050008D1F031
S2050008D29F81
S2050008D3FB24
S2050008D4938B
S2050008D50518
S2050008D6100C
S2050008D7001B
S2050008D81307
S2050008D90514
S2050008DAD048
S2050008DB0017
S2050008DCEF27
S2050008DD0015
S2050008DE8094
S2050008DF1DF6
S2050008E0EF23
S2050008E1F021
S2050008E2DF31
S2050008E3FA15
S2050008E437D7
S2050008E557B6
S2050008E610FC
S2050008E71AF1
S2050008E88387
S2050008E927E2
S2050008EAC741
S2050008EB0007
S2050008EC9373
S2050008EDF60F
S2050008EE07FD
S2050008EF0201
S2050008F0639F
S2050008F1847D
S2050008F206FA
S2050008F304FB
S2050008F4B747
S2050008F507F6
S2050008F610EC
S2050008F700FB
S2050008F89367
S2050008F906F3
S2050008FA8078
S2050008FB03F4
S2050008FCA353
S2050008FD8E67
S2050008FED71D
S2050008FF2AC9
S205000900935E
S20500090107E9
S20500090200EF
S20500090308E6
S20500090423CA
S20500090522CA
S205000906F7F4
S20500090700EA
S205000908B732
S20500090907E1
S20500090A10D7
S20500090B00E6
S20500090C23C2
S20500090D8163
S20500090E07DC
S20500090F2CB6
S205000910B72A
S205000911568A
S20500091210CF
S2050009131AC4
S205000914835A
S205000915A735
S2050009164695
S20500091701D9
S20500091837A2
S2050009194791
S20500091A10C7
S20500091B1ABC
S20500091C9342
S20500091DE7ED
S20500091E17BC
S20500091F00D2
S20500092023AE
S205000921AA26
S205000922F6D9
S20500092300CE
S205000924834A
S20500092527A5
S205000926C704
S20500092700CA
S205000928B712
S20500092906C2
S20500092A8047
S20500092B00C6
S20500092CB312
S20500092DE7DD
S20500092ED7EC
S20500092F00C2
S205000930239E
S205000931269A
S205000932F7C8
S20500093300BE
S2050009346756
S205000935803C
S20500093600BB
S20500093700BA
S2050009389326
S205000939F7C1
S20500093A07B0
S20500093B08AE
S20500093C6352
S20500093D9A1A
S20500093E07AC
S20500093F06AC
S205000940B7FA
S20500094107A9
S205000942109F
S20500094300AE
S20500094403AA
S205000945C6E6
S2050009462784
S2050009472C7E
S2050009489316
S20500094906A2
S20500094A2087
S20500094B00A6
S20500094C6342
S20500094D089C
S20500094ED6CD
S20500094F089A
S205000950039E
S205000951C6DA
S2050009522778
S2050009532C72
S205000954930A
S2050009550696
S205000956108B
S205000957009A
S205000958E3B6
S2050009591C7C
S20500095AD6C1
S20500095BFA9C
S20500095CB7DE
S20500095D068E
S20500095E1083
S20500095F0092
S205000960038E
S205000961C6CA
S205000962C6C9
S2050009632B63
S205000964632A
S2050009651A72
S2050009660685
S205000967107A
S205000968B7D2
S2050009690682
S20500096A1077
S20500096B0086
S20500096C0382
S20500096D255F
S20500096E87FC
S20500096F0082
S20500097083FE
S205000971C5BB
S205000972F689
S2050009732B53
S2050009743746
S2050009750775
S205000976106B
S205000977007A
S2050009781366
S2050009790771
S20500097AC7B0
S20500097B2551
S20500097C1362
S20500097D86EE
S20500097E155E
S20500097F0072
S205000980135E
S20500098176FA
S205000982F679
S2050009830F5F
S205000984333A
S2050009850765
S205000986B7B4
S205000987006A
S205000988A3C6
S2050009898FD9
S20500098AC6A1
S20500098B2A3C
S20500098C2342
S20500098D0064
S20500098EA7BC
S20500098F0062
S205000990372A
S2050009910759
S205000992104F
S205000993005E
S20500099483DA
S205000995C696
S205000996F665
S2050009972B2F
S2050009980356
S2050009994711
S20500099AE770
S20500099B2B2B
S20500099C63F2
S20500099DF460
S20500099EE66D
S20500099F0E44
S2050009A0B79A
S2050009A157F9
S2050009A2103F
S2050009A31A34
S2050009A4133A
S2050009A50745
S2050009A6004B
S2050009A70248
S2050009A82326
S2050009A9AA9E
S2050009AAE760
S2050009AB0046
S2050009AC6FD6
S2050009ADF054
S2050009AE5FE4
S2050009AFF64C
S2050009B0B78A
S2050009B10739
S2050009B2102F
S2050009B3003E
S2050009B483BA
S2050009B5C676
S2050009B62714
S2050009B72C0E
S2050009B81326
S2050009B90731
S2050009BA2017
S2050009BB0036
S2050009BC63D2
S2050009BD80B4
S2050009BEE64D
S2050009BF062C
S2050009C037FA
S2050009C157D9
S2050009C2101F
S2050009C31A14
S2050009C4939A
S2050009C50626
S2050009C6002B
S2050009C70426
S2050009C82306
S2050009C92AFE
S2050009CAD750
S2050009CB0026
S2050009CC9392
S2050009CD061E
S2050009CE0023
S2050009CF081A
S2050009D023FE
S2050009D122FE
S2050009D2D748
S2050009D3001E
S2050009D423FA
S2050009D5819B
S2050009D60714
S2050009D72CEE
S2050009D86FAA
S2050009D9F028
S2050009DA9F78
S2050009DBF323
S2050009DCB75E
S2050009DD060E
S2050009DE1003
S2050009DF0012
S2050009E037DA
S2050009E1060A
S2050009E210FF
S2050009E3000E
S2050009E4838A
S2050009E5C547
S2050009E6F615
S2050009E72BDF
S2050009E80306
S2050009E946C2
S2050009EAE621
S2050009EB2BDB
S2050009EC63A2
S2050009EDEE16
S2050009EEC53E
S2050009EF04FE
S2050009F0B74A
S2050009F106FA
S2050009F210EF
S2050009F300FE
S2050009F4837A
S2050009F5C636
S2050009F616E5
S2050009F72CCE
S2050009F8E316
S2050009F99662
S2050009FA06F1
S2050009FBFCFA
S2050009FCB73E
S2050009FD06EE
S2050009FE10E3
S2050009FF00F2
S205000A0013DD
S205000A0106E9
S205000A0210DE
S205000A0300ED
S205000A0423C9
S205000A05806B
S205000A06C624
S205000A072CBD
S205000A089355
S205000A0906E1
S205000A0A00E6
S205000A0B08DD
S205000A0C23C1
S205000A0D22C1
S205000A0ED70B
S205000A0F00E1
S205000A1023BD
S205000A112AB5
S205000A12D707
S205000A1300DD
S205000A1423B9
S205000A15815A
S205000A1607D3
S205000A172CAD
S205000A186F69
S205000A19F0E7
S205000A1A9F37
S205000A1BEFE6
S205000A1C379D
S205000A1D07CC
S205000A1E10C2
S205000A1F00D1
S205000A2003CD
S205000A214788
S205000A22F7D7
S205000A232BA2
S205000A246369
S205000A251AB1
S205000A2607C3
S205000A2700C9
S205000A283791
S205000A2907C0
S205000A2A10B6
S205000A2B00C5
S205000A2C9331
S205000A2D06BD
S205000A2E00C2
S205000A2F02BF
S205000A30A31D
S205000A310EB1
S205000A32D7E7
S205000A332A93
S205000A346F4D
S205000A35F0CB
S205000A36DFDB
S205000A37F8C1
S205000A383781
S205000A3907B0
S205000A3A10A6
S205000A3B00B5
S205000A3C9321
S205000A3D06AD
S205000A3E00B2
S205000A3F03AE
S205000A40A30D
S205000A410EA1
S205000A42D7D7
S205000A432A83
S205000A446F3D
S205000A45F0BB
S205000A46DFCB
S205000A47F7B2
S205000A488325
S205000A49C7E0
S205000A4AF6B0
S205000A4B2B7A
S205000A4C376D
S205000A4D069D
S205000A4E1092
S205000A4F00A1
S205000A50138D
S205000A510699
S205000A52C6D8
S205000A532578
S205000A543369
S205000A550695
S205000A56F6A4
S205000A570099
S205000A580395
S205000A594651
S205000A5A0690
S205000A5B0095
S205000A5C9301
S205000A5D870C
S205000A5E177B
S205000A5F0091
S205000A6093FD
S205000A61F798
S205000A62F797
S205000A630F7E
S205000A64A3E9
S205000A658FFC
S205000A66F694
S205000A672A5F
S205000A682365
S205000A69285F
S205000A6AC7BF
S205000A6B0085
S205000A6C93F1
S205000A6D077C
S205000A6E0082
S205000A6F0180
S205000A70235D
S205000A712A55
S205000A72F787
S205000A73007D
S205000A746F0D
S205000A75F08B
S205000A76DF9B
S205000A77E990
S205000A782355
S205000A798EE9
S205000A7A0670
S205000A7B2A4B
S205000A7CB7BD
S205000A7D066D
S205000A7E1062
S205000A7F0071
S205000A806F01
S205000A81F07F
S205000A821F4F
S205000A83F17C
S205000A843735
S205000A850764
S205000A86105A
S205000A870069
S205000A880365
S205000A894720
S205000A8A174F
S205000A8B2C39
S205000A8CE381
S205000A8D1A49
S205000A8E075B
S205000A8FF26F
S205000A903729
S205000A910758
S205000A92104E
S205000A93005D
S205000A9493C9
S205000A950655
S205000A96104A
S205000A970059
S205000A982335
S205000A990057
S205000A9AD77F
S205000A9B2C29
S205000A9C371D
S205000A9D57FC
S205000A9E1042
S205000A9F1A37
S205000AA093BD
S205000AA10649
S205000AA2004E
S205000AA30845
S205000AA42329
S205000AA52229
S205000AA6D773
S205000AA70049
S205000AA82325
S205000AA92A1D
S205000AAAD76F
S205000AAB0045
S205000AAC2321
S205000AAD81C2
S205000AAE073B
S205000AAF2C15
S205000AB06FD1
S205000AB1F04F
S205000AB21F1F
S205000AB3E657
S205000AB493A9
S205000AB50734
S205000AB6F04A
S205000AB70138
S205000AB863D5
S205000AB9E651
S205000ABAA78F
S205000ABB062F
S205000ABC93A1
S205000ABD072C
S205000ABE1022
S205000ABF0031
S205000AC0B37D
S205000AC19798
S205000AC2A787
S205000AC3002D
S205000AC463C9
S205000AC59A91
S205000AC60525
S205000AC70227
S205000AC8F335
S205000AC92601
S205000ACA0026
S205000ACB30F5
S205000ACC73B1
S205000ACD27FC
S205000ACE0022
S205000ACF30F1
S205000AD0130D
S205000AD177A8
S205000AD277A7
S205000AD3FF1E
S205000AD473A9
S205000AD5100B
S205000AD60713
S205000AD730E9
S205000AD873A5
S205000AD99087
S205000ADA0511
S205000ADB30E5
S205000ADC37DD
S205000ADD17FC
S205000ADE1002
S205000ADF1AF7
S205000AE0030D
S205000AE126E9
S205000AE20707
S205000AE3000D
S205000AE49379
S205000AE5C744
S205000AE6F713
S205000AE7FF0A
S205000AE8B355
S205000AE9F710
S205000AEAC73F
S205000AEB0005
S205000AEC23E1
S205000AED20E3
S205000AEEF70B
S205000AEF0001
S205000AF0738D
S205000AF1906F
S205000AF206F8
S205000AF330CD
S205000AF46795
S205000AF5807B
S205000AF600FA
S205000AF700F9
S205000AF87385
S205000AF926D1
S205000AFA00F6
S205000AFB30C5
S205000AFC7381
S205000AFD27CC
S205000AFE00F2
S205000AFF30C1
S205000B0013DC
S205000B017777
S205000B027776
S205000B03FFED
S205000B047378
S205000B0510DA
S205000B0607E2
S205000B0730B8
S205000B0813D4
S205000B0907DF
S205000B0A00E5
S205000B0B00E4
S205000B0C7370
S205000B0D10D2
S205000B0E07DA
S205000B0F30B0
S205000B10B728
S205000B1116C8
S205000B1210CD
S205000B131AC2
S205000B1403D8
S205000B15A733
S205000B1606D3
S205000B1700D8
S205000B18B324
S205000B19676F
S205000B1AF7DE
S205000B1B00D4
S205000B1C23B0
S205000B1DA032
S205000B1EF6DB
S205000B1F00D0
S205000B20735C
S205000B2110BE
S205000B2206C7
S205000B23309C
S205000B246764
S205000B25804A
S205000B2600C9
S205000B2700C8
S205000B289334
S205000B2907BF
S205000B2AF0D5
S205000B2B01C3
S205000B2C6360
S205000B2DF4CE
S205000B2EA71A
S205000B2F00C0
S205000B306758
S205000B31803E
S205000B3200BD
S205000B3300BC
S205000B34B704
S205000B3507B3
S205000B3610A9
S205000B3700B8
S205000B3813A4
S205000B39179F
S205000B3A15A0
S205000B3B00B4
S205000B3C9320
S205000B3D872B
S205000B3EC7EA
S205000B3F2789
S205000B40B3FC
S205000B418727
S205000B42E7C6
S205000B4300AC
S205000B448328
S205000B45C6E4
S205000B4607A2
S205000B4700A8
S205000B481394
S205000B49079F
S205000B4A1095
S205000B4B00A4
S205000B4C6340
S205000B4D8E14
S205000B4EE6BB
S205000B4F049C
S205000B50930C
S205000B510797
S205000B52108D
S205000B53009C
S205000B54B3E8
S205000B559703
S205000B56A7F2
S205000B570098
S205000B58F3A4
S205000B592670
S205000B5A0095
S205000B5B3064
S205000B5C7320
S205000B5D276B
S205000B5E0091
S205000B5F3060
S205000B60137C
S205000B617717
S205000B627716
S205000B63FF8D
S205000B647318
S205000B65107A
S205000B660782
S205000B673058
S205000B681374
S205000B69077F
S205000B6A0085
S205000B6B0084
S205000B6C7310
S205000B6D1072
S205000B6E077A
S205000B6F3050
S205000B70631C
S205000B7190EE
S205000B720578
S205000B73027A
S205000B743744
S205000B751763
S205000B761069
S205000B771A5E
S205000B780374
S205000B792650
S205000B7A87EE
S205000B7B0074
S205000B7C93E0
S205000B7DC7AB
S205000B7EF77A
S205000B7FFF71
S205000B80B3BC
S205000B81F777
S205000B82C7A6
S205000B83006C
S205000B842348
S205000B852446
S205000B86F772
S205000B870068
S205000B8873F4
S205000B8990D6
S205000B8A065F
S205000B8B3034
S205000B8C67FC
S205000B8D80E2
S205000B8E0061
S205000B8F0060
S205000B903728
S205000B911648
S205000B92104D
S205000B931A42
S205000B940358
S205000B952733
S205000B9686D3
S205000B970058
S205000B98B3A4
S205000B9967EF
S205000B9AF75E
S205000B9B0054
S205000B9C2330
S205000B9D242E
S205000B9EF65B
S205000B9F0050
S205000BA073DC
S205000BA190BE
S205000BA20647
S205000BA3301C
S205000BA46FDC
S205000BA5F05A
S205000BA69FAA
S205000BA7FE4A
S205000BA8B790
S205000BA90640
S205000BAA1035
S205000BAB0044
S205000BAC0340
S205000BADC77B
S205000BAED66B
S205000BAF2C14
S205000BB0231C
S205000BB180BE
S205000BB20736
S205000BB3003C
S205000BB493A8
S205000BB50733
S205000BB6F742
S205000BB7FF39
S205000BB893A4
S205000BB9F73F
S205000BBAF73E
S205000BBB0F25
S205000BBCA390
S205000BBD86AC
S205000BBEF63B
S205000BBF2C04
S205000BC0E34C
S205000BC19896
S205000BC20726
S205000BC3F834
S205000BC437F4
S205000BC547E3
S205000BC61019
S205000BC71A0E
S205000BC883A4
S205000BC927FF
S205000BCA071E
S205000BCB0024
S205000BCC9390
S205000BCD978B
S205000BCE170A
S205000BCF0020
S205000BD0938C
S205000BD1D747
S205000BD21706
S205000BD3001C
S205000BD423F8
S205000BD520FA
S205000BD6F722
S205000BD70018
S205000BD86FA8
S205000BD9F026
S205000BDA9F76
S205000BDBF71D
S205000BDC67AC
S205000BDD8092
S205000BDE0011
S205000BDF0010
S205000BE0B758
S205000BE117F7
S205000BE210FD
S205000BE31AF2
S205000BE48388
S205000BE5A763
S205000BE68782
S205000BE70107
S205000BE813F4
S205000BE907FF
S205000BEA10F5
S205000BEB0004
S205000BEC63A0
S205000BED8A78
S205000BEEE71A
S205000BEF06FA
S205000BF013EC
S205000BF107F7
S205000BF200FD
S205000BF300FC
S205000BF49368
S205000BF506F4
S205000BF610E9
S205000BF700F8
S205000BF89364
S205000BF9D71F
S205000BFA17DE
S205000BFB00F4
S205000BFC13E0
S205000BFD07EB
S205000BFE17DA
S205000BFF00F0
S205000C00E30B
S205000C019C51
S205000C02D715
S205000C03FEED
S205000C04B733
S205000C0507E2
S205000C0610D8
S205000C0700E7
S205000C0813D3
S205000C0917CE
S205000C0A27BD
S205000C0B00E3
S205000C0C934F
S205000C0D875A
S205000C0EC719
S205000C0F1CC3
S205000C10B32B
S205000C118756
S205000C12E7F5
S205000C1300DB
S205000C148357
S205000C15A732
S205000C1607D1
S205000C1700D7
S205000C186373
S205000C19884D
S205000C1A07CD
S205000C1B02D1
S205000C1C13BF
S205000C1D01D0
S205000C1E01CF
S205000C1FFFD0
S205000C2023AB
S205000C2126A7
S205000C2211BB
S205000C2300CB
S205000C24E7E3
S205000C258049
S205000C2607C1
S205000C2700C7
S205000C28378F
S205000C29477E
S205000C2A10B4
S205000C2B1AA9
S205000C2C833F
S205000C2D279A
S205000C2EC7F9
S205000C2F00BF
S205000C30833B
S205000C31209D
S205000C32C1FB
S205000C3300BB
S205000C34B703
S205000C3506B3
S205000C3600B8
S205000C3702B5
S205000C38B303
S205000C39E7CE
S205000C3AD7DD
S205000C3B00B3
S205000C3C238F
S205000C3D268B
S205000C3EF7B9
S205000C3F00AF
S205000C40139B
S205000C4101AC
S205000C4201AB
S205000C4301AA
S205000C446743
S205000C458029
S205000C4600A8
S205000C4700A7
S205000C48376F
S205000C49475E
S205000C4A1094
S205000C4B1A89
S205000C4C831F
S205000C4D277A
S205000C4EC7D9
S205000C4F009F
S205000C50B7E7
S205000C510697
S205000C52009C
S205000C530299
S205000C54B3E7
S205000C55E7B2
S205000C56D7C1
S205000C570097
S205000C582373
S205000C59266F
S205000C5AF79D
S205000C5B0093
S205000C5C672B
S205000C5D8011
S205000C5E0090
S205000C5F008F
S205000C60137B
S205000C610786
S205000C62008C
S205000C63008B
S205000C646F1B
S205000C65F099
S205000C661F69
S205000C67FA8D
S205000C68B7CF
S205000C69067F
S205000C6A1074
S205000C6B0083
S205000C6C037F
S205000C6DC7BA
S205000C6E364A
S205000C6F2C53
S205000C703747
S205000C710677
S205000C72106C
S205000C73007B
S205000C7483F7
S205000C752554
S205000C764632
S205000C772C4B
S205000C7893E3
S205000C79076E
S205000C7A175D
S205000C7B056E
S205000C7C93DF
S205000C7DF77A
S205000C7EF779
S205000C7F0F60
S205000C80135B
S205000C810568
S205000C82C0AC
S205000C830764
S205000C846307
S205000C8578F1
S205000C86F573
S205000C870067
S205000C881353
S205000C89075E
S205000C8A471D
S205000C8BFD66
S205000C8C93CF
S205000C8D77EA
S205000C8EF769
S205000C8F0F50
S205000C9093CB
S205000C9185D8
S205000C921547
S205000C93005B
S205000C942337
S205000C952237
S205000C96B6A2
S205000C972C2B
S205000C98371F
S205000C99064F
S205000C9A1044
S205000C9B0053
S205000C9C034F
S205000C9D272A
S205000C9E86CA
S205000C9F2C23
S205000CA0A3AB
S205000CA181CC
S205000CA2F656
S205000CA32C1F
S205000CA4B793
S205000CA54603
S205000CA61038
S205000CA71A2D
S205000CA893B3
S205000CA9073E
S205000CAA172D
S205000CAB0043
S205000CAC231F
S205000CAD241D
S205000CAEF64A
S205000CAF2C13
S205000CB083BB
S205000CB1A796
S205000CB2C676
S205000CB3003B
S205000CB43703
S205000CB50732
S205000CB60038
S205000CB72017
S205000CB8B383
S205000CB9E74E
S205000CBAE74D
S205000CBB0033
S205000CBC230F
S205000CBDA68B
S205000CBEF63A
S205000CBF002F
S205000CC067C7
S205000CC180AD
S205000CC2002C
S205000CC3002B
S205000CC41317
S205000CC50128
S205000CC60127
S205000CC7FE29
S205000CC82303
S205000CC92005
S205000CCA61C3
S205000CCB0122
S205000CCC23FF
S205000CCD2EF3
S205000CCE110F
S205000CCF001F
S205000CD023FB
S205000CD12CF1
S205000CD2819B
S205000CD3001B
S205000CD423F7
S205000CD52AEF
S205000CD69187
S205000CD70017
S205000CD823F3
S205000CD928ED
S205000CDA21F3
S205000CDB0112
S205000CDC23EF
S205000CDD26EB
S205000CDE31DF
S205000CDF010E
S205000CE023EB
S205000CE124E9
S205000CE241CB
S205000CE3010A
S205000CE423E7
S205000CE522E7
S205000CE651B7
S205000CE70106
S205000CE813F3
S205000CE90BFA
S205000CEA05FF
S205000CEB0003
S205000CEC738F
S205000CED27DA
S205000CEE0000
S205000CEF30CF
S205000CF0F30B
S205000CF127D6
S205000CF200FC
S205000CF330CB
S205000CF49367
S205000CF5F702
S205000CF67781
S205000CF7FFF8
S205000CF87383
S205000CF99065
S205000CFA07ED
S205000CFB30C3
S205000CFC935F
S205000CFD07EA
S205000CFE00F0
S205000CFF00EF
S205000D00737A
S205000D01905C
S205000D0207E4
S205000D0330BA
S205000D04B732
S205000D0504E4
S205000D0610D7
S205000D0700E6
S205000D08B72E
S205000D0936AE
S205000D0A10D3
S205000D0B1AC8
S205000D0C835E
S205000D0DA739
S205000D0E845B
S205000D0F2CB2
S205000D1003DA
S205000D11A537
S205000D1206D5
S205000D1300DA
S205000D147366
S205000D1510C8
S205000D1607D0
S205000D1730A6
S205000D189342
S205000D19973D
S205000D1AE7EC
S205000D1B00D2
S205000D1C339E
S205000D1D854B
S205000D1EA728
S205000D1F00CE
S205000D20EFDE
S205000D21F0DC
S205000D229F2C
S205000D23A426
S205000D243792
S205000D2509BF
S205000D2610B7
S205000D2700C6
S205000D288342
S205000D29259F
S205000D2A497A
S205000D2B1CA6
S205000D2CEFD2
S205000D2DF0D0
S205000D2E8F30
S205000D2FE3DB
S205000D30EFCE
S205000D31F0CC
S205000D329F1C
S205000D339C1E
S205000D346356
S205000D350AAE
S205000D360BAC
S205000D3706B0
S205000D3813A2
S205000D3904B0
S205000D3A05AE
S205000D3B00B2
S205000D3C139E
S205000D3D0AA6
S205000D3E00AF
S205000D3F00AE
S205000D40EFBE
S205000D4100AC
S205000D42802B
S205000D431B8F
S205000D44B7F2
S205000D45396F
S205000D461097
S205000D471A8C
S205000D488322
S205000D492A7A
S205000D4A495A
S205000D4B1C86
S205000D4C138E
S205000D4D0997
S205000D4E702F
S205000D4F3E60
S205000D506F2E
S205000D51009C
S205000D52009B
S205000D530199
S205000D541386
S205000D550B8D
S205000D56FB9C
S205000D57FF97
S205000D581382
S205000D590490
S205000D5A840F
S205000D5B3E54
S205000D5C632E
S205000D5D068A
S205000D5E0B84
S205000D5F048A
S205000D60731A
S205000D612765
S205000D62008B
S205000D63305A
S205000D64F396
S205000D652761
S205000D660087
S205000D673056
S205000D6893F2
S205000D69F78D
S205000D6A770C
S205000D6BFF83
S205000D6C730E
S205000D6D90F0
S205000D6E0778
S205000D6F304E
S205000D70730A
S205000D71106C
S205000D720A71
S205000D73304A
S205000D7483F6
S205000D75A7D1
S205000D7684F3
S205000D772C4A
S205000D780372
S205000D79A5CF
S205000D7A096A
S205000D7B0072
S205000D7C73FE
S205000D7D1060
S205000D7E0768
S205000D7F303E
S205000D8093DA
S205000D8197D5
S205000D82E784
S205000D83006A
S205000D843336
S205000D8585E3
S205000D86A7C0
S205000D870066
S205000D88EF76
S205000D89F074
S205000D8A1F44
S205000D8B9EC4
S205000D8C93CE
S205000D8D85DB
S205000D8E0A55
S205000D8F005E
S205000D90EF6E
S205000D91F06C
S205000D924F0C
S205000D93DD7D
S205000D94EF6A
S205000D95F068
S205000D965FF8
S205000D9796C0
S205000D983322
S205000D99054F
S205000D9A85CE
S205000D9B4012
S205000D9CE36E
S205000D9D6CE4
S205000D9EA9A6
S205000D9FFA54
S205000DA0EF5E
S205000DA1004C
S205000DA280CB
S205000DA31535
S205000DA46FDA
S205000DA5F058
S205000DA6DF68
S205000DA7FB4B
S205000DA883C2
S205000DA92024
S205000DAAC182
S205000DAB0141
S205000DAC033E
S205000DAD241C
S205000DAE81BE
S205000DAF013D
S205000DB083BA
S205000DB12418
S205000DB241FA
S205000DB30139
S205000DB40336
S205000DB5290F
S205000DB60136
S205000DB70135
S205000DB883B2
S205000DB9290B
S205000DBAC172
S205000DBB0032
S205000DBC032E
S205000DBD2A06
S205000DBE81AE
S205000DBF002E
S205000DC083AA
S205000DC12A02
S205000DC241EA
S205000DC3002A
S205000DC40326
S205000DC52BFD
S205000DC60126
S205000DC70026
S205000DC81312
S205000DC90123
S205000DCA0122
S205000DCB0220
S205000DCC67BA
S205000DCD80A0
S205000DCE001F
S205000DCF001E
S205000DD0F32A
S205000DD127F5
S205000DD2001B
S205000DD330EA
S205000DD49386
S205000DD5E731
S205000DD68790
S205000DD70016
S205000DD873A2
S205000DD99084
S205000DDA070C
S205000DDB30E2
S205000DDCB75A
S205000DDD46CA
S205000DDE10FF
S205000DDF1AF4
S205000DE0030A
S205000DE1A765
S205000DE20605
S205000DE3000A
S205000DE437D2
S205000DE50602
S205000DE60007
S205000DE720E6
S205000DE8B74E
S205000DE937CD
S205000DEA10F3
S205000DEB1AE8
S205000DEC33CE
S205000DED6799
S205000DEEC738
S205000DEF00FE
S205000DF023DA
S205000DF1A05C
S205000DF2E615
S205000DF300FA
S205000DF423D6
S205000DF5A058
S205000DF607F0
S205000DF700F6
S205000DF837BE
S205000DF947AD
S205000DFA00F3
S205000DFB00F2
S205000DFC23CE
S205000DFDA44C
S205000DFEE708
S205000DFF00EE
S205000E009359
S205000E0106E5
S205000E02509A
S205000E0300E9
S205000E0423C5
S205000E05A245
S205000E06D70F
S205000E0700E5
S205000E0837AD
S205000E0917CC
S205000E0A00E2
S205000E0B00E1
S205000E0C23BD
S205000E0DA837
S205000E0E07D7
S205000E0F00DD
S205000E1013C9
S205000E1107D4
S205000E1227B3
S205000E13F4E5
S205000E1423B5
S205000E15AC2B
S205000E16E7EF
S205000E1700D5
S205000E1823B1
S205000E19AA29
S205000E1AD7FB
S205000E1B00D1
S205000E1C6769
S205000E1D804F
S205000E1E00CE
S205000E1F00CD
S205000E203795
S205000E2103C8
S205000E2210BA
S205000E2300C9
S205000E248345
S205000E254582
S205000E26C303
S205000E272C99
S205000E289331
S205000E2907BC
S205000E2AF0D2
S205000E2B01C0
S205000E2C635D
S205000E2D8837
S205000E2EF5C9
S205000E2F06B7
S205000E30B705
S205000E3107B4
S205000E3210AA
S205000E3300B9
S205000E349325
S205000E358730
S205000E36C7EF
S205000E37278E
S205000E3813A1
S205000E39862D
S205000E3A07AB
S205000E3B04AD
S205000E3C139D
S205000E3D07A8
S205000E3E00AE
S205000E3F00AD
S205000E403775
S205000E411596
S205000E42109A
S205000E431A8F
S205000E449315
S205000E45089F
S205000E461096
S205000E4700A5
S205000E488321
S205000E49C6DD
S205000E4A079B
S205000E4B00A1
S205000E4C633D
S205000E4D801F
S205000E4E0698
S205000E4F029B
S205000E508319
S205000E51C6D5
S205000E521783
S205000E530099
S205000E546335
S205000E559CFB
S205000E56B6E0
S205000E570095
S205000E580391
S205000E59286B
S205000E5A850D
S205000E5B0091
S205000E5CB3DD
S205000E5D96F9
S205000E5EE8A6
S205000E5F008D
S205000E6093F9
S205000E61C6C5
S205000E62F694
S205000E63FF8A
S205000E64B3D5
S205000E65F691
S205000E660680
S205000E670184
S205000E682361
S205000E69245F
S205000E6AD5AD
S205000E6B0081
S205000E6C93ED
S205000E6D87F8
S205000E6E2757
S205000E6F007D
S205000E701369
S205000E710774
S205000E721763
S205000E730079
S205000E74E395
S205000E759ADD
S205000E76C7AF
S205000E77FC79
S205000E7893E1
S205000E7985EE
S205000E7A155D
S205000E7B0071
S205000E7C93DD
S205000E7DF57A
S205000E7EF579
S205000E7F0F5E
S205000E802349
S205000E810665
S205000E82B3B7
S205000E832C3D
S205000E843731
S205000E854720
S205000E861056
S205000E871A4B
S205000E8883E1
S205000E89273C
S205000E8AC79B
S205000E8B0061
S205000E8CB7A9
S205000E8D0659
S205000E8E005E
S205000E8F80DD
S205000E90B3A9
S205000E91E774
S205000E92D783
S205000E930059
S205000E942335
S205000E952631
S205000E96F75F
S205000E970055
S205000E9867ED
S205000E9980D3
S205000E9A0052
S205000E9B0051
S205000E9CB799
S205000E9D0748
S205000E9E103E
S205000E9F004D
S205000EA093B9
S205000EA187C4
S205000EA2C783
S205000EA32722
S205000EA41335
S205000EA585C2
S205000EA6073F
S205000EA70441
S205000EA81331
S205000EA9073C
S205000EAA0042
S205000EAB0041
S205000EAC3709
S205000EAD1827
S205000EAE102E
S205000EAF1A23
S205000EB093A9
S205000EB10536
S205000EB2102A
S205000EB30039
S205000EB40335
S205000EB5C671
S205000EB6072F
S205000EB70035
S205000EB8B381
S205000EB9969D
S205000EBAE54D
S205000EBB0031
S205000EBC939D
S205000EBD87A8
S205000EBE2707
S205000EBF002D
S205000EC063C9
S205000EC10823
S205000EC20624
S205000EC30029
S205000EC40325
S205000EC52601
S205000EC6889E
S205000EC70025
S205000EC8B371
S205000EC9E63D
S205000ECAC65C
S205000ECB0021
S205000ECC23FD
S205000ECD24FB
S205000ECED846
S205000ECF001D
S205000ED01309
S205000ED10714
S205000ED21703
S205000ED30019
S205000ED4E335
S205000ED59087
S205000ED6A76F
S205000ED7FE17
S205000ED89381
S205000ED9050E
S205000EDA0012
S205000EDB0011
S205000EDC23ED
S205000EDD0609
S205000EDEB35B
S205000EDF2CE1
S205000EE037D5
S205000EE147C4
S205000EE210FA
S205000EE31AEF
S205000EE48385
S205000EE527E0
S205000EE6C73F
S205000EE70005
S205000EE8B74D
S205000EE906FD
S205000EEA0002
S205000EEB8081
S205000EECB34D
S205000EEDE718
S205000EEED727
S205000EEF00FD
S205000EF023D9
S205000EF126D5
S205000EF2F703
S205000EF300F9
S205000EF46791
S205000EF58077
S205000EF600F6
S205000EF700F5
S205000EF8678D
S205000EF98073
S205000EFA00F2
S205000EFB00F1
S205000EFCF3FD
S205000EFD25CA
S205000EFE10DE
S205000EFF34B9
S205000F0003E8
S205000F01A644
S205000F0205E4
S205000F0300E8
S205000F0437B0
S205000F0505E1
S205000F0610D5
S205000F0700E4
S205000F0813D0
S205000F0901E1
S205000F0A01E0
S205000F0BFFE1
S205000F0C13CC
S205000F0D05D9
S205000F0E05D8
S205000F0F10CC
S205000F1023B8
S205000F1126B4
S205000F1211C8
S205000F1300D8
S205000F14EFE8
S205000F1500D6
S205000F164095
S205000F173D97
S205000F1813C0
S205000F1905CD
S205000F1A10C1
S205000F1B00D0
S205000F1CEFE0
S205000F1D00CE
S205000F1ED0FD
S205000F1F1DAF
S205000F2013B8
S205000F2101C9
S205000F2201C8
S205000F23FBCD
S205000F2423A4
S205000F2524A2
S205000F268144
S205000F2704C0
S205000F2823A0
S205000F292C96
S205000F2A4180
S205000F2B03BD
S205000F2C239C
S205000F2D2A94
S205000F2E516C
S205000F2F03B9
S205000F302398
S205000F312694
S205000F3211A8
S205000F3304B4
S205000F342394
S205000F352294
S205000F369124
S205000F3704B0
S205000F382390
S205000F392092
S205000F3A2190
S205000F3B05AB
S205000F3C238C
S205000F3D2E80
S205000F3E317C
S205000F3F03A9
S205000F402388
S205000F412882
S205000F426148
S205000F4303A5
S205000F442384
S205000F452680
S205000F467134
S205000F4703A1
S205000F481390
S205000F490A98
S205000F4A079A
S205000F4B00A0
S205000F4C138C
S205000F4D841A
S205000F4E0697
S205000F4F009C
S205000F509308
S205000F517A20
S205000F521782
S205000F530098
S205000F546334
S205000F550E88
S205000F560590
S205000F572074
S205000F589300
S205000F59048E
S205000F5A068B
S205000F5B0090
S205000F5C632C
S205000F5D0688
S205000F5E0687
S205000F5F008C
S205000F601378
S205000F610783
S205000F62A0E9
S205000F630088
S205000F646324
S205000F658AFC
S205000F66E5A0
S205000F672460
S205000F68A3E0
S205000F690F73
S205000F6A0180
S205000F6B0080
S205000F6C136C
S205000F6D0777
S205000F6E007D
S205000F6F017B
S205000F706318
S205000F7184F6
S205000F72E594
S205000F731860
S205000F7493E4
S205000F750472
S205000F760075
S205000F770074
S205000F78373C
S205000F79076B
S205000F7A1061
S205000F7B0070
S205000F7C93DC
S205000F7D0965
S205000F7EF17C
S205000F7F016B
S205000F801358
S205000F810763
S205000F82C7A2
S205000F832444
S205000F8493D4
S205000F85174F
S205000F861550
S205000F870064
S205000F88B3B0
S205000F8987DB
S205000F8AA7BA
S205000F8B0060
S205000F8C93CC
S205000F8D97C7
S205000F8E2736
S205000F8F005C
S205000F90B3A8
S205000F9187D3
S205000F92A7B2
S205000F930058
S205000F9493C4
S205000F9596C0
S205000F9667EE
S205000F970054
S205000F98B3A0
S205000F9986CC
S205000F9AF65B
S205000F9B4010
S205000F9C93BC
S205000F9D96B8
S205000F9E2627
S205000F9F004C
S205000FA0B398
S205000FA186C4
S205000FA2A6A3
S205000FA30048
S205000FA41334
S205000FA556F0
S205000FA61530
S205000FA70044
S205000FA893B0
S205000FA957EB
S205000FAA251C
S205000FAB0040
S205000FACB38C
S205000FAD87B7
S205000FAEC776
S205000FAF003C
S205000FB093A8
S205000FB195A5
S205000FB2E653
S205000FB30038
S205000FB4B384
S205000FB585B1
S205000FB6D560
S205000FB740F4
S205000FB893A0
S205000FB9D65C
S205000FBA47EA
S205000FBB0030
S205000FBCB37C
S205000FBD87A7
S205000FBED756
S205000FBF002C
S205000FC09398
S205000FC19595
S205000FC235F4
S205000FC30028
S205000FC4B374
S205000FC585A1
S205000FC6A580
S205000FC70024
S205000FC81310
S205000FC9D84A
S205000FCA879A
S205000FCB0020
S205000FCC938C
S205000FCD56C8
S205000FCE35E8
S205000FCF001C
S205000FD0B368
S205000FD18793
S205000FD20712
S205000FD30117
S205000FD4B364
S205000FD58591
S205000FD6C550
S205000FD70014
S205000FD8B360
S205000FD9858D
S205000FDAD53C
S205000FDB0010
S205000FDC937C
S205000FDDD638
S205000FDE0706
S205000FDF010B
S205000FE0B358
S205000FE18783
S205000FE2D732
S205000FE30008
S205000FE49374
S205000FE5D531
S205000FE6C540
S205000FE70103
S205000FE89370
S205000FE9D72B
S205000FEA37CA
S205000FEB0000
S205000FECB34C
S205000FED05F9
S205000FEEB746
S205000FEF00FC
S205000FF003F8
S205000FF1C931
S205000FF205F4
S205000FF300F8
S205000FF49364
S205000FF59660
S205000FF627CE
S205000FF700F4
S205000FF8B340
S205000FF9866C
S205000FFAF6FB
S205000FFB00F0
S205000FFC935C
S205000FFD9658
S205000FFE16D7
S205000FFF00EC
S20500100013D7
S20500100105E4
S2050010026583
S20500100300E7
S20500100433B3
S20500100505E0
S205001006D50F
S20500100740A3
S20500100813CF
S20500100909D8
S20500100A09D7
S20500100B03DC
S20500100C13CB
S20500100D7964
S20500100EF9E3
S20500100F0FCC
S20500101013C7
S2050010115584
S2050010124593
S20500101300D7
S205001014A333
S2050010158F46
S20500101629AB
S205001017FFD4
S205001018339F
S20500101905CC
S20500101AF5DB
S20500101B00CF
S20500101C933B
S20500101D8647
S20500101E09C3
S20500101F00CB
S2050010209337
S2050010218940
S205001022F9CF
S205001023FFC8
S205001024E3E3
S20500102510B5
S20500102605BF
S205001027F6CD
S205001028635F
S205001029823F
S20500102A04BC
S20500102B02BD
S20500102C635B
S20500102D06B7
S20500102E04B8
S20500102F16A5
S2050010309327
S2050010317B3E
S2050010322A8E
S20500103300B7
S2050010349323
S205001035872E
S2050010360BA9
S20500103700B3
S205001038634F
S2050010398E23
S20500103A0BA5
S20500103B1E91
S20500103C139B
S20500103D05A8
S20500103ED0DC
S20500103F02A9
S205001040EFBB
S20500104100A9
S2050010421098
S20500104303A4
S20500104403A3
S205001045C9DC
S205001046099B
S20500104700A3
S205001048138F
S205001049049D
S20500104AF4AC
S20500104BFFA0
S20500104C633B
S20500104D5449
S20500104E801C
S20500104F0E8D
S2050010506337
S2050010510099
S205001052098F
S205001053187F
S2050010549303
S205001055771E
S2050010562A6A
S2050010570093
S205001058137F
S205001059078A
S20500105A0090
S20500105B008F
S20500105C137B
S20500105D0786
S20500105E1775
S20500105F008B
S205001060B3D7
S2050010618603
S205001062E99F
S2050010630087
S2050010648303
S205001065C6BF
S205001066067E
S2050010670083
S205001068E39F
S2050010699AE7
S20500106A067A
S20500106BFE81
S20500106C631B
S20500106D403D
S20500106E87F5
S20500106F1A61
S20500107093E7
S2050010718BEE
S2050010720771
S2050010730077
S2050010746313
S20500107588ED
S205001076076D
S205001077145F
S205001078135F
S2050010790B66
S20500107A0070
S20500107B036C
S20500107C93DB
S20500107D0B62
S20500107E006C
S20500107F006B
S2050010801357
S2050010810465
S2050010820068
S2050010830067
S2050010841353
S2050010858ADB
S205001086095B
S2050010870063
S205001088134F
S205001089055C
S20500108A0957
S20500108B005F
S20500108CEF6F
S20500108D005D
S20500108E401C
S20500108F7EDD
S2050010900357
S2050010914910
S2050010921A3E
S2050010930057
S20500109493C3
S205001095074E
S2050010960A4A
S2050010970053
S205001098133F
S2050010990A47
S20500109A1A36
S20500109B004F
S20500109CE36B
S20500109D1637
S20500109E0943
S20500109FFE4D
S2050010A01337
S2050010A187C2
S2050010A21B2D
S2050010A30047
S2050010A43313
S2050010A5073E
S2050010A6370D
S2050010A74102
