S00F00006C65645F64656D6F2E733139AC
S20500000013E7
S20500000100F9
S20500000200F8
S20500000300F7
S20500000413E3
S20500000500F5
S20500000600F4
S20500000700F3
S20500000813DF
S20500000900F1
S20500000A00F0
S20500000B00EF
S20500000C13DB
S20500000D00ED
S20500000E00EC
S20500000F00EB
S20500001013D7
S20500001100E9
S20500001200E8
S20500001300E7
S20500001413D3
S20500001500E5
S20500001600E4
S20500001700E3
S20500001813CF
S20500001900E1
S20500001A00E0
S20500001B00DF
S20500001C13CB
S20500001D00DD
S20500001E00DC
S20500001F00DB
S20500002013C7
S20500002100D9
S20500002200D8
S20500002300D7
S20500002413C3
S20500002500D5
S20500002600D4
S20500002700D3
S20500002813BF
S20500002900D1
S20500002A00D0
S20500002B00CF
S20500002C13BB
S20500002D00CD
S20500002E00CC
S20500002F00CB
S20500003013B7
S20500003100C9
S20500003200C8
S20500003300C7
S20500003413B3
S20500003500C5
S20500003600C4
S20500003700C3
S20500003813AF
S20500003900C1
S20500003A00C0
S20500003B00BF
S20500003C13AB
S20500003D00BD
S20500003E00BC
S20500003F00BB
S20500004013A7
S20500004100B9
S20500004200B8
S20500004300B7
S20500004413A3
S20500004500B5
S20500004600B4
S20500004700B3
S205000048139F
S20500004900B1
S20500004A00B0
S20500004B00AF
S20500004C139B
S20500004D00AD
S20500004E00AC
S20500004F00AB
S2050000501397
S20500005100A9
S20500005200A8
S20500005300A7
S2050000541393
S20500005500A5
S20500005600A4
S20500005700A3
S205000058138F
S20500005900A1
S20500005A00A0
S20500005B009F
S20500005C6F2F
S20500005D009D
S20500005E405C
S20500005F108B
S2050000606F2B
S2050000610099
S2050000628018
S2050000631186
S2050000646F27
S2050000650095
S205000066C0D4
S2050000671281
S2050000686F23
S2050000690091
S20500006A0090
S20500006B147B
S20500006C6F1F
S20500006D008D
S20500006E404C
S20500006F1576
S2050000706F1B
S2050000710089
S2050000720088
S205000073186F
S2050000746F17
S2050000750085
S2050000764044
S205000077166D
S2050000786F13
S2050000790081
S20500007A8000
S20500007B1A65
S20500007C6F0F
S20500007D007D
S20500007EC0BC
S20500007F1863
S2050000806F0B
S2050000810079
S205000082C0B8
S2050000830077
S2050000846F07
S2050000850075
S2050000864034
S2050000871B58
S2050000886F03
S2050000890071
S20500008A80F0
S20500008B1C53
S20500008C73FB
S20500008D105D
S20500008E501C
S20500008F303B
S20500009093D7
S2050000910069
S2050000920068
S2050000930067
S2050000941353
S20500009581E4
S2050000960064
S2050000970063
S20500009893CF
S20500009981E0
S20500009A0060
S20500009B005F
S20500009C134B
S20500009D82DB
S20500009E005C
S20500009F005B
S2050000A093C7
S2050000A182D7
S2050000A20058
S2050000A30057
S2050000A41343
S2050000A583D2
S2050000A60054
S2050000A70053
S2050000A893BF
S2050000A983CE
S2050000AA0050
S2050000AB004F
S2050000AC133B
S2050000AD84C9
S2050000AE004C
S2050000AF004B
S2050000B093B7
S2050000B184C5
S2050000B20048
S2050000B30047
S2050000B41333
S2050000B585C0
S2050000B60044
S2050000B70043
S2050000B893AF
S2050000B985BC
S2050000BA0040
S2050000BB003F
S2050000BC132B
S2050000BD86B7
S2050000BE003C
S2050000BF003B
S2050000C093A7
S2050000C186B3
S2050000C20038
S2050000C30037
S2050000C41323
S2050000C587AE
S2050000C60034
S2050000C70033
S2050000C8939F
S2050000C987AA
S2050000CA0030
S2050000CB002F
S2050000CC131B
S2050000CD88A5
S2050000CE002C
S2050000CF002B
S2050000D09397
S2050000D188A1
S2050000D20028
S2050000D30027
S2050000D41313
S2050000D5899C
S2050000D60024
S2050000D70023
S2050000D8938F
S2050000D98998
S2050000DA0020
S2050000DB001F
S2050000DC130B
S2050000DD8A93
S2050000DE001C
S2050000DF001B
S2050000E09387
S2050000E18A8F
S2050000E20018
S2050000E30017
S2050000E41303
S2050000E58B8A
S2050000E60014
S2050000E70013
S2050000E8937F
S2050000E98B86
S2050000EA0010
S2050000EB000F
S2050000EC13FB
S2050000ED8C81
S2050000EE000C
S2050000EF000B
S2050000F09377
S2050000F18C7D
S2050000F20008
S2050000F30007
S2050000F413F3
S2050000F58D78
S2050000F60004
S2050000F70003
S2050000F8936F
S2050000F98D74
S2050000FA0000
S2050000FB00FF
S2050000FC13EB
S2050000FD8E6F
S2050000FE00FC
S2050000FF00FB
S2050001009366
S2050001018E6A
S20500010200F7
S20500010300F6
S20500010413E2
S2050001058F65
S20500010600F3
S20500010700F2
S205000108935E
S2050001098F61
S20500010A00EF
S20500010B00EE
S20500010C17D6
S20500010D816B
S20500010E10DB
S20500010F00EA
S20500011013D6
S20500011101E7
S20500011241A6
S205000113EFF7
S20500011417CE
S2050001150DD7
S20500011610D3
S20500011700E2
S20500011813CE
S2050001190DD3
S20500011A0DD2
S20500011B04DA
S20500011C9746
S20500011D0DCF
S20500011E10CB
S20500011F00DA
S2050001209346
S2050001218D4B
S2050001229D3A
S2050001230ACC
S2050001246372
S205000125587C
S205000126BD16
S20500012701D1
S20500012823AE
S20500012920B0
S20500012A0DC2
S20500012B00CE
S20500012C13BA
S20500012D0DBF
S20500012E4D7E
S20500012F00CA
S205000130E3E6
S205000131DCEC
S205000132AD1A
S205000133FFC7
S205000134EFD6
S20500013510B4
S205000136C003
S2050001372A98
S20500013813AE
S20500013905BB
S20500013A00BF
S20500013B00BE
S20500013C932A
S20500013D05B7
S20500013E10AB
S20500013F00BA
S205000140EFCA
S20500014110A8
S2050001428037
S2050001431B9B
S20500014413A2
S20500014505AF
S20500014600B3
S20500014700B2
S205000148931E
S20500014905AB
S20500014A00AF
S20500014B00AE
S20500014CEFBE
S20500014D00AC
S20500014E802B
S20500014F2288
S2050001501396
S20500015104A4
S20500015205A2
S20500015300A6
S205000154EFB6
S2050001551094
S205000156C0E3
S2050001572082
S205000158138E
S205000159059B
S20500015A049B
S20500015B009E
S20500015CEFAE
S20500015D108C
S20500015E405B
S20500015F2773
S2050001601386
S2050001610197
S2050001620196
S205000163FA9C
S2050001642372
S2050001652E66
S2050001661182
S205000167048E
S205000168EFA2
S2050001690090
S20500016A008F
S20500016B107E
S20500016C97F6
S20500016D008C
S20500016E008B
S20500016F008A
S20500017093F6
S2050001718008
S2050001724047
S205000173176F
S2050001746F16
S2050001750084
S2050001760083
S2050001774D35
S205000178136E
S205000179017F
S20500017A017E
S20500017BFA84
S20500017C235A
S20500017D2E4E
S20500017E116A
S20500017F0476
S205000180EF8A
S2050001810078
S20500018280F7
S2050001830E68
S20500018497DE
S2050001850074
S2050001860073
S2050001870072
S20500018893DE
S20500018980F0
S20500018AC0AF
S20500018B1559
S20500018C6FFE
S20500018D105C
S20500018E80EB
S20500018F1555
S2050001901356
S2050001910167
S2050001920166
S205000193FA6C
S2050001942342
S2050001952E36
S2050001961152
S205000197045E
S205000198EF72
S2050001990060
S20500019A005F
S20500019B0D51
S20500019C97C6
S20500019D005C
S20500019E005B
S20500019F005A
S2050001A093C6
S2050001A180D8
S2050001A24017
S2050001A31442
S2050001A46FE6
S2050001A50054
S2050001A64013
S2050001A767EB
S2050001A8133E
S2050001A9014F
S2050001AA014E
S2050001ABFA54
S2050001AC232A
S2050001AD2E1E
S2050001AE113A
S2050001AF0446
S2050001B0EF5A
S2050001B10048
S2050001B280C7
S2050001B30B3B
S2050001B497AE
S2050001B50044
S2050001B60043
S2050001B70042
S2050001B893AE
S2050001B980C0
S2050001BAC07F
S2050001BB122C
S2050001BC6FCE
S2050001BD102C
S2050001BEC07B
S2050001BF1228
S2050001C01326
S2050001C10137
S2050001C20136
S2050001C3FA3C
S2050001C42312
S2050001C52E06
S2050001C61122
S2050001C7042E
S2050001C8EF42
S2050001C90030
S2050001CA002F
S2050001CB0A24
S2050001CC9796
S2050001CD002C
S2050001CE002B
S2050001CF002A
S2050001D09396
S2050001D180A8
S2050001D240E7
S2050001D31115
S2050001D46FB6
S2050001D51014
S2050001D680A3
S2050001D71111
S2050001D8130E
S2050001D9011F
S2050001DA011E
S2050001DBFA24
S2050001DC23FA
S2050001DD2EEE
S2050001DE110A
S2050001DF0416
S2050001E0EF2A
S2050001E10018
S2050001E28097
S2050001E3080E
S2050001E4977E
S2050001E50014
S2050001E60013
S2050001E70012
S2050001E8937E
S2050001E98090
S2050001EAC04F
S2050001EB0FFF
S2050001EC6F9E
S2050001ED000C
S2050001EE40CB
S2050001EF6B9F
S2050001F013F6
S2050001F10107
S2050001F20106
S2050001F3FA0C
S2050001F423E2
S2050001F52ED6
S2050001F611F2
S2050001F704FE
S2050001F8EF12
S2050001F90000
S2050001FA00FF
S2050001FB07F7
S2050001FC9766
S2050001FD00FC
S2050001FE00FB
S2050001FF00FA
S2050002009365
S2050002018077
S20500020240B6
S2050002030EE7
S2050002046F85
S20500020510E3
S205000206C032
S2050002070EE3
S20500020813DD
S20500020901EE
S20500020A01ED
S20500020BFAF3
S20500020C23C9
S20500020D2EBD
S20500020E11D9
S20500020F04E5
S205000210EFF9
S20500021100E7
S2050002128066
S20500021305E0
S205000214974D
S20500021500E3
S20500021600E2
S20500021700E1
S205000218934D
S205000219805F
S20500021AC01E
S20500021B0CD1
S20500021C6F6D
S20500021D00DB
S20500021E00DA
S20500021F6E6B
S20500022013C5
S20500022101D6
S20500022201D5
S205000223FADB
S20500022423B1
S2050002252EA5
S20500022611C1
S20500022704CD
S205000228EFE1
S20500022900CF
S20500022A00CE
S20500022B04C9
S20500022C9735
S20500022D00CB
S20500022E00CA
S20500022F00C9
S2050002309335
S2050002318047
S2050002324086
S2050002330BBA
S2050002346F55
S20500023510B3
S20500023600C2
S2050002370CB5
S20500023813AD
S20500023901BE
S20500023A01BD
S20500023BFAC3
S20500023C2399
S20500023D2E8D
S20500023E11A9
S20500023F04B5
S205000240EFC9
S20500024100B7
S2050002428036
S20500024302B3
S205000244971D
S20500024500B3
S20500024600B2
S20500024700B1
S205000248931D
S205000249802F
S20500024AC0EE
S20500024B09A4
S20500024C6F3D
S20500024D00AB
S20500024E802A
S20500024F7831
S2050002501395
S20500025101A6
S20500025201A5
S205000253FAAB
S2050002542381
S2050002552E75
S2050002561191
S205000257049D
S205000258EFB1
S205000259009F
S20500025A009E
S20500025B019C
S20500025C9705
S20500025D009B
S20500025E009A
S20500025F0099
S2050002609305
S2050002618017
S2050002624056
S205000263088D
S2050002646F25
S2050002650093
S205000266D0C2
S205000267771A
S205000268236D
S205000269206F
S20500026A315D
S20500026B008D
S20500026C2369
S20500026D2269
S20500026E4149
S20500026F0089
S2050002702365
S2050002712463
S2050002725135
S2050002730085
S2050002742361
S205000275265D
S2050002766121
S2050002770081
S205000278235D
S2050002792857
S20500027A710D
S20500027B007D
S20500027C2359
S20500027D2A51
S20500027EA1D9
S20500027F0079
S2050002802355
S2050002812C4B
S205000282B1C5
S2050002830075
S2050002842351
S2050002852E45
S205000286C1B1
S2050002870071
S205000288234D
S205000289204F
S20500028AD19D
S20500028B026B
S20500028C2349
S20500028D2249
S20500028EE189
S20500028F0267
S2050002902345
S2050002912443
S205000292F175
S2050002930263
S2050002942341
S205000295263D
S2050002960161
S205000297035E
S205000298233D
S2050002992837
S20500029A114D
S20500029B035A
S20500029C2339
S20500029D2A31
S20500029EC199
S20500029F0356
S2050002A02335
S2050002A12C2B
S2050002A2D185
S2050002A30352
S2050002A42331
S2050002A52E25
S2050002A6E171
S2050002A7034E
S2050002A8232D
S2050002A9202F
S2050002AAF15D
S2050002AB0548
S2050002AC73D9
S2050002AD2E1D
S2050002AE004A
S2050002AF7BCE
S2050002B0F355
S2050002B12E19
S2050002B21036
S2050002B37BCA
S2050002B473D1
S2050002B52F14
S2050002B62022
S2050002B77BC6
S2050002B8231D
S2050002B9221D
S2050002BAC17D
S2050002BB0538
S2050002BC2319
S2050002BD2417
S2050002BED169
S2050002BF0534
S2050002C02315
S2050002C12611
S2050002C2E155
S2050002C30530
S2050002C473C1
S2050002C52E05
S2050002C640F2
S2050002C77BB6
S2050002C8F33D
S2050002C92E01
S2050002CA50DE
S2050002CB7BB2
S2050002CC73B9
S2050002CD2FFC
S2050002CE60CA
S2050002CF7BAE
S2050002D02305
S2050002D128FF
S2050002D2C165
S2050002D30520
S2050002D42301
S2050002D52AF9
S2050002D6D151
S2050002D7051C
S2050002D823FD
S2050002D92CF3
S2050002DAE13D
S2050002DB0518
S2050002DC67B5
S2050002DD809B
S2050002DE001A
S2050002DF0019
S2050002E00315
S2050002E12EE9
S2050002E20115
S2050002E30510
S2050002E48391
S2050002E52EE5
S2050002E641D1
S2050002E7050C
S2050002E8030D
S2050002E92FE0
S2050002EA818D
S2050002EB0508
S2050002EC7399
S2050002ED10FB
S2050002EE4EBC
S2050002EF7B8E
S2050002F07395
S2050002F19077
S2050002F25EA8
S2050002F37B8A
S2050002F47391
S2050002F510F3
S2050002F66F93
S2050002F77B86
S2050002F803FD
S2050002F92ED1
S2050002FA41BD
S2050002FB04F9
S2050002FC8379
S2050002FD2ECD
S2050002FE8179
S2050002FF04F5
S20500030003F4
S2050003012FC7
S205000302C134
S20500030304F0
S2050003047380
S20500030510E2
S2050003060EE3
S2050003077B75
S205000308737C
S205000309905E
S20500030A1ECF
S20500030B7B71
S20500030C7378
S20500030D10DA
S20500030E2FBA
S20500030F7B6D
S2050003108364
S20500031121C5
S20500031201E4
S20500031300E4
S20500031403E0
S20500031522C0
S20500031641A0
S20500031700E0
S205000318835C
S20500031922BC
S20500031A815C
S20500031B00DC
S20500031C03D8
S20500031D23B7
S20500031EC118
S20500031F00D8
S2050003208354
S20500032123B3
S20500032201D4
S20500032301D3
S20500032403D0
S20500032525AD
S2050003264190
S20500032701CF
S205000328834C
S20500032925A9
S20500032A814C
S20500032B01CB
S20500032C03C8
S20500032D26A4
S20500032EC108
S20500032F01C7
S2050003308344
S20500033126A0
S20500033201C4
S20500033302C2
S20500033403C0
S205000335279B
S2050003364180
S20500033702BE
S205000338833C
S2050003392797
S20500033A813C
S20500033B02BA
S20500033C03B8
S20500033D2892
S20500033EC1F8
S20500033F02B6
S2050003408334
S205000341288E
S20500034201B4
S20500034303B1
S20500034403B0
S2050003452E84
S2050003464170
S20500034703AD
S205000348832C
S2050003492E80
S20500034A812C
S20500034B03A9
S20500034C03A8
S20500034D2F7B
S20500034EC1E8
S20500034F03A5
S2050003508324
S2050003512F77
S20500035201A4
S20500035304A0
S2050003548320
S2050003552082
S205000356C1E0
S205000357059B
S205000358138C
S205000359019D
S20500035A019C
S20500035B0696
S20500035C7328
S20500035D009A
S20500035E2079
S20500035F3068
S2050003606730
S2050003618016
S2050003620095
S2050003630094
S2050003640093
S2050003650092
S2050003660091
S2050003670090
S205000368008F
S205000369008E
S20500036A008D
S20500036B008C
S20500036C008B
S20500036D008A
S20500036E0089
S20500036F0088
S2050003700087
S2050003710086
S2050003720085
S2050003730084
S2050003741370
S2050003750181
S2050003760180
S205000377FE82
S205000378235C
S2050003792C52
S20500037A81FC
S20500037B007C
S20500037C2358
S20500037D2A50
S20500037E91E8
S20500037F0078
S2050003802354
S2050003812E48
S2050003821164
S2050003830074
S2050003842350
S205000385284A
S2050003862150
S205000387016F
S205000388234C
S2050003892648
S20500038A313C
S20500038B016B
S20500038C2348
S20500038D2446
S20500038E4128
S20500038F0167
S2050003902344
S2050003912244
S2050003925114
S2050003930163
S2050003942340
S2050003952042
S2050003966100
S205000397015F
S205000398134C
S205000399045A
S20500039A005D
S20500039B005C
S20500039C93C8
S20500039D0456
S20500039E80D9
S20500039F0058
S2050003A01344
S2050003A10551
S2050003A20451
S2050003A30054
S2050003A493C0
S2050003A5054D
S2050003A60051
S2050003A70050
S2050003A8EF60
S2050003A9004E
S2050003AA50FD
S2050003AB68E4
S2050003AC1338
S2050003AD0545
S2050003AE0445
S2050003AF0048
S2050003B093B4
S2050003B10541
S2050003B21035
S2050003B30044
S2050003B41330
S2050003B5043E
S2050003B6142D
S2050003B70040
S2050003B8EF50
S2050003B9003E
S2050003BAD06D
S2050003BB62DA
S2050003BCE358
S2050003BD1228
S2050003BE94A5
S2050003BFFE3A
S2050003C093A4
S2050003C10432
S2050003C20035
S2050003C30133
S2050003C41320
S2050003C5052D
S2050003C6042D
S2050003C70030
S2050003C8939C
S2050003C90529
S2050003CA101D
S2050003CB002C
S2050003CCEF3C
S2050003CD002A
S2050003CE1019
S2050003CF66C2
S2050003D01314
S2050003D10521
S2050003D20421
S2050003D30024
S2050003D49390
S2050003D5051D
S2050003D61011
S2050003D70020
S2050003D8130C
S2050003D9041A
S2050003DA1409
S2050003DB001C
S2050003DCEF2C
S2050003DD001A
S2050003DE9089
S2050003DF60B8
S2050003E0E334
S2050003E11204
S2050003E29481
S2050003E3FE16
S2050003E49380
S2050003E5040E
S2050003E640D1
S2050003E7010F
S2050003E813FC
S2050003E90509
S2050003EA0409
S2050003EB000C
S2050003EC9378
S2050003ED0505
S2050003EE0009
S2050003EF0008
S2050003F0EF18
S2050003F10006
S2050003F2D035
S2050003F363A1
S2050003F413F0
S2050003F505FD
S2050003F604FD
S2050003F70000
S2050003F8936C
S2050003F905F9
S2050003FA10ED
S2050003FB00FC
S2050003FC13E8
S2050003FD04F6
S2050003FE14E5
S2050003FF00F8
S205000400EF07
S20500040100F5
S20500040250A4
S2050004035E95
S205000404E30F
S20500040512DF
S205000406945C
S205000407FEF1
S205000408935B
S20500040904E9
S20500040A00EC
S20500040B01EA
S20500040C37B3
S20500040D29C0
S20500040E00E8
S20500040F00E7
S20500041013D3
S2050004110ADB
S205000412A044
S20500041300E3
S205000414934F
S20500041509D8
S2050004168060
S20500041700DF
S20500041813CB
S20500041904D9
S20500041A904C
S20500041B00DB
S20500041C13C7
S20500041D05D4
S20500041E04D4
S20500041F00D7
S2050004209343
S20500042105D0
S20500042200D4
S20500042300D3
S20500042413BF
S20500042504CD
S20500042614BC
S20500042700CF
S205000428EFDF
S20500042900CD
S20500042A10BC
S20500042B6665
S20500042CE3E7
S20500042D18B1
S20500042E9434
S20500042FFEC9
S2050004309333
S2050004310ABB
S20500043200C4
S20500043301C2
S20500043413AF
S2050004350BB6
S2050004369030
S20500043700BF
S20500043813AB
S20500043904B9
S20500043A902C
S20500043B00BB
S20500043C13A7
S20500043D05B4
S20500043E04B4
S20500043F00B7
S2050004409323
S20500044105B0
S20500044200B4
S20500044300B3
S205000444139F
S20500044504AD
S205000446149C
S20500044700AF
S205000448EFBF
S20500044900AD
S20500044A109C
S20500044B6447
S20500044CE3C7
S20500044D1891
S20500044E5454
S20500044FFFA8
S2050004509313
S20500045105A0
S2050004521094
S20500045300A3
S205000454138F
S205000455059C
S2050004560B95
S205000457009F
S205000458EFAF
S205000459009D
S20500045A108C
S20500045B6338
S20500045C9307
S20500045D0792
S20500045E098F
S20500045F7126
S2050004601383
S2050004610095
S2050004620094
S2050004630093
S20500046493FF
S205000465870A
S205000466F799
S205000467FF90
S205000468E3AB
S2050004699CF1
S20500046A0785
S20500046BFE8D
S20500046C1377
S20500046D0B7E
S20500046E1B6D
S20500046F0087
S205000470E3A3
S2050004711471
S2050004725B29
S205000473FD86
S20500047493EF
S2050004750A77
S205000476FB85
S205000477FF80
S205000478E39B
S2050004799EDF
S20500047A4A32
S20500047BFB80
S20500047C1367
S20500047D0475
S20500047E90E8
S20500047F0077
S2050004801363
S2050004810570
S2050004820470
S2050004830073
S20500048493DF
S205000485056C
S2050004861060
S205000487006F
S205000488135B
S2050004890469
S20500048A1458
S20500048B006B
S20500048CEF7B
S20500048D0069
S20500048ED098
S20500048F5F08
S205000490E383
S205000491184D
S20500049294D0
S205000493FE65
S205000494134F
S2050004950B56
S205000496F070
S205000497005F
S20500049893CB
S2050004990A53
S20500049A0B51
S20500049B005B
S20500049C1347
S20500049D0455
S20500049E0B4D
S20500049F0057
S2050004A01343
S2050004A10550
S2050004A20450
S2050004A30053
S2050004A493BF
S2050004A5054C
S2050004A60050
S2050004A7004F
S2050004A8133B
S2050004A90449
S2050004AA1438
S2050004AB004B
S2050004ACEF5B
S2050004AD0049
S2050004AED078
S2050004AF5DEA
S2050004B0E363
S2050004B1182D
S2050004B294B0
S2050004B3FE45
S2050004B493AF
S2050004B5053C
S2050004B61030
S2050004B7003F
S2050004B8132B
S2050004B985B8
S2050004BA0A32
S2050004BB003B
S2050004BCEF4B
S2050004BD0039
S2050004BED068
S2050004BF5CDB
S2050004C093A3
S2050004C1072E
S2050004C2092B
S2050004C371C2
S2050004C4131F
S2050004C50031
S2050004C60030
S2050004C7002F
S2050004C8939B
S2050004C987A6
S2050004CAF735
S2050004CBFF2C
S2050004CCE347
S2050004CD9C8D
S2050004CE0721
S2050004CFFE29
S2050004D09393
S2050004D18A9B
S2050004D21A0A
S2050004D30023
S2050004D4E33F
S2050004D5948D
S2050004D69A86
S2050004D7FC23
S2050004D8130B
S2050004D90B12
S2050004DAFB21
S2050004DBFF1C
S2050004DCE337
S2050004DD1EFB
S2050004DE3BDD
S2050004DFFB1C
S2050004E09383
S2050004E1070E
S2050004E2090B
S2050004E371A2
S2050004E413FF
S2050004E50011
S2050004E60010
S2050004E7000F
S2050004E8937B
S2050004E98786
S2050004EAF715
S2050004EBFF0C
S2050004ECE327
S2050004ED9C6D
S2050004EE0701
S2050004EFFE09
S2050004F013F3
S2050004F10401
S2050004F29074
S2050004F30003
S2050004F413EF
S2050004F505FC
S2050004F604FC
S2050004F700FF
S2050004F8936B
S2050004F905F8
S2050004FA00FC
S2050004FB00FB
S2050004FC13E7
S2050004FD04F5
S2050004FE14E4
S2050004FF00F7
S205000500EF06
S20500050100F4
S2050005029063
S205000503589A
S205000504E30E
S20500050518D8
S205000506945B
S205000507FEF0
S20500050813DA
S20500050904E8
S20500050A905B
S20500050B00EA
S20500050C9356
S20500050D05E3
S20500050E10D7
S20500050F00E6
S20500051013D2
S20500051105DF
S20500051204DF
S20500051300E2
S205000514EFF2
S20500051500E0
S205000516508F
S2050005175787
S205000518934A
S20500051907D5
S20500051A09D2
S20500051B7169
S20500051C13C6
S20500051D00D8
S20500051E00D7
S20500051F00D6
S2050005209342
S205000521874D
S205000522F7DC
S205000523FFD3
S205000524E3EE
S2050005259C34
S20500052607C8
S205000527FED0
S20500052813BA
S20500052904C8
S20500052A14B7
S20500052B00CA
S20500052CE3E6
S20500052D10B8
S20500052E9433
S20500052FFEC8
S20500053013B2
S20500053104C0
S2050005329033
S20500053300C2
S20500053413AE
S20500053505BB
S20500053604BB
S20500053700BE
S205000538932A
S20500053905B7
S20500053A10AB
S20500053B00BA
S20500053C13A6
S20500053D04B4
S20500053E14A3
S20500053F00B6
S205000540EFC6
S20500054100B4
S2050005429023
S205000543545E
S205000544E3CE
S2050005451898
S205000546941B
S205000547FEB0
S205000548139A
S20500054904A8
S20500054A901B
S20500054B00AA
S20500054C9316
S20500054D05A3
S20500054E00A7
S20500054F00A6
S2050005501392
S205000551059F
S205000552049F
S20500055300A2
S205000554EFB2
S20500055500A0
S205000556504F
S205000557534B
S205000558930A
S2050005590795
S20500055A0992
S20500055B7129
S20500055C1386
S20500055D0098
S20500055E0097
S20500055F0096
S2050005609302
S205000561870D
S205000562F79C
S205000563FF93
S205000564E3AE
S2050005659CF4
S2050005660788
S205000567FE90
S205000568137A
S2050005690488
S20500056A1477
S20500056B008A
S20500056CE3A6
S20500056D1078
S20500056E94F3
S20500056FFE88
S20500057093F2
S205000571077D
S205000572097A
S2050005737111
S205000574136E
S2050005750080
S205000576007F
S205000577007E
S20500057893EA
S20500057987F5
S20500057AF784
S20500057BFF7B
S20500057CE396
S20500057D9CDC
S20500057E0770
S20500057FFE78
S20500058093E2
S2050005810A6A
S20500058290E3
S2050005830072
S205000584135E
S205000585046C
S20500058690DF
S205000587006E
S205000588135A
S2050005890567
S20500058A0467
S20500058B006A
S20500058C93D6
S20500058D0563
S20500058E0067
S20500058F0066
S2050005901352
S2050005910460
S205000592144F
S2050005930062
S205000594EF72
S2050005950060
S205000596500F
S2050005974F0F
S205000598E37A
S2050005991844
S20500059A94C7
S20500059BFE5C
S20500059C93C6
S20500059D0553
S20500059E1047
S20500059F0056
S2050005A01342
S2050005A185CF
S2050005A20A49
S2050005A30052
S2050005A4EF62
S2050005A50050
S2050005A650FF
S2050005A74E00
S2050005A893BA
S2050005A90745
S2050005AA0942
S2050005AB71D9
S2050005AC1336
S2050005AD0048
S2050005AE0047
S2050005AF0046
S2050005B093B2
S2050005B187BD
S2050005B2F74C
S2050005B3FF43
S2050005B4E35E
S2050005B59CA4
S2050005B60738
S2050005B7FE40
S2050005B893AA
S2050005B98AB2
S2050005BA1A21
S2050005BB003A
S2050005BCE356
S2050005BD94A4
S2050005BE9A9D
S2050005BFFC3A
S2050005C093A2
S2050005C10A2A
S2050005C290A3
S2050005C30032
S2050005C4131E
S2050005C5042C
S2050005C6909F
S2050005C7002E
S2050005C8131A
S2050005C90527
S2050005CA0427
S2050005CB002A
S2050005CC9396
S2050005CD0523
S2050005CE0027
S2050005CF0026
S2050005D01312
S2050005D10420
S2050005D2140F
S2050005D30022
S2050005D4EF32
S2050005D50020
S2050005D650CF
S2050005D74BD3
S2050005D8E33A
S2050005D91804
S2050005DA9487
S2050005DBFE1C
S2050005DC9386
S2050005DD0513
S2050005DE1007
S2050005DF0016
S2050005E01302
S2050005E1858F
S2050005E20A09
S2050005E30012
S2050005E4EF22
S2050005E50010
S2050005E650BF
S2050005E74AC4
S2050005E8937A
S2050005E90705
S2050005EA0902
S2050005EB7199
S2050005EC13F6
S2050005ED0008
S2050005EE0007
S2050005EF0006
S2050005F09372
S2050005F1877D
S2050005F2F70C
S2050005F3FF03
S2050005F4E31E
S2050005F59C64
S2050005F607F8
S2050005F7FE00
S2050005F8936A
S2050005F98A72
S2050005FA1AE1
S2050005FB00FA
S2050005FCE316
S2050005FD9464
S2050005FE9A5D
S2050005FFFCFA
S2050006009361
S2050006010AE9
S2050006029062
S20500060300F1
S20500060413DD
S20500060504EB
S205000606905E
S20500060700ED
S20500060813D9
S20500060905E6
S20500060A04E6
S20500060B00E9
S20500060C9355
S20500060D05E2
S20500060E00E6
S20500060F00E5
S20500061013D1
S20500061104DF
S20500061214CE
S20500061300E1
S205000614EFF1
S20500061500DF
S205000616508E
S2050006174796
S205000618E3F9
S20500061918C3
S20500061A9446
S20500061BFEDB
S20500061C9345
S20500061D05D2
S20500061E10C6
S20500061F00D5
S20500062013C1
S205000621854E
S2050006220AC8
S20500062300D1
S205000624EFE1
S20500062500CF
S205000626507E
S2050006274687
S2050006289339
S20500062907C4
S20500062A09C1
S20500062B7158
S20500062C13B5
S20500062D00C7
S20500062E00C6
S20500062F00C5
S2050006309331
S205000631873C
S205000632F7CB
S205000633FFC2
S205000634E3DD
S2050006359C23
S20500063607B7
S205000637FEBF
S2050006389329
S2050006398A31
S20500063A1AA0
S20500063B00B9
S20500063CE3D5
S20500063D9423
S20500063E9A1C
S20500063FFCB9
S2050006406F45
S205000641F0C3
S2050006429F13
S205000643DDD4
S2050006443779
S2050006455758
S205000646109E
S2050006471A93
S2050006488329
S2050006492784
S20500064AC7E3
S20500064B00A9
S20500064C9315
S20500064DF6B1
S20500064E079F
S20500064F02A3
S2050006506341
S205000651841F
S205000652069C
S205000653049D
S205000654B7E9
S2050006550798
S205000656108E
S205000657009D
S2050006589309
S2050006590695
S20500065A801A
S20500065B0396
S20500065CA3F5
S20500065D8A0D
S20500065ED7BF
S20500065F1A7B
S2050006609301
S205000661078C
S2050006620092
S2050006630889
S205000664236D
S205000665226D
S205000666F797
S205000667008D
S205000668B7D5
S2050006690784
S20500066A107A
S20500066B0089
S20500066C2365
S20500066D8DFA
S20500066E077F
S20500066F1A6B
S205000670B7CD
S205000671562D
S2050006721072
S2050006731A67
S20500067483FD
S205000675A7D8
S2050006764638
S205000677017C
S2050006783745
S2050006794734
S20500067A106A
S20500067B1A5F
S20500067C93E5
S20500067DE790
S20500067E175F
S20500067F0075
S2050006802351
S205000681AAC9
S205000682F67C
S2050006830071
S20500068483ED
S2050006852748
S205000686C7A7
S205000687006D
S205000688B7B5
S2050006890665
S20500068A80EA
S20500068B0069
S20500068CB3B5
S20500068DE780
S20500068ED78F
S20500068F0065
S2050006902341
S205000691263D
S205000692F76B
S2050006930061
S20500069467F9
S20500069580DF
S205000696005E
S205000697005D
S20500069893C9
S205000699F764
S20500069A0753
S20500069B0851
S20500069C63F5
S20500069D9ABD
S20500069E074F
S20500069F064F
S2050006A0B79D
S2050006A1074C
S2050006A21042
S2050006A30051
S2050006A4034D
S2050006A5C689
S2050006A6A7A7
S2050006A71B32
S2050006A893B9
S2050006A90645
S2050006AA202A
S2050006AB0049
S2050006AC63E5
S2050006AD083F
S2050006AED670
S2050006AF083D
S2050006B00341
S2050006B1C67D
S2050006B2A79B
S2050006B31B26
S2050006B493AD
S2050006B50639
S2050006B6102E
S2050006B7003D
S2050006B8E359
S2050006B91C1F
S2050006BAD664
S2050006BBFA3F
S2050006BCB781
S2050006BD0631
S2050006BE1026
S2050006BF0035
S2050006C00331
S2050006C1C66D
S2050006C246EC
S2050006C31B16
S2050006C463CD
S2050006C51A15
S2050006C60628
S2050006C7101D
S2050006C8B775
S2050006C90625
S2050006CA101A
S2050006CB0029
S2050006CC0325
S2050006CD2502
S2050006CE879F
S2050006CF0025
S2050006D083A1
S2050006D1C55E
S2050006D276AC
S2050006D31B06
S2050006D437E9
S2050006D50718
S2050006D6100E
S2050006D7001D
S2050006D81309
S2050006D90714
S2050006DA47D3
S2050006DB1504
S2050006DC1305
S2050006DD8691
S2050006DE1501
S2050006DF0015
S2050006E01301
S2050006E1769D
S2050006E2F61C
S2050006E30F02
S2050006E433DD
S2050006E50708
S2050006E6B757
S2050006E7000D
S2050006E8A369
S2050006E98B80
S2050006EAC644
S2050006EB1AEF
S2050006EC23E5
S2050006ED0007
S2050006EEA75F
S2050006EF0005
S2050006F037CD
S2050006F107FC
S2050006F210F2
S2050006F30001
S2050006F4837D
S2050006F5C639
S2050006F67688
S2050006F71BE2
S2050006F803F9
S2050006F947B4
S2050006FA6793
S2050006FB1BDE
S2050006FC6395
S2050006FDF403
S2050006FEE610
S2050006FF0EE7
S205000700B73C
S205000701579B
S20500070210E1
S2050007031AD6
S20500070413DC
S20500070507E7
S20500070600ED
S20500070702EA
S20500070823C8
S205000709AA40
S20500070AE702
S20500070B00E8
S20500070C6F78
S20500070DF0F6
S20500070E5F86
S20500070FF6EE
S205000710B72C
S20500071107DB
S20500071210D1
S20500071300E0
S205000714835C
S205000715C618
S205000716A736
S2050007171BC1
S20500071813C8
S20500071907D3
S20500071A20B9
S20500071B00D8
S20500071C6374
S20500071D8056
S20500071EE6EF
S20500071F06CE
S205000720379C
S205000721577B
S20500072210C1
S2050007231AB6
S205000724933C
S20500072506C8
S20500072600CD
S20500072704C8
S20500072823A8
S2050007292AA0
S20500072AD7F2
S20500072B00C8
S20500072C9334
S20500072D06C0
S20500072E00C5
S20500072F08BC
S20500073023A0
S20500073122A0
S205000732D7EA
S20500073300C0
S205000734239C
S2050007358D31
S20500073607B6
S2050007371AA2
S2050007386F4C
S205000739F0CA
S20500073A9F1A
S20500073BF3C5
S20500073CB700
S20500073D06B0
S20500073E10A5
S20500073F00B4
S205000740377C
S20500074106AC
S20500074210A1
S20500074300B0
S205000744832C
S205000745C5E9
S2050007467637
S2050007471B91
S20500074803A8
S2050007494664
S20500074A6643
S20500074B1B8D
S20500074C6344
S20500074DEEB8
S20500074EC5E0
S20500074F04A0
S205000750B7EC
S205000751069C
S2050007521091
S20500075300A0
S205000754831C
S205000755C6D8
S2050007569607
S2050007571B81
S205000758E3B8
S2050007599604
S20500075A0693
S20500075BFC9C
S20500075CB7E0
S20500075D0690
S20500075E1085
S20500075F0094
S2050007601380
S205000761068C
S2050007621081
S2050007630090
S205000764236C
S2050007658C02
S205000766C6C7
S2050007671A72
S20500076893F8
S2050007690684
S20500076A0089
S20500076B0880
S20500076C2364
S20500076D2264
S20500076ED7AE
S20500076F0084
S2050007702360
S2050007712A58
S205000772D7AA
S2050007730080
S205000774235C
S2050007758DF1
S2050007760776
S2050007771A62
S2050007786F0C
S205000779F08A
S20500077A9FDA
S20500077BEF89
S20500077C3740
S20500077D076F
S20500077E1065
S20500077F0074
S2050007800370
S205000781472B
S20500078277FA
S2050007831B55
S205000784630C
S2050007851A54
S2050007860766
S205000787006C
S2050007883734
S2050007890763
S20500078A1059
S20500078B0068
S20500078C93D4
S20500078D0660
S20500078E0065
S20500078F0262
S205000790A3C0
S2050007910A58
S205000792D78A
S2050007931A46
S2050007946FF0
S205000795F06E
S205000796DF7E
S205000797F864
S2050007983724
S2050007990753
S20500079A1049
S20500079B0058
S20500079C93C4
S20500079D0650
S20500079E0055
S20500079F0351
S2050007A0A3B0
S2050007A10A48
S2050007A2D77A
S2050007A31A36
S2050007A46FE0
S2050007A5F05E
S2050007A6DF6E
S2050007A7F755
S2050007A883C8
S2050007A9C783
S2050007AA76D3
S2050007AB1B2D
S2050007AC3710
S2050007AD0640
S2050007AE1035
S2050007AF0044
S2050007B01330
S2050007B1063C
S2050007B246FB
S2050007B3152B
S2050007B4330C
S2050007B50638
S2050007B6F647
S2050007B7003C
S2050007B80338
S2050007B946F4
S2050007BA0633
S2050007BB0038
S2050007BC93A4
S2050007BD87AF
S2050007BE171E
S2050007BF0034
S2050007C093A0
S2050007C1F73B
S2050007C2F73A
S2050007C30F21
S2050007C4A38C
S2050007C58BA3
S2050007C6F637
S2050007C71A12
S2050007C82308
S2050007C92802
S2050007CAC762
S2050007CB0028
S2050007CC9394
S2050007CD071F
S2050007CE0025
S2050007CF0123
S2050007D02300
S2050007D12AF8
S2050007D2F72A
S2050007D30020
S2050007D46FB0
S2050007D5F02E
S2050007D6DF3E
S2050007D7E933
S2050007D823F8
S2050007D98A90
S2050007DA0613
S2050007DB1AFE
S2050007DCB760
S2050007DD0610
S2050007DE1005
S2050007DF0014
S2050007E06FA4
S2050007E1F022
S2050007E21FF2
S2050007E3F11F
S2050007E437D8
S2050007E50707
S2050007E610FD
S2050007E7000C
S2050007E80308
S2050007E947C3
S2050007EA9772
S2050007EB1BED
S2050007ECE324
S2050007ED1AEC
S2050007EE07FE
S2050007EFF212
S2050007F037CC
S2050007F107FB
S2050007F210F1
S2050007F30000
S2050007F4936C
S2050007F506F8
S2050007F610ED
S2050007F700FC
S2050007F823D8
S2050007F90CEE
S2050007FAD722
S2050007FB1ADE
S2050007FC37C0
S2050007FD579F
S2050007FE10E5
S2050007FF1ADA
S205000800935F
S20500080106EB
S20500080200F0
S20500080308E7
S20500080423CB
S20500080522CB
S205000806D715
S20500080700EB
S20500080823C7
S2050008092ABF
S20500080AD711
S20500080B00E7
S20500080C23C3
S20500080D8D58
S20500080E07DD
S20500080F1AC9
S2050008106F73
S205000811F0F1
S2050008121FC1
S205000813E6F9
S2050008146777
S205000815805D
S20500081600DC
S20500081700DB
S205000818B723
S20500081917C2
S20500081A10C8
S20500081B1ABD
S20500081C8353
S20500081DA72E
S20500081E874D
S20500081F01D2
S20500082013BF
S20500082107CA
S20500082210C0
S20500082300CF
S205000824636B
S2050008258A43
S205000826E7E5
S20500082706C5
S20500082813B7
S20500082907C2
S20500082A00C8
S20500082B00C7
S20500082C9333
S20500082D06BF
S20500082E10B4
S20500082F00C3
S205000830932F
S205000831D7EA
S20500083217A9
S20500083300BF
S20500083413AB
S20500083507B6
S20500083617A5
S20500083700BB
S205000838E3D7
S2050008399C1D
S20500083AD7E1
S20500083BFEB9
S20500083CB7FF
S20500083D07AE
S20500083E10A4
S20500083F00B3
S205000840139F
S205000841179A
S2050008422789
S20500084300AF
S205000844931B
S2050008458726
S2050008464765
S2050008470C9F
S205000848B3F7
S2050008498722
S20500084AE7C1
S20500084B00A7
S20500084C8323
S20500084DA7FE
S20500084E079D
S20500084F00A3
S205000850633F
S2050008518819
S2050008520799
S205000853029D
S205000854138B
S205000855019C
S205000856019B
S205000857FF9C
S2050008582377
S2050008592673
S20500085A1187
S20500085B0097
S20500085CE7AF
S20500085D8015
S20500085E078D
S20500085F0093
S205000860375B
S205000861474A
S2050008621080
S2050008631A75
S205000864830B
S2050008652766
S205000866C7C5
S205000867008B
S2050008688307
S2050008692069
S20500086AC1C7
S20500086B0087
S20500086CB7CF
S20500086D067F
S20500086E0084
S20500086F0281
S205000870B3CF
S205000871E79A
S205000872D7A9
S205000873007F
S205000874235B
S2050008752657
S205000876F785
S205000877007B
S2050008781367
S2050008790178
S20500087A0177
S20500087B0176
S20500087C670F
S20500087D80F5
S20500087E0074
S20500087F0073
S205000880373B
S205000881472A
S2050008821060
S2050008831A55
S20500088483EB
S2050008852746
S205000886C7A5
S205000887006B
S205000888B7B3
S2050008890663
S20500088A0068
S20500088B0265
S20500088CB3B3
S20500088DE77E
S20500088ED78D
S20500088F0063
S205000890233F
S205000891263B
S205000892F769
S205000893005F
S20500089467F7
S20500089580DD
S205000896005C
S205000897005B
S2050008981347
S2050008990752
S20500089A0058
S20500089B0057
S20500089C6FE7
S20500089DF065
S20500089E1F35
S20500089FFA59
S2050008A0B79B
S2050008A1064B
S2050008A21040
S2050008A3004F
S2050008A4034B
S2050008A5C786
S2050008A6B696
S2050008A71B30
S2050008A83713
S2050008A90643
S2050008AA1038
S2050008AB0047
S2050008AC83C3
S2050008AD2520
S2050008AEC67E
S2050008AF1B28
S2050008B093AF
S2050008B1073A
S2050008B21729
S2050008B3053A
S2050008B493AB
S2050008B5F746
S2050008B6F745
S2050008B70F2C
S2050008B81327
S2050008B90534
S2050008BAC078
S2050008BB0730
S2050008BC63D3
S2050008BD78BD
S2050008BEF53F
S2050008BF0033
S2050008C0131F
S2050008C1072A
S2050008C247E9
S2050008C3FD32
S2050008C4939B
S2050008C577B6
S2050008C6F735
S2050008C70F1C
S2050008C89397
S2050008C985A4
S2050008CA1513
S2050008CB0027
S2050008CC2303
S2050008CD2EF7
S2050008CEB66E
S2050008CF1A09
S2050008D037EB
S2050008D1061B
S2050008D21010
S2050008D3001F
S2050008D4031B
S2050008D527F6
S2050008D60616
S2050008D71CFF
S2050008D8A377
S2050008D98D8C
S2050008DAF622
S2050008DB1AFD
S2050008DCB75F
S2050008DD46CF
S2050008DE1004
S2050008DF1AF9
S2050008E0937F
S2050008E1070A
S2050008E217F9
S2050008E3000F
S2050008E423EB
S2050008E520ED
S2050008E6F616
S2050008E71CEF
S2050008E88387
S2050008E9A762
S2050008EAC642
S2050008EB0007
S2050008EC37CF
S2050008ED07FE
S2050008EE0004
S2050008EF20E3
S2050008F0B34F
S2050008F1E71A
S2050008F2E719
S2050008F300FF
S2050008F423DB
S2050008F5A657
S2050008F6F606
S2050008F700FB
S2050008F86793
S2050008F98079
S2050008FA00F8
S2050008FB00F7
S2050008FC37BF
S2050008FD03F2
S2050008FE10E4
S2050008FF00F3
S205000900836E
S20500090145AB
S20500090243AC
S2050009031CD2
S205000904935A
S20500090507E5
S205000906F0FB
S20500090701E9
S2050009086386
S2050009098860
S20500090AF5F2
S20500090B06E0
S20500090CB72E
S20500090D07DD
S20500090E10D3
S20500090F00E2
S205000910934E
S2050009118759
S2050009124798
S20500091317C7
S20500091413CA
S2050009158656
S20500091607D4
S20500091704D6
S20500091813C6
S20500091907D1
S20500091A00D7
S20500091B00D6
S20500091C379E
S20500091D15BF
S20500091E10C3
S20500091F1AB8
S205000920933E
S20500092108C8
S20500092210BF
S20500092300CE
S205000924834A
S205000925C606
S20500092607C4
S20500092700CA
S2050009286366
S2050009298048
S20500092A06C1
S20500092B02C4
S20500092C8342
S20500092DC6FE
S20500092E17AC
S20500092F00C2
S205000930635E
S2050009319C24
S205000932B609
S20500093300BE
S20500093403BA
S2050009352894
S2050009368536
S20500093700BA
S205000938B306
S2050009399622
S20500093AE8CF
S20500093B00B6
S20500093C9322
S20500093DC6EE
S20500093EF6BD
S20500093FFFB3
S205000940B3FE
S205000941F6BA
S20500094206A9
S20500094301AD
S205000944238A
S2050009452488
S205000946D5D6
S20500094700AA
S2050009489316
S2050009498721
S20500094A2780
S20500094B00A6
S20500094C1392
S20500094D079D
S20500094E178C
S20500094F00A2
S205000950E3BE
S2050009519A06
S205000952C7D8
S205000953FCA2
S205000954930A
S2050009558517
S2050009561586
S205000957009A
S2050009589306
S205000959F5A3
S20500095AF5A2
S20500095B0F87
S20500095C2372
S20500095D0292
S20500095EB3E0
S20500095F1C76
S205000960375A
S2050009614749
S205000962107F
S2050009631A74
S205000964830A
S2050009652765
S205000966C7C4
S205000967008A
S205000968B7D2
S2050009690682
S20500096A0087
S20500096B8006
S20500096CB3D2
S20500096DE79D
S20500096ED7AC
S20500096F0082
S205000970235E
S205000971265A
S205000972F788
S205000973007E
S2050009746716
S20500097580FC
S205000976007B
S205000977007A
S205000978B7C2
S2050009790771
S20500097A1067
S20500097B0076
S20500097C93E2
S20500097D87ED
S20500097E472C
S20500097F175B
S205000980135E
S20500098185EB
S2050009820768
S205000983046A
S205000984135A
S2050009850765
S205000986006B
S205000987006A
S2050009883732
S2050009891850
S20500098A1057
S20500098B1A4C
S20500098C93D2
S20500098D055F
S20500098E1053
S20500098F0062
S205000990035E
S205000991C69A
S2050009920758
S205000993005E
S205000994B3AA
S20500099596C6
S205000996E576
S205000997005A
S20500099893C6
S20500099987D1
S20500099A2730
S20500099B0056
S20500099C63F2
S20500099D084C
S20500099E064D
S20500099F0052
S2050009A0034E
S2050009A1262A
S2050009A288C7
S2050009A3004E
S2050009A4B39A
S2050009A5E666
S2050009A6C685
S2050009A7004A
S2050009A82326
S2050009A92424
S2050009AAD86F
S2050009AB0046
S2050009AC1332
S2050009AD073D
S2050009AE172C
S2050009AF0042
S2050009B0E35E
S2050009B190B0
S2050009B2A798
S2050009B3FE40
S2050009B493AA
S2050009B50537
S2050009B6003B
S2050009B7003A
S2050009B82316
S2050009B90236
S2050009BAB384
S2050009BB1C1A
S2050009BC37FE
S2050009BD47ED
S2050009BE1023
S2050009BF1A18
S2050009C083AE
S2050009C12709
S2050009C2C768
S2050009C3002E
S2050009C4B776
S2050009C50626
S2050009C6002B
S2050009C780AA
S2050009C8B376
S2050009C9E741
S2050009CAD750
S2050009CB0026
S2050009CC2302
S2050009CD26FE
S2050009CEF72C
S2050009CF0022
S2050009D067BA
S2050009D180A0
S2050009D2001F
S2050009D3001E
S2050009D4F32A
S2050009D525F7
S2050009D6100B
S2050009D734E6
S2050009D80316
S2050009D9A672
S2050009DA0512
S2050009DB0016
S2050009DC37DE
S2050009DD050F
S2050009DE1003
S2050009DF0012
S2050009E013FE
S2050009E1010F
S2050009E2010E
S2050009E3FF0F
S2050009E413FA
S2050009E50507
S2050009E60506
S2050009E7000A
S2050009E823E6
S2050009E926E2
S2050009EA11F6
S2050009EB0006
S2050009ECEF16
S2050009ED0004
S2050009EE40C3
S2050009EF3DC5
S2050009F013EE
S2050009F105FB
S2050009F210EF
S2050009F300FE
S2050009F4EF0E
S2050009F500FC
S2050009F6D02B
S2050009F71DDD
S2050009F813E6
S2050009F901F7
S2050009FA01F6
S2050009FBFBFB
S2050009FC23D2
S2050009FD24D0
S2050009FE8172
S2050009FF04EE
S205000A0023CD
S205000A012CC3
S205000A0241AD
S205000A0303EA
S205000A0423C9
S205000A052AC1
S205000A065199
S205000A0703E6
S205000A0823C5
S205000A0926C1
S205000A0A11D5
S205000A0B04E1
S205000A0C23C1
S205000A0D22C1
S205000A0E9151
S205000A0F04DD
S205000A1023BD
S205000A1120BF
S205000A1221BD
S205000A1305D8
S205000A1423B9
S205000A152EAD
S205000A1631A9
S205000A1703D6
S205000A1823B5
S205000A1928AF
S205000A1A6175
S205000A1B03D2
S205000A1C23B1
S205000A1D26AD
S205000A1E7161
S205000A1F03CE
S205000A2013BD
S205000A210AC5
S205000A2207C7
S205000A2300CD
S205000A2413B9
S205000A258447
S205000A2606C4
S205000A2700C9
S205000A289335
S205000A297A4D
S205000A2A17AF
S205000A2B00C5
S205000A2C6361
S205000A2D0EB5
S205000A2E05BD
S205000A2F20A1
S205000A30932D
S205000A3104BB
S205000A3206B8
S205000A3300BD
S205000A346359
S205000A3506B5
S205000A3606B4
S205000A3700B9
S205000A3813A5
S205000A3907B0
S205000A3AA016
S205000A3B00B5
S205000A3C6351
S205000A3D8A29
S205000A3EE5CD
S205000A3F248D
S205000A40A30D
S205000A410FA0
S205000A4201AD
S205000A4300AD
S205000A441399
S205000A4507A4
S205000A4600AA
S205000A4701A8
S205000A486345
S205000A498423
S205000A4AE5C1
S205000A4B188D
S205000A4C9311
S205000A4D049F
S205000A4E00A2
S205000A4F00A1
S205000A503769
S205000A510798
S205000A52108E
S205000A53009D
S205000A549309
S205000A550992
S205000A56F1A9
S205000A570198
S205000A581385
S205000A590790
S205000A5A474F
S205000A5B1481
S205000A5C9301
S205000A5D177C
S205000A5E157D
S205000A5F0091
S205000A60B3DD
S205000A618708
S205000A62A7E7
S205000A63008D
S205000A6493F9
S205000A6597F4
S205000A662763
S205000A670089
S205000A68B3D5
S205000A698700
S205000A6AA7DF
S205000A6B0085
S205000A6C93F1
S205000A6D96ED
S205000A6E671B
S205000A6F0081
S205000A70B3CD
S205000A7186F9
S205000A72F688
S205000A73403D
S205000A7493E9
S205000A7596E5
S205000A762654
S205000A770079
S205000A78B3C5
S205000A7986F1
S205000A7AA6D0
S205000A7B0075
S205000A7C1361
S205000A7D561D
S205000A7E155D
S205000A7F0071
S205000A8093DD
S205000A815718
S205000A822549
S205000A83006D
S205000A84B3B9
S205000A8587E4
S205000A86C7A3
S205000A870069
S205000A8893D5
S205000A8995D2
S205000A8AE680
S205000A8B0065
S205000A8CB3B1
S205000A8D85DE
S205000A8ED58D
S205000A8F4021
S205000A9093CD
S205000A91D689
S205000A924717
S205000A93005D
S205000A94B3A9
S205000A9587D4
S205000A96D783
S205000A970059
S205000A9893C5
S205000A9995C2
S205000A9A3521
S205000A9B0055
S205000A9CB3A1
S205000A9D85CE
S205000A9EA5AD
S205000A9F0051
S205000AA0133D
S205000AA1D877
S205000AA287C7
S205000AA3004D
S205000AA493B9
S205000AA556F5
S205000AA63515
S205000AA70049
S205000AA8B395
S205000AA987C0
S205000AAA073F
S205000AAB0144
S205000AACB391
S205000AAD85BE
S205000AAEC57D
S205000AAF0041
S205000AB0B38D
S205000AB185BA
S205000AB2D569
S205000AB3003D
S205000AB493A9
S205000AB5D665
S205000AB60733
S205000AB70138
S205000AB8B385
S205000AB987B0
S205000ABAD75F
S205000ABB0035
S205000ABC93A1
S205000ABDD55E
S205000ABEC56D
S205000ABF0130
S205000AC0939D
S205000AC1D758
S205000AC237F7
S205000AC3002D
S205000AC4B379
S205000AC50526
S205000AC6B773
S205000AC70029
S205000AC80325
S205000AC9C95E
S205000ACA0521
S205000ACB0025
S205000ACC9391
S205000ACD968D
S205000ACE27FB
S205000ACF0021
S205000AD0B36D
S205000AD18699
S205000AD2F628
S205000AD3001D
S205000AD49389
S205000AD59685
S205000AD61604
S205000AD70019
S205000AD81305
S205000AD90512
S205000ADA65B1
S205000ADB0015
S205000ADC33E1
S205000ADD050E
S205000ADED53D
S205000ADF40D1
S205000AE013FD
S205000AE10906
S205000AE20905
S205000AE3030A
S205000AE413F9
S205000AE57992
S205000AE6F911
S205000AE70FFA
S205000AE813F5
S205000AE955B2
S205000AEA45C1
S205000AEB0005
S205000AECA361
S205000AED8F74
S205000AEE29D9
S205000AEFFF02
S205000AF033CD
S205000AF105FA
S205000AF2F509
S205000AF300FD
S205000AF49369
S205000AF58675
S205000AF609F1
S205000AF700F9
S205000AF89365
S205000AF9896E
S205000AFAF9FD
S205000AFBFFF6
S205000AFCE311
S205000AFD10E3
S205000AFE05ED
S205000AFFF6FB
S205000B00638C
S205000B01826C
S205000B0204E9
S205000B0302EA
S205000B046388
S205000B0506E4
S205000B0604E5
S205000B0716D2
S205000B089354
S205000B097B6B
S205000B0A2ABB
S205000B0B00E4
S205000B0C9350
S205000B0D875B
S205000B0E0BD6
S205000B0F00E0
S205000B10637C
S205000B118E50
S205000B120BD2
S205000B131EBE
S205000B1413C8
S205000B1505D5
S205000B16D009
S205000B1702D6
S205000B18EFE8
S205000B1900D6
S205000B1A10C5
S205000B1B03D1
S205000B1C03D0
S205000B1DC909
S205000B1E09C8
S205000B1F00D0
S205000B2013BC
S205000B2104CA
S205000B22F4D9
S205000B23FFCD
S205000B246368
S205000B255476
S205000B268049
S205000B270EBA
S205000B286364
S205000B2900C6
S205000B2A09BC
S205000B2B18AC
S205000B2C9330
S205000B2D774B
S205000B2E2A97
S205000B2F00C0
S205000B3013AC
S205000B3107B7
S205000B3200BD
S205000B3300BC
S205000B3413A8
S205000B3507B3
S205000B3617A2
S205000B3700B8
S205000B38B304
S205000B398630
S205000B3AE9CC
S205000B3B00B4
S205000B3C8330
S205000B3DC6EC
S205000B3E06AB
S205000B3F00B0
S205000B40E3CC
S205000B419A14
S205000B4206A7
S205000B43FEAE
S205000B446348
S205000B45406A
S205000B468722
S205000B471A8E
S205000B489314
S205000B498B1B
S205000B4A079E
S205000B4B00A4
S205000B4C6340
S205000B4D881A
S205000B4E079A
S205000B4F148C
S205000B50138C
S205000B510B93
S205000B52009D
S205000B530399
S205000B549308
S205000B550B8F
S205000B560099
S205000B570098
S205000B581384
S205000B590492
S205000B5A0095
S205000B5B0094
S205000B5C1380
S205000B5D8A08
S205000B5E0988
S205000B5F0090
S205000B60137C
S205000B610589
S205000B620984
S205000B63008C
S205000B64EF9C
S205000B65008A
S205000B664049
S205000B677E0A
S205000B680384
S205000B69493D
S205000B6A1A6B
S205000B6B0084
S205000B6C93F0
S205000B6D077B
S205000B6E0A77
S205000B6F0080
S205000B70136C
S205000B710A74
S205000B721A63
S205000B73007C
S205000B74E398
S205000B751664
S205000B760970
S205000B77FE7A
S205000B781364
S205000B7987EF
S205000B7A1B5A
S205000B7B0074
S205000B7C3340
S205000B7D076B
S205000B7E373A
S205000B7F412F
S205000B80B3BC
S205000B818BE3
S205000B82E786
S205000B83006C
S205000B841358
S205000B850961
S205000B860465
S205000B870068
S205000B886304
S205000B895A0C
S205000B8A80E5
S205000B8B1450
S205000B8C1350
S205000B8D045E
S205000B8EF46D
S205000B8FFF61
S205000B90134C
S205000B910559
S205000B920B52
S205000B93005C
S205000B94EF6C
S205000B95005A
S205000B964019
S205000B977BDD
S205000B98E374
S205000B991A3C
S205000B9A0451
S205000B9BFE56
S205000B9C3320
S205000B9D0949
S205000B9E79D8
S205000B9F014F
S205000BA0331C
S205000BA10549
S205000BA299B4
S205000BA3004C
S205000BA483C8
S205000BA5202A
S205000BA6C188
S205000BA70444
S205000BA80344
S205000BA92422
S205000BAA81C4
S205000BAB0440
S205000BAC83C0
S205000BAD241E
S205000BAE4100
S205000BAF043C
S205000BB0033C
S205000BB12915
S205000BB2013C
S205000BB30438
S205000BB483B8
S205000BB52911
S205000BB6C178
S205000BB70335
S205000BB80334
S205000BB92A0C
S205000BBA81B4
S205000BBB0331
S205000BBC83B0
S205000BBD2A08
S205000BBE41F0
S205000BBF032D
S205000BC0032C
S205000BC12B03
S205000BC2012C
S205000BC30329
S205000BC483A8
S205000BC52BFF
S205000BC6C168
S205000BC70226
S205000BC81314
S205000BC90125
S205000BCA0124
S205000BCB051F
S205000BCC67BC
S205000BCD80A2
S205000BCE0021
S205000BCF0020
S205000BD0938C
S205000BD10915
S205000BD2F12C
S205000BD3011B
S205000BD49388
S205000BD50614
S205000BD69089
S205000BD70018
S205000BD81304
S205000BD9878F
S205000BDA67AE
S205000BDBFC18
S205000BDC9380
S205000BDD779B
S205000BDEF51C
S205000BDF0010
S205000BE033DC
S205000BE10905
S205000BE2F716
S205000BE3000C
S205000BE413F8
S205000BE50901
S205000BE60900
S205000BE70305
S205000BE813F4
S205000BE9798D
S205000BEAF90C
S205000BEB0FF5
S205000BEC63A0
S205000BEDFC06
S205000BEEF60B
S205000BEF02FE
S205000BF0A35C
S205000BF18F6F
S205000BF229D4
S205000BF3FFFD
S205000BF413E8
S205000BF555A5
S205000BF645B4
S205000BF700F8
S205000BF89364
S205000BF9896D
S205000BFAF9FC
S205000BFBFFF5
S205000BFCE310
S205000BFD10E2
S205000BFE05EC
S205000BFFFEF2
S205000C00935B
S205000C0104E9
S205000C0200EC
S205000C0300EB
S205000C049357
S205000C057772
S205000C062ABE
S205000C0700E7
S205000C08E303
S205000C0944A1
S205000C0A8064
S205000C0BF2F1
S205000C0C637F
S205000C0D9A47
S205000C0E0AD6
S205000C0F18C7
S205000C10934B
S205000C110BD2
S205000C1200DC
S205000C1300DB
S205000C1413C7
S205000C150BCE
S205000C1600D8
S205000C1702D5
S205000C18E3F3
S205000C1912C3
S205000C1A09CB
S205000C1BF4DF
S205000C1C13BF
S205000C1D854C
S205000C1E04CC
S205000C1F00CF
S205000C206F5F
S205000C21F0DD
S205000C225F6D
S205000C23F8D3
S205000C249337
S205000C258940
S205000C26F9CF
S205000C27FFC8
S205000C2813B3
S205000C29893C
S205000C2A07BD
S205000C2B03C0
S205000C2C239F
S205000C2D8041
S205000C2E2997
S205000C2F01BE
S205000C3013AB
S205000C315568
S205000C324577
S205000C3300BB
S205000C34E3D7
S205000C3514A5
S205000C3605B3
S205000C37FABD
S205000C389323
S205000C3904B1
S205000C3A00B4
S205000C3B00B3
S205000C3C931F
S205000C3D773A
S205000C3E2A86
S205000C3F00AF
S205000C40E3CB
S205000C414865
S205000C42802C
S205000C43EEBD
S205000C446F3B
S205000C45F0B9
S205000C469F09
S205000C47FCAB
S205000C489313
S205000C49079E
S205000C4A00A4
S205000C4B03A0
S205000C4C237F
S205000C4D1091
S205000C4EF1AF
S205000C4F009F
S205000C50633B
S205000C515845
S205000C52D0CC
S205000C53009B
S205000C549307
S205000C550792
S205000C561088
S205000C570097
S205000C581383
S205000C597A1B
S205000C5A276D
S205000C5B0093
S205000C5C632F
S205000C5D98F9
S205000C5EF69A
S205000C5F0C83
S205000C60137B
S205000C610588
S205000C62008C
S205000C630388
S205000C64EF9B
S205000C650089
S205000C664048
S205000C676E19
S205000C681373
S205000C690580
S205000C6A1074
S205000C6B0083
S205000C6C6F13
S205000C6DF091
S205000C6E9FE1
S205000C6FF38C
S205000C7093EB
S205000C710776
S205000C72D0AC
S205000C730279
S205000C74A3D7
S205000C758FEA
S205000C76F97F
S205000C77FE79
S205000C7893E3
S205000C790B6A
S205000C7A0074
S205000C7B0073
S205000C7C93DF
S205000C7D046D
S205000C7E0070
S205000C7F006F
S205000C8093DB
S205000C8189E4
S205000C82E686
S205000C83FF6C
S205000C841357
S205000C850B5E
S205000C860068
S205000C870265
S205000C881353
S205000C89095C
S205000C8AD094
S205000C8B0261
S205000C8C6FF3
S205000C8DF071
S205000C8E1F41
S205000C8FED72
S205000C9063FB
S205000C914C11
S205000C920557
S205000C930C4F
S205000C94A3B7
S205000C950F4A
S205000C960157
S205000C970057
S205000C986FE7
S205000C99F065
S205000C9A5FF5
S205000C9BDB78
S205000C9C133F
S205000C9D044D
S205000C9E0050
S205000C9F004F
S205000CA0133B
S205000CA10B42
S205000CA2004C
S205000CA30249
S205000CA46FDB
S205000CA5F059
S205000CA69FA9
S205000CA7EB5C
S205000CA893B3
S205000CA977CE
S205000CAA2A1A
S205000CAB0043
S205000CAC132F
S205000CADBB86
S205000CAE1729
S205000CAF003F
S205000CB0330B
S205000CB10B32
S205000CB260DC
S205000CB341FA
S205000CB41327
S205000CB57BBE
S205000CB60B2D
S205000CB7FF38
S205000CB893A3
S205000CB90B2A
S205000CBA0430
S205000CBB0033
S205000CBC131F
S205000CBD0B26
S205000CBE0B25
S205000CBF032C
S205000CC063CB
S205000CC19E8F
S205000CC20A22
S205000CC30229
S205000CC41317
S205000CC584A5
S205000CC60B1D
S205000CC70027
S205000CC81313
S205000CC90421
S205000CCAF430
S205000CCBFF24
S205000CCC130F
S205000CCD051C
S205000CCE0B15
S205000CCF001F
S205000CD0EF2F
S205000CD1001D
S205000CD2809C
S205000CD367B4
S205000CD4E337
S205000CD51AFF
S205000CD60414
S205000CD7FE19
S205000CD8E333
S205000CD91203
S205000CDA090B
S205000CDBE82B
S205000CDC33DF
S205000CDD858C
S205000CDE749C
S205000CDF010E
S205000CE06F9F
S205000CE1F01D
S205000CE25FAD
S205000CE3EC1F
S205000CE413F7
S205000CE5BB4E
S205000CE617F1
S205000CE70007
S205000CE833D3
S205000CE90BFA
S205000CEA60A4
S205000CEB41C2
S205000CEC13EF
S205000CED7B86
S205000CEE0BF5
S205000CEFFF00
S205000CF0B34B
S205000CF10BF2
S205000CF2E418
S205000CF340BB
S205000CF413E7
S205000CF50BEE
S205000CF60BED
S205000CF703F4
S205000CF8E313
S205000CF9866F
S205000CFA0AEA
S205000CFBFCF7
S205000CFC638F
S205000CFD0AE7
S205000CFE09E7
S205000CFF0AE5
S205000D0013DA
S205000D018468
S205000D020BE0
S205000D0300EA
S205000D049356
S205000D050BDD
S205000D0600E7
S205000D0700E6
S205000D086F76
S205000D09F0F4
S205000D0A5F84
S205000D0BE5FD
S205000D0C13CE
S205000D0D07D9
S205000D0ED00F
S205000D0F02DC
S205000D10A33A
S205000D118F4D
S205000D12E9F2
S205000D13FEDC
S205000D149346
S205000D1504D4
S205000D1600D7
S205000D1700D6
S205000D189342
S205000D19894B
S205000D1AE6ED
S205000D1BFFD3
S205000D1C13BE
S205000D1D09C7
S205000D1ED0FF
S205000D1F02CC
S205000D20E3EA
S205000D214884
S205000D22804B
S205000D23E0EA
S205000D2413B6
S205000D250BBD
S205000D2600C7
S205000D2702C4
S205000D286F56
S205000D29F0D4
S205000D2A5F64
S205000D2BE3DF
S205000D2C932E
S205000D2D843C
S205000D2EF6C9
S205000D2FFFBF
S205000D30635A
S205000D3102BA
S205000D320AB1
S205000D3304B6
S205000D349326
S205000D3509AF
S205000D3600B7
S205000D3703B3
S205000D3813A2
S205000D3909AB
S205000D3A00B3
S205000D3B03AF
S205000D3C634E
S205000D3D822E
S205000D3E0AA5
S205000D3F04AA
S205000D40139A
S205000D4105A7
S205000D4200AB
S205000D4303A7
S205000D44EFBA
S205000D4500A8
S205000D464067
S205000D476046
S205000D481392
S205000D49792B
S205000D4AF9AA
S205000D4B0F93
S205000D4C138E
S205000D4D841C
S205000D4E049B
S205000D4F009E
S205000D50138A
S205000D510498
S205000D52F4A7
S205000D53FF9B
S205000D541386
S205000D550593
S205000D56098E
S205000D570096
S205000D58EFA6
S205000D590094
S205000D5A0093
S205000D5B5F33
S205000D5CE3AE
S205000D5D1A76
S205000D5E048B
S205000D5FFE90
S205000D60137A
S205000D618507
S205000D621477
S205000D63008A
S205000D646F1A
S205000D65F098
S205000D661F68
S205000D67E4A2
S205000D683352
S205000D69057F
S205000D6AA0E3
S205000D6B4042
S205000D6CA3DE
S205000D6D0F71
S205000D6E017E
S205000D6F007E
S205000D706F0E
S205000D71F08C
S205000D721F5C
S205000D73CEAC
S205000D7493E6
S205000D75096F
S205000D760077
S205000D770274
S205000D781362
S205000D79096B
S205000D7A0073
S205000D7B0270
S205000D7C6F02
S205000D7DF080
S205000D7E1F50
S205000D7FFC72
S205000D8093DA
S205000D8184E8
S205000D82F477
S205000D83FF6B
S205000D841356
S205000D8585E3
S205000D86095E
S205000D870066
S205000D88EF76
S205000D890064
S205000D8A0063
S205000D8B5C06
S205000D8CE37E
S205000D8D9AC6
S205000D8E045B
S205000D8FFE60
S205000D90134A
S205000D910557
S205000D92005B
S205000D930357
S205000D94EF6A
S205000D950058
S205000D964017
S205000D975BFB
S205000D981342
S205000D99054F
S205000D9A044F
S205000D9B0052
S205000D9C6FE2
S205000D9DF060
S205000D9E9FB0
S205000D9FE06E
S205000DA0E36A
S205000DA10E3E
S205000DA20942
S205000DA3E664
S205000DA41336
S205000DA50B3D
S205000DA60047
S205000DA70244
S205000DA893B2
S205000DA90B39
S205000DAA0043
S205000DAB0042
S205000DAC6FD2
S205000DADF050
S205000DAE1F20
S205000DAFDB63
S205000DB0132A
S205000DB189B3
S205000DB20B30
S205000DB3003A
S205000DB41326
S205000DB584B4
S205000DB60B2C
S205000DB70036
S205000DB893A2
S205000DB90B29
S205000DBA0033
S205000DBB0032
S205000DBC6FC2
S205000DBDF040
S205000DBE1F10
S205000DBFDD51
S205000DC0131A
S205000DC1012B
S205000DC2012A
S205000DC3F832
S205000DC42306
S205000DC52CFC
S205000DC681A6
S205000DC70422
S205000DC82302
S205000DC92400
S205000DCA41E2
S205000DCB051D
S205000DCC23FE
S205000DCD2CF4
S205000DCE819E
S205000DCF031B
S205000DD023FA
S205000DD12EEE
S205000DD2110A
S205000DD30416
S205000DD423F6
S205000DD52AEE
S205000DD69186
S205000DD70412
S205000DD823F2
S205000DD928EC
S205000DDA21F2
S205000DDB050D
S205000DDC23EE
S205000DDD26EA
S205000DDE31DE
S205000DDF0509
S205000DE023EA
S205000DE122EA
S205000DE251BA
S205000DE30505
S205000DE423E6
S205000DE520E8
S205000DE661A6
S205000DE70501
S205000DE823E2
S205000DE92ED6
S205000DEA7192
S205000DEB03FF
S205000DEC23DE
S205000DED2AD6
S205000DEE916E
S205000DEF03FB
S205000DF023DA
S205000DF128D4
S205000DF2A15A
S205000DF303F7
S205000DF423D6
S205000DF526D2
S205000DF6B146
S205000DF703F3
S205000DF823D2
S205000DF922D2
S205000DFAB142
S205000DFB06EC
S205000DFC23CE
S205000DFD24CC
S205000DFEC12E
S205000DFF06E8
S205000E0023C9
S205000E0126C5
S205000E02D119
S205000E0306E3
S205000E0423C5
S205000E0528BF
S205000E06E105
S205000E0706DF
S205000E0823C1
S205000E092AB9
S205000E0AF1F1
S205000E0B06DB
S205000E0C23BD
S205000E0D2CB3
S205000E0E01DD
S205000E0F07D6
S205000E1023B9
S205000E112EAD
S205000E1211C9
S205000E1307D2
S205000E1413C5
S205000E150CCB
S205000E1605D1
S205000E1700D5
S205000E1803D1
S205000E19458E
S205000E1A05CD
S205000E1B00D1
S205000E1C13BD
S205000E1D0AC5
S205000E1E418D
S205000E1F06C7
S205000E2023A9
S205000E212E9D
S205000E224189
S205000E2301C8
S205000E2413B5
S205000E2504C3
S205000E2600C6
S205000E2700C5
S205000E286361
S205000E290EB5
S205000E2A05BD
S205000E2B02BF
S205000E2CB709
S205000E2D0AB5
S205000E2E10AE
S205000E2F00BD
S205000E309329
S205000E318734
S205000E320AB0
S205000E3304B5
S205000E349325
S205000E3509AE
S205000E365066
S205000E3702B3
S205000E389321
S205000E390BA8
S205000E3AD0E2
S205000E3B02AF
S205000E3C139D
S205000E3D09A6
S205000E3E00AE
S205000E3F03AA
S205000E409319
S205000E4104A7
S205000E42901A
S205000E4300A9
S205000E442385
S205000E452681
S205000E46F1B5
S205000E4700A5
S205000E486341
S205000E490E95
S205000E4A356D
S205000E4B059C
S205000E4CEFB1
S205000E4D009F
S205000E4EC0DE
S205000E4F4F4E
S205000E501389
S205000E510497
S205000E521486
S205000E530099
S205000E549305
S205000E550A8D
S205000E560C8A
S205000E570095
S205000E580391
S205000E59C5CE
S205000E5A1A78
S205000E5B0091
S205000E5C137D
S205000E5D8C03
S205000E5E1A74
S205000E5F008D
S205000E60E3A9
S205000E611477
S205000E620585
S205000E63FE8B
S205000E648305
S205000E652067
S205000E66C1C5
S205000E670580
S205000E681371
S205000E69057E
S205000E6A047E
S205000E6B0081
S205000E6C037D
S205000E6D245B
S205000E6E81FD
S205000E6F0578
S205000E7083F9
S205000E712457
S205000E724139
S205000E730574
S205000E740375
S205000E75294E
S205000E760175
S205000E770570
S205000E7883F1
S205000E79294A
S205000E7AC1B1
S205000E7B046D
S205000E7C036D
S205000E7D2A45
S205000E7E81ED
S205000E7F0469
S205000E8083E9
S205000E812A41
S205000E824129
S205000E830465
S205000E840365
S205000E852B3C
S205000E860165
S205000E870461
S205000E8883E1
S205000E892B38
S205000E8AC1A1
S205000E8B035E
S205000E8C035D
S205000E8D2C33
S205000E8E81DD
S205000E8F035A
S205000E9083D9
S205000E912C2F
S205000E924119
S205000E930356
S205000E940355
S205000E952D2A
S205000E960155
S205000E970352
S205000E9883D1
S205000E992D26
S205000E9AC191
S205000E9B024F
S205000E9C133D
S205000E9D014E
S205000E9E014D
S205000E9F0845
S205000EA067E5
S205000EA180CB
S205000EA2004A
S205000EA30049
S205000EA40345
S205000EA54502
S205000EA61C2A
S205000EA70045
S205000EA8E361
S205000EA90E35
S205000EAA053D
S205000EABFA47
S205000EAC93AD
S205000EAD0A35
S205000EAE1C22
S205000EAF003D
S205000EB063D9
S205000EB10E2D
S205000EB23505
S205000EB30930
S205000EB41325
S205000EB50730
S205000EB60036
S205000EB70035
S205000EB863D1
S205000EB90E25
S205000EBA75BD
S205000EBB072A
S205000EBC63CD
S205000EBD141B
S205000EBE2509
S205000EBF0924
S205000EC00329
S205000EC1C566
S205000EC21A10
S205000EC30029
S205000EC41315
S205000EC567C0
S205000EC627FF
S205000EC70025
S205000EC89391
S205000EC98A99
S205000ECA1A08
S205000ECB0021
S205000ECCE33D
S205000ECD0A15
S205000ECE25F9
S205000ECFFF1E
S205000ED09389
S205000ED10516
S205000ED220FA
S205000ED30019
S205000ED41305
S205000ED50611
S205000ED60511
S205000ED7FD18
S205000ED89381
S205000ED9779C
S205000EDAF61C
S205000EDB0F02
S205000EDC13FD
S205000EDD0B04
S205000EDE000E
S205000EDF000D
S205000EE063A9
S205000EE1E427
S205000EE2F416
S205000EE30207
S205000EE40305
S205000EE5C542
S205000EE61AEC
S205000EE70005
S205000EE89371
S205000EE917EC
S205000EEA2BD7
S205000EEB0001
S205000EECB34D
S205000EED8778
S205000EEE6797
S205000EEF01FC
S205000EF09369
S205000EF19764
S205000EF217E3
S205000EF300F9
S205000EF433C5
S205000EF50BEC
S205000EF6F600
S205000EF700F5
S205000EF813E1
S205000EF906ED
S205000EFA05ED
S205000EFBFDF4
S205000EFC935D
S205000EFD7778
S205000EFEF6F8
S205000EFF0FDE
S205000F009358
S205000F018A60
S205000F021ACF
S205000F0300E8
S205000F04E304
S205000F05F0F6
S205000F06F4F1
S205000F07FEE6
S205000F089350
S205000F0907DB
S205000F0A30B1
S205000F0B07D9
S205000F0C637C
S205000F0D08D6
S205000F0EF5E8
S205000F0F0ECE
S205000F1013C8
S205000F1105D5
S205000F128554
S205000F13FADE
S205000F1413C4
S205000F157561
S205000F16F5E0
S205000F170FC5
S205000F189340
S205000F1907CB
S205000F1A00D1
S205000F1B02CE
S205000F1CE3EC
S205000F1DEEE0
S205000F1EA726
S205000F1FF2DA
S205000F208348
S205000F2127A3
S205000F22C108
S205000F2300C8
S205000F2413B4
S205000F2515B1
S205000F2625A0
S205000F2700C4
S205000F283390
S205000F2905BD
S205000F2AF5CC
S205000F2B00C0
S205000F2C833C
S205000F2D2797
S205000F2E05B8
S205000F2F00BC
S205000F306754
S205000F31803A
S205000F3207B2
S205000F3300B8
S205000F3403B4
S205000F354571
S205000F362C89
S205000F3700B4
S205000F389320
S205000F390AA8
S205000F3A2C85
S205000F3B00B0
S205000F3C139C
S205000F3D07A7
S205000F3E109D
S205000F3F00AC
S205000F40E3C8
S205000F4100AA
S205000F422584
S205000F43F9AF
S205000F449314
S205000F4505A1
S205000F4600A5
S205000F4700A4
S205000F486F34
S205000F49F0B2
S205000F4ADFC2
S205000F4BF8A8
S205000F4C138C
S205000F4D8C12
S205000F4E0A93
S205000F4F009C
S205000F506F2C
S205000F51F0AA
S205000F52DFBA
S205000F53EFA9
S205000F540394
S205000F552571
S205000F560A8B
S205000F570094
S205000F589300
S205000F59078B
S205000F5A1081
S205000F5B068A
S205000F5C93FC
S205000F5D0688
S205000F5E0B82
S205000F5F008C
S205000F601378
S205000F610684
S205000F620089
S205000F630088
S205000F6493F4
S205000F650581
S205000F660085
S205000F670183
S205000F68EF94
S205000F69F092
S205000F6A1F62
S205000F6BA9D7
S205000F6C136C
S205000F6D0A74
S205000F6E4A33
S205000F6F007C
S205000F703348
S205000F710476
S205000F72A4D5
S205000F730078
S205000F746F08
S205000F75F086
S205000F765F16
S205000F77EE86
S205000F780370
S205000F79254D
S205000F7A0A67
S205000F7B0070
S205000F7C93DC
S205000F7D0767
S205000F7E105D
S205000F7F0666
S205000F8093D8
S205000F810664
S205000F820B5E
S205000F830068
S205000F841354
S205000F850660
S205000F860065
S205000F870064
S205000F8893D0
S205000F89055D
S205000F8AA0C1
S205000F8B0060
S205000F8CEF70
S205000F8DF06E
S205000F8EDF7E
S205000F8FA6B6
S205000F901348
S205000F910A50
S205000F924A0F
S205000F930058
S205000F943324
S205000F950452
S205000F96A4B1
S205000F970054
S205000F986FE4
S205000F99F062
S205000F9A1F32
S205000F9BEC64
S205000F9C034C
S205000F9D2529
S205000F9E0A43
S205000F9F004C
S205000FA093B8
S205000FA10743
S205000FA21039
S205000FA30642
S205000FA493B4
S205000FA50640
S205000FA60B3A
S205000FA70044
S205000FA81330
S205000FA9063C
S205000FAA1031
S205000FAB0040
S205000FAC93AC
S205000FAD0539
S205000FAEA09D
S205000FAF003C
S205000FB0EF4C
S205000FB1F04A
S205000FB29F9A
S205000FB3A494
S205000FB41324
S205000FB50A2C
S205000FB64AEB
S205000FB70034
S205000FB83300
S205000FB9042E
S205000FBAA48D
S205000FBB0030
S205000FBC6FC0
S205000FBDF03E
S205000FBEDF4E
S205000FBFE943
S205000FC083A8
S205000FC14CDE
S205000FC20A1F
S205000FC30028
S205000FC41314
S205000FC577AF
S205000FC6170E
S205000FC70024
S205000FC81310
S205000FC90A18
S205000FCA4AD7
S205000FCB0020
S205000FCC63BC
S205000FCD021C
S205000FCE0B12
S205000FCF0C10
S205000FD063B8
S205000FD18694
S205000FD20C0D
S205000FD31EFA
S205000FD49384
S205000FD5070F
S205000FD61005
S205000FD70014
S205000FD863B0
S205000FD918FA
S205000FDAFB16
S205000FDB12FE
S205000FDC13FC
S205000FDD8589
S205000FDE0C01
S205000FDF000C
S205000FE0EF1C
S205000FE1000A
S205000FE28089
S205000FE336D2
S205000FE413F4
S205000FE50BFB
S205000FE610F5
S205000FE70004
S205000FE833D0
S205000FE904FE
S205000FEA649D
S205000FEB01FF
S205000FEC6F90
S205000FEDF00E
S205000FEEDF1E
S205000FEFE616
S205000FF003F8
S205000FF125D5
S205000FF20AEF
S205000FF300F8
S205000FF49364
S205000FF507EF
S205000FF610E5
S205000FF704F0
S205000FF86F84
S205000FF9F002
S205000FFA5F92
S205000FFBF6FA
S205000FFC03EC
S205000FFD2DC1
S205000FFE0AE3
S205000FFF00EC
S20500100013D7
S2050010010ADF
S2050010024A9E
S20500100300E7
S2050010046383
S20500100508DD
S2050010060DD7
S2050010070CD7
S20500100803DF
S205001009459C
S20500100A0DD3
S20500100B00DF
S20500100C13CB
S20500100D7C61
S20500100E17C5
S20500100F00DB
S2050010106377
S2050010110ECB
S2050010120BCD
S2050010130CCB
S2050010146373
S20500101506CF
S20500101605CF
S20500101708CB
S205001018933F
S20500101907CA
S20500101A00D0
S20500101B00CF
S20500101C933B
S20500101D8746
S20500101E17B5
S20500101F00CB
S2050010203397
S20500102107C2
S205001022FDCB
S20500102300C7
S20500102403C3
S205001025477E
S20500102607BD
S20500102700C3
S205001028E3DF
S2050010291AA7
S20500102A07B9
S20500102BFEC1
S20500102C635B
S20500102DC8F5
S20500102E6755
S20500102F07B4
S2050010309327
S2050010310CAD
S20500103200B8
S20500103302B5
S2050010346353
S2050010358431
S20500103605AF
S20500103700B3
S205001038931F
S2050010390CA5
S20500103A00B0
S20500103B03AC
S20500103C139B
S20500103D0BA2
S20500103E00AC
S20500103F00AB
S2050010401397
S2050010410C9D
S20500104200A8
S20500104300A7
S2050010449313
S2050010450D98
S2050010460D97
S20500104700A3
S205001048EFB3
S20500104900A1
S20500104A00A0
S20500104B306F
S20500104C039B
S20500104DC5D8
S20500104E1D7F
S20500104F009B
S2050010509307
S2050010518712
S2050010520D8B
S2050010530097
S2050010549303
S2050010558D08
S2050010561D77
S2050010570093
S205001058E3AF
S2050010591879
S20500105A058B
S20500105BFE91
S20500105CB3DB
S20500105D0687
S20500105EABE1
S20500105F414A
S20500106093F7
S2050010618603
S2050010621672
S2050010630087
S2050010643353
S2050010658BFA
S205001066D7AD
S2050010670083
S205001068E39F
S2050010690081
S20500106A0C74
S20500106BF887
S20500106C93EB
S20500106DFC81
S20500106EFC80
S20500106F0F6C
S2050010701367
S2050010710D6C
S2050010720C6C
S2050010730077
S2050010741363
S2050010750D68
S205001076FD77
S205001077FF74
S205001078135F
S20500107985EC
S20500107A0C64
S20500107B006F
S20500107CEF7F
S20500107D006D
S20500107EC0AC
S20500107F2C3F
S205001080E387
S2050010811A4F
S2050010820D5B
S205001083FE69
S205001084B3B3
S205001085065F
S2050010868BD9
S2050010870162
S205001088332F
S205001089045D
S20500108AD48C
S20500108B005F
S20500108C6FEF
S20500108DF06D
S20500108EDF7D
S20500108FDC7F
S20500109063F7
S2050010911C3D
S2050010920751
S2050010930C4B
S205001094E373
S20500109582D3
S2050010960C48
S205001097DC77
S2050010986FE3
S205001099F061
S20500109A5FF1
S20500109BF45B
S20500109C331B
S20500109D0B42
S20500109EFB51
S20500109F400B
S2050010A063E7
S2050010A18EBB
S2050010A20543
S2050010A30443
S2050010A493B3
S2050010A50D38
S2050010A60044
S2050010A70340
