S01000006770696F5F64656D6F2E73313931
S20500000013E7
S20500000100F9
S20500000200F8
S20500000300F7
S20500000413E3
S20500000500F5
S20500000600F4
S20500000700F3
S20500000813DF
S20500000900F1
S20500000A00F0
S20500000B00EF
S20500000C13DB
S20500000D00ED
S20500000E00EC
S20500000F00EB
S20500001013D7
S20500001100E9
S20500001200E8
S20500001300E7
S20500001413D3
S20500001500E5
S20500001600E4
S20500001700E3
S20500001813CF
S20500001900E1
S20500001A00E0
S20500001B00DF
S20500001C13CB
S20500001D00DD
S20500001E00DC
S20500001F00DB
S20500002013C7
S20500002100D9
S20500002200D8
S20500002300D7
S20500002413C3
S20500002500D5
S20500002600D4
S20500002700D3
S20500002813BF
S20500002900D1
S20500002A00D0
S20500002B00CF
S20500002C13BB
S20500002D00CD
S20500002E00CC
S20500002F00CB
S20500003013B7
S20500003100C9
S20500003200C8
S20500003300C7
S20500003413B3
S20500003500C5
S20500003600C4
S20500003700C3
S20500003813AF
S20500003900C1
S20500003A00C0
S20500003B00BF
S20500003C13AB
S20500003D00BD
S20500003E00BC
S20500003F00BB
S20500004013A7
S20500004100B9
S20500004200B8
S20500004300B7
S20500004413A3
S20500004500B5
S20500004600B4
S20500004700B3
S205000048139F
S20500004900B1
S20500004A00B0
S20500004B00AF
S20500004C139B
S20500004D00AD
S20500004E00AC
S20500004F00AB
S2050000501397
S20500005100A9
S20500005200A8
S20500005300A7
S2050000541393
S20500005500A5
S20500005600A4
S20500005700A3
S205000058138F
S20500005900A1
S20500005A00A0
S20500005B009F
S20500005C6F2F
S20500005D009D
S20500005E405C
S20500005F108B
S2050000606F2B
S2050000610099
S2050000628018
S2050000631186
S2050000646F27
S2050000650095
S205000066C0D4
S2050000671281
S2050000686F23
S2050000690091
S20500006A0090
S20500006B147B
S20500006C6F1F
S20500006D008D
S20500006E404C
S20500006F1576
S2050000706F1B
S2050000710089
S2050000720088
S205000073186F
S2050000746F17
S2050000750085
S2050000764044
S205000077166D
S2050000786F13
S2050000790081
S20500007A8000
S20500007B1A65
S20500007C6F0F
S20500007D007D
S20500007EC0BC
S20500007F1863
S2050000806F0B
S2050000810079
S205000082C0B8
S2050000830077
S2050000846F07
S2050000850075
S2050000864034
S2050000871B58
S2050000886F03
S2050000890071
S20500008A80F0
S20500008B1C53
S20500008C73FB
S20500008D105D
S20500008E501C
S20500008F303B
S20500009093D7
S2050000910069
S2050000920068
S2050000930067
S2050000941353
S20500009581E4
S2050000960064
S2050000970063
S20500009893CF
S20500009981E0
S20500009A0060
S20500009B005F
S20500009C134B
S20500009D82DB
S20500009E005C
S20500009F005B
S2050000A093C7
S2050000A182D7
S2050000A20058
S2050000A30057
S2050000A41343
S2050000A583D2
S2050000A60054
S2050000A70053
S2050000A893BF
S2050000A983CE
S2050000AA0050
S2050000AB004F
S2050000AC133B
S2050000AD84C9
S2050000AE004C
S2050000AF004B
S2050000B093B7
S2050000B184C5
S2050000B20048
S2050000B30047
S2050000B41333
S2050000B585C0
S2050000B60044
S2050000B70043
S2050000B893AF
S2050000B985BC
S2050000BA0040
S2050000BB003F
S2050000BC132B
S2050000BD86B7
S2050000BE003C
S2050000BF003B
S2050000C093A7
S2050000C186B3
S2050000C20038
S2050000C30037
S2050000C41323
S2050000C587AE
S2050000C60034
S2050000C70033
S2050000C8939F
S2050000C987AA
S2050000CA0030
S2050000CB002F
S2050000CC131B
S2050000CD88A5
S2050000CE002C
S2050000CF002B
S2050000D09397
S2050000D188A1
S2050000D20028
S2050000D30027
S2050000D41313
S2050000D5899C
S2050000D60024
S2050000D70023
S2050000D8938F
S2050000D98998
S2050000DA0020
S2050000DB001F
S2050000DC130B
S2050000DD8A93
S2050000DE001C
S2050000DF001B
S2050000E09387
S2050000E18A8F
S2050000E20018
S2050000E30017
S2050000E41303
S2050000E58B8A
S2050000E60014
S2050000E70013
S2050000E8937F
S2050000E98B86
S2050000EA0010
S2050000EB000F
S2050000EC13FB
S2050000ED8C81
S2050000EE000C
S2050000EF000B
S2050000F09377
S2050000F18C7D
S2050000F20008
S2050000F30007
S2050000F413F3
S2050000F58D78
S2050000F60004
S2050000F70003
S2050000F8936F
S2050000F98D74
S2050000FA0000
S2050000FB00FF
S2050000FC13EB
S2050000FD8E6F
S2050000FE00FC
S2050000FF00FB
S2050001009366
S2050001018E6A
S20500010200F7
S20500010300F6
S20500010413E2
S2050001058F65
S20500010600F3
S20500010700F2
S205000108935E
S2050001098F61
S20500010A00EF
S20500010B00EE
S20500010C17D6
S20500010D816B
S20500010E10DB
S20500010F00EA
S20500011013D6
S20500011101E7
S20500011241A6
S205000113EFF7
S20500011417CE
S2050001150DD7
S20500011610D3
S20500011700E2
S20500011813CE
S2050001190DD3
S20500011A8D52
S20500011B04DA
S20500011C9746
S20500011D0DCF
S20500011E10CB
S20500011F00DA
S2050001209346
S2050001218D4B
S2050001221DBA
S2050001230BCB
S2050001246372
S205000125587C
S205000126BD16
S20500012701D1
S20500012823AE
S20500012920B0
S20500012A0DC2
S20500012B00CE
S20500012C13BA
S20500012D0DBF
S20500012E4D7E
S20500012F00CA
S205000130E3E6
S205000131DCEC
S205000132AD1A
S205000133FFC7
S205000134EFD6
S20500013510B4
S2050001368043
S2050001371CA6
S20500013813AE
S20500013905BB
S20500013A00BF
S20500013B00BE
S20500013C932A
S20500013D05B7
S20500013E10AB
S20500013F00BA
S205000140EFCA
S20500014110A8
S2050001424077
S2050001430DA9
S20500014413A2
S20500014505AF
S20500014600B3
S20500014700B2
S205000148931E
S20500014905AB
S20500014A00AF
S20500014B00AE
S20500014CEFBE
S20500014D00AC
S20500014EC0EB
S20500014F3674
S2050001501396
S20500015104A4
S20500015205A2
S20500015300A6
S205000154EFB6
S2050001551094
S2050001568023
S2050001571290
S205000158138E
S205000159059B
S20500015A049B
S20500015B009E
S20500015CEFAE
S20500015D108C
S20500015E009B
S20500015F1981
S2050001601386
S2050001610197
S2050001620196
S205000163FA9C
S2050001642372
S2050001652E66
S2050001661182
S205000167048E
S205000168EFA2
S2050001690090
S20500016A008F
S20500016B107E
S20500016C97F6
S20500016D008C
S20500016E008B
S20500016F008A
S20500017093F6
S2050001718008
S2050001724047
S205000173176F
S2050001746F16
S2050001750084
S2050001760083
S2050001773A48
S205000178136E
S205000179017F
S20500017A017E
S20500017BFA84
S20500017C235A
S20500017D2E4E
S20500017E116A
S20500017F0476
S205000180EF8A
S2050001810078
S20500018280F7
S2050001830E68
S20500018497DE
S2050001850074
S2050001860073
S2050001870072
S20500018893DE
S20500018980F0
S20500018AC0AF
S20500018B1559
S20500018C6FFE
S20500018D105C
S20500018E402B
S20500018F0763
S2050001901356
S2050001910167
S2050001920166
S205000193FA6C
S2050001942342
S2050001952E36
S2050001961152
S205000197045E
S205000198EF72
S2050001990060
S20500019A005F
S20500019B0D51
S20500019C97C6
S20500019D005C
S20500019E005B
S20500019F005A
S2050001A093C6
S2050001A180D8
S2050001A24017
S2050001A31442
S2050001A46FE6
S2050001A50054
S2050001A60053
S2050001A71D35
S2050001A8133E
S2050001A9014F
S2050001AA014E
S2050001ABFA54
S2050001AC232A
S2050001AD2E1E
S2050001AE113A
S2050001AF0446
S2050001B0EF5A
S2050001B10048
S2050001B280C7
S2050001B30B3B
S2050001B497AE
S2050001B50044
S2050001B60043
S2050001B70042
S2050001B893AE
S2050001B980C0
S2050001BAC07F
S2050001BB122C
S2050001BC6FCE
S2050001BD102C
S2050001BE80BB
S2050001BF0436
S2050001C01326
S2050001C10137
S2050001C20136
S2050001C3FA3C
S2050001C42312
S2050001C52E06
S2050001C61122
S2050001C7042E
S2050001C8EF42
S2050001C90030
S2050001CA002F
S2050001CB0A24
S2050001CC9796
S2050001CD002C
S2050001CE002B
S2050001CF002A
S2050001D09396
S2050001D180A8
S2050001D240E7
S2050001D31115
S2050001D46FB6
S2050001D51014
S2050001D640E3
S2050001D7031F
S2050001D8130E
S2050001D9011F
S2050001DA011E
S2050001DBFA24
S2050001DC23FA
S2050001DD2EEE
S2050001DE110A
S2050001DF0416
S2050001E0EF2A
S2050001E10018
S2050001E28097
S2050001E3080E
S2050001E4977E
S2050001E50014
S2050001E60013
S2050001E70012
S2050001E8937E
S2050001E98090
S2050001EAC04F
S2050001EB0FFF
S2050001EC6F9E
S2050001ED000C
S2050001EE808B
S2050001EF4FBB
S2050001F013F6
S2050001F10107
S2050001F20106
S2050001F3FA0C
S2050001F423E2
S2050001F52ED6
S2050001F611F2
S2050001F704FE
S2050001F8EF12
S2050001F90000
S2050001FA00FF
S2050001FB07F7
S2050001FC9766
S2050001FD00FC
S2050001FE00FB
S2050001FF00FA
S2050002009365
S2050002018077
S20500020240B6
S2050002030EE7
S2050002046F85
S20500020510E3
S2050002068072
S20500020700F1
S20500020813DD
S20500020901EE
S20500020A01ED
S20500020BFAF3
S20500020C23C9
S20500020D2EBD
S20500020E11D9
S20500020F04E5
S205000210EFF9
S20500021100E7
S2050002128066
S20500021305E0
S205000214974D
S20500021500E3
S20500021600E2
S20500021700E1
S205000218934D
S205000219805F
S20500021AC01E
S20500021B0CD1
S20500021C6F6D
S20500021D00DB
S20500021E409A
S20500021F5287
S20500022013C5
S20500022101D6
S20500022201D5
S205000223FADB
S20500022423B1
S2050002252EA5
S20500022611C1
S20500022704CD
S205000228EFE1
S20500022900CF
S20500022A00CE
S20500022B04C9
S20500022C9735
S20500022D00CB
S20500022E00CA
S20500022F00C9
S2050002309335
S2050002318047
S2050002324086
S2050002330BBA
S2050002346F55
S20500023500C3
S205000236D0F2
S2050002377D44
S20500023813AD
S20500023901BE
S20500023A01BD
S20500023BFAC3
S20500023C2399
S20500023D2E8D
S20500023E11A9
S20500023F04B5
S205000240EFC9
S20500024100B7
S2050002428036
S20500024302B3
S205000244971D
S20500024500B3
S20500024600B2
S20500024700B1
S205000248931D
S205000249802F
S20500024AC0EE
S20500024B09A4
S20500024C6F3D
S20500024D00AB
S20500024EC0EA
S20500024F5C4D
S2050002501395
S20500025101A6
S20500025201A5
S205000253FAAB
S2050002542381
S2050002552E75
S2050002561191
S205000257049D
S205000258EFB1
S205000259009F
S20500025A009E
S20500025B019C
S20500025C9705
S20500025D009B
S20500025E009A
S20500025F0099
S2050002609305
S2050002618017
S2050002624056
S205000263088D
S2050002646F25
S2050002650093
S2050002665042
S2050002676130
S205000268236D
S205000269206F
S20500026A315D
S20500026B008D
S20500026C2369
S20500026D2269
S20500026E4149
S20500026F0089
S2050002702365
S2050002712463
S2050002725135
S2050002730085
S2050002742361
S205000275265D
S2050002766121
S2050002770081
S205000278235D
S2050002792857
S20500027A710D
S20500027B007D
S20500027C2359
S20500027D2A51
S20500027EA1D9
S20500027F0079
S2050002802355
S2050002812C4B
S205000282B1C5
S2050002830075
S2050002842351
S2050002852E45
S205000286C1B1
S2050002870071
S205000288234D
S205000289204F
S20500028AD19D
S20500028B026B
S20500028C2349
S20500028D2249
S20500028EE189
S20500028F0267
S2050002902345
S2050002912443
S205000292F175
S2050002930263
S2050002942341
S205000295263D
S2050002960161
S205000297035E
S205000298233D
S2050002992837
S20500029A114D
S20500029B035A
S20500029C2339
S20500029D2A31
S20500029EC199
S20500029F0356
S2050002A02335
S2050002A12C2B
S2050002A2D185
S2050002A30352
S2050002A42331
S2050002A52E25
S2050002A6E171
S2050002A7034E
S2050002A8232D
S2050002A9202F
S2050002AAF15D
S2050002AB0548
S2050002AC73D9
S2050002AD2E1D
S2050002AE004A
S2050002AF7BCE
S2050002B0F355
S2050002B12E19
S2050002B21036
S2050002B37BCA
S2050002B473D1
S2050002B52F14
S2050002B62022
S2050002B77BC6
S2050002B8231D
S2050002B9221D
S2050002BAC17D
S2050002BB0538
S2050002BC2319
S2050002BD2417
S2050002BED169
S2050002BF0534
S2050002C02315
S2050002C12611
S2050002C2E155
S2050002C30530
S2050002C473C1
S2050002C52E05
S2050002C640F2
S2050002C77BB6
S2050002C8F33D
S2050002C92E01
S2050002CA50DE
S2050002CB7BB2
S2050002CC73B9
S2050002CD2FFC
S2050002CE60CA
S2050002CF7BAE
S2050002D02305
S2050002D128FF
S2050002D2C165
S2050002D30520
S2050002D42301
S2050002D52AF9
S2050002D6D151
S2050002D7051C
S2050002D823FD
S2050002D92CF3
S2050002DAE13D
S2050002DB0518
S2050002DC67B5
S2050002DD809B
S2050002DE001A
S2050002DF0019
S2050002E00315
S2050002E12EE9
S2050002E20115
S2050002E30510
S2050002E48391
S2050002E52EE5
S2050002E641D1
S2050002E7050C
S2050002E8030D
S2050002E92FE0
S2050002EA818D
S2050002EB0508
S2050002EC7399
S2050002ED10FB
S2050002EE4EBC
S2050002EF7B8E
S2050002F07395
S2050002F19077
S2050002F25EA8
S2050002F37B8A
S2050002F47391
S2050002F510F3
S2050002F66F93
S2050002F77B86
S2050002F803FD
S2050002F92ED1
S2050002FA41BD
S2050002FB04F9
S2050002FC8379
S2050002FD2ECD
S2050002FE8179
S2050002FF04F5
S20500030003F4
S2050003012FC7
S205000302C134
S20500030304F0
S2050003047380
S20500030510E2
S2050003060EE3
S2050003077B75
S205000308737C
S205000309905E
S20500030A1ECF
S20500030B7B71
S20500030C7378
S20500030D10DA
S20500030E2FBA
S20500030F7B6D
S2050003108364
S20500031121C5
S20500031201E4
S20500031300E4
S20500031403E0
S20500031522C0
S20500031641A0
S20500031700E0
S205000318835C
S20500031922BC
S20500031A815C
S20500031B00DC
S20500031C03D8
S20500031D23B7
S20500031EC118
S20500031F00D8
S2050003208354
S20500032123B3
S20500032201D4
S20500032301D3
S20500032403D0
S20500032525AD
S2050003264190
S20500032701CF
S205000328834C
S20500032925A9
S20500032A814C
S20500032B01CB
S20500032C03C8
S20500032D26A4
S20500032EC108
S20500032F01C7
S2050003308344
S20500033126A0
S20500033201C4
S20500033302C2
S20500033403C0
S205000335279B
S2050003364180
S20500033702BE
S205000338833C
S2050003392797
S20500033A813C
S20500033B02BA
S20500033C03B8
S20500033D2892
S20500033EC1F8
S20500033F02B6
S2050003408334
S205000341288E
S20500034201B4
S20500034303B1
S20500034403B0
S2050003452E84
S2050003464170
S20500034703AD
S205000348832C
S2050003492E80
S20500034A812C
S20500034B03A9
S20500034C03A8
S20500034D2F7B
S20500034EC1E8
S20500034F03A5
S2050003508324
S2050003512F77
S20500035201A4
S20500035304A0
S2050003548320
S2050003552082
S205000356C1E0
S205000357059B
S205000358138C
S205000359019D
S20500035A019C
S20500035B0696
S20500035C7328
S20500035D009A
S20500035E2079
S20500035F3068
S2050003606730
S2050003618016
S2050003620095
S2050003630094
S2050003640093
S2050003650092
S2050003660091
S2050003670090
S205000368008F
S205000369008E
S20500036A008D
S20500036B008C
S20500036C008B
S20500036D008A
S20500036E0089
S20500036F0088
S2050003700087
S2050003710086
S2050003720085
S2050003730084
S2050003741370
S2050003750181
S2050003760180
S205000377FF81
S205000378235C
S2050003792658
S20500037A116C
S20500037B007C
S20500037CEF8C
S20500037D007A
S20500037E90E9
S20500037F6711
S205000380B7C0
S205000381076F
S2050003820471
S2050003830074
S2050003846310
S205000385086A
S205000386F57C
S205000387046C
S205000388630C
S205000389D49A
S20500038AA7C6
S20500038B026A
S20500038CB7B4
S20500038D0763
S20500038E0861
S20500038F0068
S2050003906304
S2050003910C5A
S205000392F570
S2050003930460
S205000394B7AC
S205000395075B
S2050003961051
S2050003970060
S20500039863FC
S205000399124C
S20500039AF568
S20500039B0656
S20500039C83D8
S20500039D203A
S20500039EC198
S20500039F0058
S2050003A03720
S2050003A10551
S2050003A21045
S2050003A30054
S2050003A41340
S2050003A5054D
S2050003A6054C
S2050003A7044C
S2050003A8133C
S2050003A9014D
S2050003AA014C
S2050003AB014B
S2050003AC6FDC
S2050003AD004A
S2050003AE90B9
S2050003AF4701
S2050003B0B790
S2050003B1073F
S2050003B20144
S2050003B30044
S2050003B463E0
S2050003B50E34
S2050003B6F54C
S2050003B7043C
S2050003B8B788
S2050003B90737
S2050003BA023B
S2050003BB003C
S2050003BC63D8
S2050003BD102A
S2050003BEF544
S2050003BF0434
S2050003C083B4
S2050003C12016
S2050003C2C174
S2050003C30034
S2050003C437FC
S2050003C5052D
S2050003C61021
S2050003C70030
S2050003C8131C
S2050003C90529
S2050003CA0528
S2050003CB012B
S2050003CC1318
S2050003CD0129
S2050003CE0128
S2050003CF0127
S2050003D06FB8
S2050003D10026
S2050003D250D5
S2050003D345DF
S2050003D483A0
S2050003D52002
S2050003D6C160
S2050003D70020
S2050003D837E8
S2050003D90519
S2050003DA100D
S2050003DB001C
S2050003DC1308
S2050003DD0515
S2050003DE0514
S2050003DF0216
S2050003E01304
S2050003E10115
S2050003E20114
S2050003E30113
S2050003E46FA4
S2050003E50012
S2050003E61001
S2050003E744CC
S2050003E8838C
S2050003E920EE
S2050003EAC14C
S2050003EB000C
S2050003EC37D4
S2050003ED0505
S2050003EE10F9
S2050003EF0008
S2050003F013F4
S2050003F10501
S2050003F20500
S2050003F30301
S2050003F413F0
S2050003F50101
S2050003F60100
S2050003F701FF
S2050003F86F90
S2050003F900FE
S2050003FAD02D
S2050003FB42BA
S2050003FC8378
S2050003FD20DA
S2050003FEC138
S2050003FF00F8
S20500040037BF
S20500040105F0
S20500040210E4
S20500040300F3
S20500040413DF
S20500040505EC
S205000406C52B
S20500040704EB
S20500040813DB
S20500040901EC
S20500040A01EB
S20500040B01EA
S20500040C6F7B
S20500040D00E9
S20500040E9058
S20500040F41A6
S2050004108363
S20500041120C5
S205000412C123
S20500041300E3
S20500041437AB
S20500041505DC
S20500041610D0
S20500041700DF
S20500041813CB
S20500041905D8
S20500041A05D7
S20500041B00DB
S20500041C13C7
S20500041D01D8
S20500041E01D7
S20500041F01D6
S2050004206F67
S20500042100D5
S2050004225084
S2050004234093
S20500042413BF
S20500042501D0
S20500042601CF
S205000427FFD0
S20500042823AB
S20500042924A9
S20500042A814B
S20500042B00CB
S20500042C23A7
S20500042D22A7
S20500042E9137
S20500042F00C7
S20500043023A3
S205000431269F
S20500043211B3
S20500043300C3
S20500043413AF
S20500043504BD
S20500043600C0
S20500043700BF
S205000438932B
S20500043904B9
S20500043A803C
S20500043B00BB
S20500043C13A7
S20500043D05B4
S20500043E04B4
S20500043F00B7
S2050004409323
S20500044105B0
S20500044200B4
S20500044300B3
S205000444EFC3
S20500044500B1
S20500044610A0
S2050004474867
S205000448139B
S20500044905A8
S20500044A04A8
S20500044B00AB
S20500044C9317
S20500044D05A4
S20500044E1098
S20500044F00A7
S2050004501393
S20500045104A1
S2050004521490
S20500045300A3
S205000454EFB3
S20500045500A1
S2050004569010
S205000457425D
S205000458E3BB
S205000459128B
S20500045A9408
S20500045BFE9D
S20500045C1387
S20500045D0495
S20500045E0098
S20500045F0196
S2050004609303
S2050004610491
S2050004625044
S2050004630192
S205000464137F
S205000465058C
S205000466048C
S205000467008F
S20500046893FB
S2050004690588
S20500046A008C
S20500046B008B
S20500046CEF9B
S20500046D0089
S20500046E90F8
S20500046F4542
S2050004701373
S2050004710580
S2050004720480
S2050004730083
S20500047493EF
S205000475057C
S2050004761070
S205000477007F
S205000478EF8F
S205000479007D
S20500047A502C
S20500047B403B
S20500047C1367
S20500047D0574
S20500047E0474
S20500047F0077
S20500048093E3
S2050004810570
S2050004821064
S2050004830073
S205000484EF83
S2050004850071
S20500048690E0
S2050004874F20
S205000488135B
S2050004890568
S20500048A0468
S20500048B006B
S20500048C93D7
S20500048D0564
S20500048E2048
S20500048F0067
S2050004901353
S2050004910461
S2050004921450
S2050004930063
S205000494EF73
S2050004950061
S2050004965010
S205000497510E
S205000498E37B
S2050004991647
S20500049A94C8
S20500049BFC5F
S20500049C83D7
S20500049D2039
S20500049EC197
S20500049F0057
S2050004A00353
S2050004A12431
S2050004A281D3
S2050004A30053
S2050004A4B79B
S2050004A5470A
S2050004A61040
S2050004A71A35
S2050004A8232B
S2050004A9A8A5
S2050004AA0745
S2050004AB004B
S2050004AC83C7
S2050004AD2425
S2050004AE4107
S2050004AF0047
S2050004B01333
S2050004B10144
S2050004B20143
S2050004B30142
S2050004B467DB
S2050004B580C1
S2050004B60040
S2050004B7003F
S2050004B8132B
S2050004B9013C
S2050004BA013B
S2050004BBFF3C
S2050004BC2317
S2050004BD2415
S2050004BE81B7
S2050004BF0037
S2050004C02313
S2050004C1260F
S2050004C21123
S2050004C30033
S2050004C4EF43
S2050004C5F041
S2050004C61F11
S2050004C7F639
S2050004C837F7
S2050004C944E9
S2050004CA101C
S2050004CB1A11
S2050004CCB773
S2050004CD0722
S2050004CE0028
S2050004CF0225
S2050004D02303
S2050004D12005
S2050004D2F430
S2050004D30023
S2050004D4F32F
S2050004D527FA
S2050004D60020
S2050004D730EF
S2050004D8938B
S2050004D9E736
S2050004DA8795
S2050004DB001B
S2050004DC73A7
S2050004DD9089
S2050004DE0711
S2050004DF30E7
S2050004E037DF
S2050004E10510
S2050004E21004
S2050004E30013
S2050004E413FF
S2050004E5050C
S2050004E6C54B
S2050004E7050A
S2050004E8EF1F
S2050004E9000D
S2050004EAD03C
S2050004EB33D8
S2050004EC9377
S2050004ED0702
S2050004EE10F8
S2050004EF0007
S2050004F023E3
S2050004F120E5
S2050004F2F410
S2050004F30201
S2050004F413EF
S2050004F50001
S2050004F60000
S2050004F700FF
S2050004F813EB
S2050004F900FD
S2050004FA00FC
S2050004FB00FB
S2050004FC7387
S2050004FD00F9
S2050004FE50A8
S2050004FF10E7
S2050005008372
S20500050120D4
S205000502C132
S20500050300F2
S20500050403EE
S20500050524CC
S205000506816E
S20500050700EE
S20500050813DA
S20500050905E7
S20500050A00EB
S20500050B00EA
S20500050C13D6
S20500050D01E7
S20500050E01E6
S20500050F01E5
S205000510677E
S2050005118064
S20500051200E3
S20500051300E2
S20500051437AA
S2050005155789
S20500051610CF
S2050005171AC4
S205000518835A
S20500051927B5
S20500051AC714
S20500051B00DA
S20500051C9346
S20500051DF6E2
S20500051E07D0
S20500051F02D4
S2050005206372
S2050005218450
S20500052206CD
S20500052304CE
S205000524B71A
S20500052507C9
S20500052610BF
S20500052700CE
S205000528933A
S20500052906C6
S20500052A804B
S20500052B03C7
S20500052CA326
S20500052D8E3A
S20500052ED7F0
S20500052F1AAC
S2050005309332
S20500053107BD
S20500053200C3
S20500053308BA
S205000534239E
S205000535229E
S205000536F7C8
S20500053700BE
S205000538B706
S20500053907B5
S20500053A10AB
S20500053B00BA
S20500053C2396
S20500053D8137
S20500053E07B0
S20500053F1C9A
S205000540B7FE
S205000541565E
S20500054210A3
S2050005431A98
S205000544832E
S205000545A709
S2050005464669
S20500054701AD
S2050005483776
S2050005494765
S20500054A109B
S20500054B1A90
S20500054C9316
S20500054DE7C1
S20500054E1790
S20500054F00A6
S2050005502382
S205000551AAFA
S205000552F6AD
S20500055300A2
S205000554831E
S2050005552779
S205000556C7D8
S205000557009E
S205000558B7E6
S2050005590696
S20500055A801B
S20500055B009A
S20500055CB3E6
S20500055DE7B1
S20500055ED7C0
S20500055F0096
S2050005602372
S205000561266E
S205000562F79C
S2050005630092
S205000564672A
S2050005658010
S205000566008F
S205000567008E
S20500056893FA
S205000569F795
S20500056A0784
S20500056B0882
S20500056C6326
S20500056D9AEE
S20500056E0780
S20500056F0680
S205000570B7CE
S205000571077D
S2050005721073
S2050005730082
S205000574037E
S205000575C6BA
S2050005762758
S2050005771C62
S20500057893EA
S2050005790676
S20500057A205B
S20500057B007A
S20500057C6316
S20500057D0870
S20500057ED6A1
S20500057F086E
S2050005800372
S205000581C6AE
S205000582274C
S2050005831C56
S20500058493DE
S205000585066A
S205000586105F
S205000587006E
S205000588E38A
S2050005891C50
S20500058AD695
S20500058BFA70
S20500058CB7B2
S20500058D0662
S20500058E1057
S20500058F0066
S2050005900362
S205000591C69E
S205000592C69D
S2050005931B47
S20500059463FE
S2050005951A46
S2050005960659
S205000597104E
S205000598B7A6
S2050005990656
S20500059A104B
S20500059B005A
S20500059C0356
S20500059D2533
S20500059E87D0
S20500059F0056
S2050005A083D2
S2050005A1C58F
S2050005A2F65D
S2050005A31B37
S2050005A4371A
S2050005A50749
S2050005A6103F
S2050005A7004E
S2050005A8133A
S2050005A90745
S2050005AAC784
S2050005AB1535
S2050005AC1336
S2050005AD86C2
S2050005AE1532
S2050005AF0046
S2050005B01332
S2050005B176CE
S2050005B2F64D
S2050005B30F33
S2050005B4330E
S2050005B50739
S2050005B6B788
S2050005B7003E
S2050005B8A39A
S2050005B98FAD
S2050005BAC675
S2050005BB1A20
S2050005BC2316
S2050005BD0038
S2050005BEA790
S2050005BF0036
S2050005C037FE
S2050005C1072D
S2050005C21023
S2050005C30032
S2050005C483AE
S2050005C5C66A
S2050005C6F639
S2050005C71B13
S2050005C8032A
S2050005C947E5
S2050005CAE744
S2050005CB1B0F
S2050005CC63C6
S2050005CDF434
S2050005CEE641
S2050005CF0E18
S2050005D0B76E
S2050005D157CD
S2050005D21013
S2050005D31A08
S2050005D4130E
S2050005D50719
S2050005D6001F
S2050005D7021C
S2050005D823FA
S2050005D9AA72
S2050005DAE734
S2050005DB001A
S2050005DC6FAA
S2050005DDF028
S2050005DE5FB8
S2050005DFF620
S2050005E0B75E
S2050005E1070D
S2050005E21003
S2050005E30012
S2050005E4838E
S2050005E5C64A
S2050005E627E8
S2050005E71CF2
S2050005E813FA
S2050005E90705
S2050005EA20EB
S2050005EB000A
S2050005EC63A6
S2050005ED8088
S2050005EEE621
S2050005EF0600
S2050005F037CE
S2050005F157AD
S2050005F210F3
S2050005F31AE8
S2050005F4936E
S2050005F506FA
S2050005F600FF
S2050005F704FA
S2050005F823DA
S2050005F92AD2
S2050005FAD724
S2050005FB00FA
S2050005FC9366
S2050005FD06F2
S2050005FE00F7
S2050005FF08EE
S20500060023D1
S20500060122D1
S205000602D71B
S20500060300F1
S20500060423CD
S205000605816E
S20500060607E7
S2050006071CD1
S2050006086F7D
S205000609F0FB
S20500060A9F4B
S20500060BF3F6
S20500060CB731
S20500060D06E1
S20500060E10D6
S20500060F00E5
S20500061037AD
S20500061106DD
S20500061210D2
S20500061300E1
S205000614835D
S205000615C51A
S205000616F6E8
S2050006171BC2
S20500061803D9
S2050006194695
S20500061AE6F4
S20500061B1BBE
S20500061C6375
S20500061DEEE9
S20500061EC511
S20500061F04D1
S205000620B71D
S20500062106CD
S20500062210C2
S20500062300D1
S205000624834D
S205000625C609
S20500062616B8
S2050006271CB1
S205000628E3E9
S2050006299635
S20500062A06C4
S20500062BFCCD
S20500062CB711
S20500062D06C1
S20500062E10B6
S20500062F00C5
S20500063013B1
S20500063106BD
S20500063210B2
S20500063300C1
S205000634239D
S205000635803F
S205000636C6F8
S2050006371CA1
S2050006389329
S20500063906B5
S20500063A00BA
S20500063B08B1
S20500063C2395
S20500063D2295
S20500063ED7DF
S20500063F00B5
S2050006402391
S2050006412A89
S205000642D7DB
S20500064300B1
S205000644238D
S205000645812E
S20500064607A7
S2050006471C91
S2050006486F3D
S205000649F0BB
S20500064A9F0B
S20500064BEFBA
S20500064C3771
S20500064D07A0
S20500064E1096
S20500064F00A5
S20500065003A1
S205000651475C
S205000652F7AB
S2050006531B86
S205000654633D
S2050006551A85
S2050006560797
S205000657009D
S2050006583765
S2050006590794
S20500065A108A
S20500065B0099
S20500065C9305
S20500065D0691
S20500065E0096
S20500065F0293
S205000660A3F1
S2050006610E85
S205000662D7BB
S2050006631A77
S2050006646F21
S205000665F09F
S205000666DFAF
S205000667F895
S2050006683755
S2050006690784
S20500066A107A
S20500066B0089
S20500066C93F5
S20500066D0681
S20500066E0086
S20500066F0382
S205000670A3E1
S2050006710E75
S205000672D7AB
S2050006731A67
S2050006746F11
S205000675F08F
S205000676DF9F
S205000677F786
S20500067883F9
S205000679C7B4
S20500067AF684
S20500067B1B5E
S20500067C3741
S20500067D0671
S20500067E1066
S20500067F0075
S2050006801361
S205000681066D
S205000682C6AC
S205000683155C
S205000684333D
S2050006850669
S205000686F678
S205000687006D
S2050006880369
S2050006894625
S20500068A0664
S20500068B0069
S20500068C93D5
S20500068D87E0
S20500068E174F
S20500068F0065
S20500069093D1
S205000691F76C
S205000692F76B
S2050006930F52
S205000694A3BD
S2050006958FD0
S205000696F668
S2050006971A43
S2050006982339
S2050006992833
S20500069AC793
S20500069B0059
S20500069C93C5
S20500069D0750
S20500069E0056
S20500069F0154
S2050006A02331
S2050006A12A29
S2050006A2F75B
S2050006A30051
S2050006A46FE1
S2050006A5F05F
S2050006A6DF6F
S2050006A7E964
S2050006A82329
S2050006A98EBD
S2050006AA0644
S2050006AB1A2F
S2050006ACB791
S2050006AD0641
S2050006AE1036
S2050006AF0045
S2050006B06FD5
S2050006B1F053
S2050006B21F23
S2050006B3F150
S2050006B43709
S2050006B50738
S2050006B6102E
S2050006B7003D
S2050006B80339
S2050006B947F4
S2050006BA1723
S2050006BB1C1D
S2050006BCE355
S2050006BD1A1D
S2050006BE072F
S2050006BFF243
S2050006C037FD
S2050006C1072C
S2050006C21022
S2050006C30031
S2050006C4939D
S2050006C50629
S2050006C6101E
S2050006C7002D
S2050006C82309
S2050006C9002B
S2050006CAD753
S2050006CB1C0D
S2050006CC37F1
S2050006CD57D0
S2050006CE1016
S2050006CF1A0B
S2050006D09391
S2050006D1061D
S2050006D20022
S2050006D30819
S2050006D423FD
S2050006D522FD
S2050006D6D747
S2050006D7001D
S2050006D823F9
S2050006D92AF1
S2050006DAD743
S2050006DB0019
S2050006DC23F5
S2050006DD8196
S2050006DE070F
S2050006DF1CF9
S2050006E06FA5
S2050006E1F023
S2050006E21FF3
S2050006E3E62B
S2050006E4B759
S2050006E50609
S2050006E610FE
S2050006E7000D
S2050006E80309
S2050006E9C744
S2050006EA36D4
S2050006EB1CED
S2050006EC37D1
S2050006ED0601
S2050006EE10F6
S2050006EF0005
S2050006F08381
S2050006F125DE
S2050006F246BC
S2050006F31CE5
S2050006F4936D
S2050006F507F8
S2050006F617E7
S2050006F705F8
S2050006F89369
S2050006F9F704
S2050006FAF703
S2050006FB0FEA
S2050006FC13E5
S2050006FD05F2
S2050006FEC036
S2050006FF07EE
S2050007006390
S205000701787A
S205000702F5FC
S20500070300F0
S20500070413DC
S20500070507E7
S20500070647A6
S205000707FDEF
S2050007089358
S2050007097773
S20500070AF7F2
S20500070B0FD9
S20500070C9354
S20500070D8561
S20500070E15D0
S20500070F00E4
S20500071023C0
S20500071122C0
S205000712B62B
S2050007131CC4
S20500071437A8
S20500071506D8
S20500071610CD
S20500071700DC
S20500071803D8
S20500071927B3
S20500071A8653
S20500071B1CBC
S20500071CA334
S20500071D8155
S20500071EF6DF
S20500071F1CB8
S205000720B71C
S205000721468C
S20500072210C1
S2050007231AB6
S205000724933C
S20500072507C7
S20500072617B6
S20500072700CC
S20500072823A8
S20500072924A6
S20500072AF6D3
S20500072B1CAC
S20500072C8344
S20500072DA71F
S20500072EC6FF
S20500072F00C4
S205000730378C
S20500073107BB
S20500073200C1
S20500073320A0
S205000734B30C
S205000735E7D7
S205000736E7D6
S20500073700BC
S2050007382398
S205000739A614
S20500073AF6C3
S20500073B00B8
S20500073C6750
S20500073D8036
S20500073E00B5
S20500073F00B4
S205000740377C
S20500074103AF
S20500074210A1
S20500074300B0
S205000744832C
S2050007454569
S205000746C3EA
S2050007471C90
S2050007489318
S20500074907A3
S20500074AF0B9
S20500074B01A7
S20500074C6344
S20500074D881E
S20500074EF5B0
S20500074F069E
S205000750B7EC
S205000751079B
S2050007521091
S20500075300A0
S205000754930C
S2050007558717
S205000756C7D6
S2050007571785
S2050007581388
S2050007598614
S20500075A0792
S20500075B0494
S20500075C1384
S20500075D078F
S20500075E0095
S20500075F0094
S205000760375C
S205000761157D
S2050007621081
S2050007631A76
S20500076493FC
S2050007650886
S205000766107D
S205000767008C
S2050007688308
S205000769C6C4
S20500076A0782
S20500076B0088
S20500076C6324
S20500076D8006
S20500076E067F
S20500076F0282
S2050007708300
S205000771C6BC
S205000772176A
S2050007730080
S205000774631C
S2050007759CE2
S205000776B6C7
S205000777007C
S2050007780378
S2050007792852
S20500077A85F4
S20500077B0078
S20500077CB3C4
S20500077D96E0
S20500077EE88D
S20500077F0074
S20500078093E0
S205000781C6AC
S205000782F67B
S205000783FF71
S205000784B3BC
S205000785F678
S2050007860667
S205000787016B
S2050007882348
S2050007892446
S20500078AD594
S20500078B0068
S20500078C93D4
S20500078D87DF
S20500078E273E
S20500078F0064
S2050007901350
S205000791075B
S205000792174A
S2050007930060
S205000794E37C
S2050007959AC4
S205000796C796
S205000797FC60
S20500079893C8
S20500079985D5
S20500079A1544
S20500079B0058
S20500079C93C4
S20500079DF561
S20500079EF560
S20500079F0F45
S2050007A02330
S2050007A1064C
S2050007A2B39E
S2050007A31C34
S2050007A43718
S2050007A54707
S2050007A6103D
S2050007A71A32
S2050007A883C8
S2050007A92723
S2050007AAC782
S2050007AB0048
S2050007ACB790
S2050007AD0640
S2050007AE0045
S2050007AF80C4
S2050007B0B390
S2050007B1E75B
S2050007B2D76A
S2050007B30040
S2050007B4231C
S2050007B52618
S2050007B6F746
S2050007B7003C
S2050007B867D4
S2050007B980BA
S2050007BA0039
S2050007BB0038
S2050007BCB780
S2050007BD072F
S2050007BE1025
S2050007BF0034
S2050007C093A0
S2050007C187AB
S2050007C2C76A
S2050007C31719
S2050007C4131C
S2050007C585A9
S2050007C60726
S2050007C70428
S2050007C81318
S2050007C90723
S2050007CA0029
S2050007CB0028
S2050007CC37F0
S2050007CD180E
S2050007CE1015
S2050007CF1A0A
S2050007D09390
S2050007D1051D
S2050007D21011
S2050007D30020
S2050007D4031C
S2050007D5C658
S2050007D60716
S2050007D7001C
S2050007D8B368
S2050007D99684
S2050007DAE534
S2050007DB0018
S2050007DC9384
S2050007DD878F
S2050007DE27EE
S2050007DF0014
S2050007E063B0
S2050007E1080A
S2050007E2060B
S2050007E30010
S2050007E4030C
S2050007E526E8
S2050007E68885
S2050007E7000C
S2050007E8B358
S2050007E9E624
S2050007EAC643
S2050007EB0008
S2050007EC23E4
S2050007ED24E2
S2050007EED82D
S2050007EF0004
S2050007F013F0
S2050007F107FB
S2050007F217EA
S2050007F30000
S2050007F4E31C
S2050007F5906E
S2050007F6A756
S2050007F7FEFE
S2050007F89368
S2050007F905F5
S2050007FA00F9
S2050007FB00F8
S2050007FC23D4
S2050007FD06F0
S2050007FEB342
S2050007FF1CD8
S20500080037BB
S20500080147AA
S20500080210E0
S2050008031AD5
S205000804836B
S20500080527C6
S205000806C725
S20500080700EB
S205000808B733
S20500080906E3
S20500080A00E8
S20500080B8067
S20500080CB333
S20500080DE7FE
S20500080ED70D
S20500080F00E3
S20500081023BF
S20500081126BB
S205000812F7E9
S20500081300DF
S2050008146777
S205000815805D
S20500081600DC
S20500081700DB
S205000818F3E7
S20500081925B4
S20500081A10C8
S20500081B34A3
S20500081C03D3
S20500081DA62F
S20500081E05CF
S20500081F00D3
S205000820379B
S20500082105CC
S20500082210C0
S20500082300CF
S20500082413BB
S20500082501CC
S20500082601CB
S205000827FFCC
S20500082813B7
S20500082905C4
S20500082A8543
S20500082B08BF
S20500082C23A3
S20500082D269F
S20500082E11B3
S20500082F00C3
S205000830EFD3
S20500083100C1
S2050008324080
S2050008333D82
S20500083413AB
S20500083505B8
S20500083610AC
S20500083700BB
S205000838EFCB
S20500083900B9
S20500083A5068
S20500083B2B8C
S20500083C13A3
S20500083D01B4
S20500083E01B3
S20500083FFBB8
S205000840238F
S205000841248D
S205000842812F
S20500084304AB
S205000844238B
S2050008452C81
S205000846416B
S20500084703A8
S2050008482387
S2050008492A7F
S20500084A5157
S20500084B03A4
S20500084C2383
S20500084D267F
S20500084E1193
S20500084F049F
S205000850237F
S205000851227F
S205000852910F
S205000853049B
S205000854237B
S205000855207D
S205000856217B
S2050008570596
S2050008582377
S2050008592E6B
S20500085A3167
S20500085B0394
S20500085C2373
S20500085D286D
S20500085E6133
S20500085F0390
S205000860236F
S205000861266B
S205000862711F
S205000863038C
S205000864137B
S2050008650A83
S2050008660785
S205000867008B
S2050008681377
S2050008698405
S20500086A0682
S20500086B0087
S20500086C93F3
S20500086D7A0B
S20500086E176D
S20500086F0083
S205000870631F
S2050008710E73
S205000872057B
S205000873205F
S20500087493EB
S2050008750479
S2050008760676
S205000877007B
S2050008786317
S2050008790673
S20500087A0672
S20500087B0077
S20500087C1363
S20500087D076E
S20500087EA0D4
S20500087F0073
S205000880630F
S2050008818AE7
S205000882E58B
S205000883244B
S205000884A3CB
S2050008850F5E
S205000886016B
S205000887006B
S2050008881357
S2050008890762
S20500088A0068
S20500088B0166
S20500088C6303
S20500088D84E1
S20500088EE57F
S20500088F184B
S20500089093CF
S205000891045D
S2050008920060
S205000893005F
S2050008943727
S2050008950756
S205000896104C
S205000897005B
S20500089893C7
S2050008990950
S20500089AF167
S20500089B0156
S20500089C1343
S20500089D074E
S20500089EC78D
S20500089F143F
S2050008A093BF
S2050008A1173A
S2050008A2153B
S2050008A3004F
S2050008A4B39B
S2050008A587C6
S2050008A6A7A5
S2050008A7004B
S2050008A893B7
S2050008A997B2
S2050008AA2721
S2050008AB0047
S2050008ACB393
S2050008AD87BE
S2050008AEA79D
S2050008AF0043
S2050008B093AF
S2050008B196AB
S2050008B267D9
S2050008B3003F
S2050008B4B38B
S2050008B586B7
S2050008B6F646
S2050008B740FB
S2050008B893A7
S2050008B996A3
S2050008BA2612
S2050008BB0037
S2050008BCB383
S2050008BD86AF
S2050008BEA68E
S2050008BF0033
S2050008C0131F
S2050008C156DB
S2050008C2151B
S2050008C3002F
S2050008C4939B
S2050008C557D6
S2050008C62507
S2050008C7002B
S2050008C8B377
S2050008C987A2
S2050008CAC761
S2050008CB0027
S2050008CC9393
S2050008CD9590
S2050008CEE63E
S2050008CF0023
S2050008D0B36F
S2050008D1859C
S2050008D2D54B
S2050008D340DF
S2050008D4938B
S2050008D5D647
S2050008D647D5
S2050008D7001B
S2050008D8B367
S2050008D98792
S2050008DAD741
S2050008DB0017
S2050008DC9383
S2050008DD9580
S2050008DE35DF
S2050008DF0013
S2050008E0B35F
S2050008E1858C
S2050008E2A56B
S2050008E3000F
S2050008E413FB
S2050008E5D835
S2050008E68785
S2050008E7000B
S2050008E89377
S2050008E956B3
S2050008EA35D3
S2050008EB0007
S2050008ECB353
S2050008ED877E
S2050008EE07FD
S2050008EF0102
S2050008F0B34F
S2050008F1857C
S2050008F2C53B
S2050008F300FF
S2050008F4B34B
S2050008F58578
S2050008F6D527
S2050008F700FB
S2050008F89367
S2050008F9D623
S2050008FA07F1
S2050008FB01F6
S2050008FCB343
S2050008FD876E
S2050008FED71D
S2050008FF00F3
S205000900935E
S205000901D51B
S205000902C52A
S20500090301ED
S205000904935A
S205000905D715
S20500090637B4
S20500090700EA
S205000908B336
S20500090905E3
S20500090AB730
S20500090B00E6
S20500090C03E2
S20500090DC91B
S20500090E05DE
S20500090F00E2
S205000910934E
S205000911964A
S20500091227B8
S20500091300DE
S205000914B32A
S2050009158656
S205000916F6E5
S20500091700DA
S2050009189346
S2050009199642
S20500091A16C1
S20500091B00D6
S20500091C13C2
S20500091D05CF
S20500091E656E
S20500091F00D2
S205000920339E
S20500092105CB
S205000922D5FA
S205000923408E
S20500092413BA
S20500092509C3
S20500092609C2
S20500092703C7
S20500092813B6
S205000929794F
S20500092AF9CE
S20500092B0FB7
S20500092C13B2
S20500092D556F
S20500092E457E
S20500092F00C2
S205000930A31E
S2050009318F31
S2050009322996
S205000933FFBF
S205000934338A
S20500093505B7
S205000936F5C6
S20500093700BA
S2050009389326
S2050009398632
S20500093A09AE
S20500093B00B6
S20500093C9322
S20500093D892B
S20500093EF9BA
S20500093FFFB3
S205000940E3CE
S20500094110A0
S20500094205AA
S205000943F6B8
S205000944634A
S205000945822A
S20500094604A7
S20500094702A8
S2050009486346
S20500094906A2
S20500094A04A3
S20500094B1690
S20500094C9312
S20500094D7B29
S20500094E2A79
S20500094F00A2
S205000950930E
S2050009518719
S2050009520B94
S205000953009E
S205000954633A
S2050009558E0E
S2050009560B90
S2050009571E7C
S2050009581386
S2050009590593
S20500095AD0C7
S20500095B0294
S20500095CEFA6
S20500095D0094
S20500095E9003
S20500095F1082
S205000960038E
S205000961C9C7
S2050009620986
S205000963008E
S205000964137A
S2050009650488
S205000966F497
S205000967FF8B
S2050009686326
S2050009695434
S20500096A8007
S20500096B0E78
S20500096C6322
S20500096D0084
S20500096E097A
S20500096F186A
S20500097093EE
S2050009717709
S2050009722A55
S205000973007E
S205000974136A
S2050009750775
S205000976007B
S205000977007A
S2050009781366
S2050009790771
S20500097A1760
S20500097B0076
S20500097CB3C2
S20500097D86EE
S20500097EE98A
S20500097F0072
S20500098083EE
S205000981C6AA
S2050009820669
S205000983006E
S205000984E38A
S2050009859AD2
S2050009860665
S205000987FE6C
S2050009886306
S2050009894028
S20500098A87E0
S20500098B1A4C
S20500098C93D2
S20500098D8BD9
S20500098E075C
S20500098F0062
S20500099063FE
S20500099188D8
S2050009920758
S205000993144A
S205000994134A
S2050009950B51
S205000996005B
S2050009970357
S20500099893C6
S2050009990B4D
S20500099A0057
S20500099B0056
S20500099C1342
S20500099D0450
S20500099E0053
S20500099F0052
S2050009A0133E
S2050009A18AC6
S2050009A20946
S2050009A3004E
S2050009A4133A
S2050009A50547
S2050009A60942
S2050009A7004A
S2050009A8EF5A
S2050009A90048
S2050009AAD077
S2050009AB0B3B
S2050009AC0342
S2050009AD49FB
S2050009AE1A29
S2050009AF0042
S2050009B093AE
S2050009B10739
S2050009B20A35
S2050009B3003E
S2050009B4132A
S2050009B50A32
S2050009B61A21
S2050009B7003A
S2050009B8E356
S2050009B91622
S2050009BA092E
S2050009BBFE38
S2050009BC1322
S2050009BD87AD
S2050009BE1B18
S2050009BF0032
S2050009C033FE
S2050009C10729
S2050009C237F8
S2050009C341ED
S2050009C4B37A
S2050009C58BA1
S2050009C6E744
S2050009C7002A
S2050009C81316
S2050009C9091F
S2050009CA0423
S2050009CB0026
S2050009CC63C2
S2050009CD5ACA
S2050009CE80A3
S2050009CF140E
S2050009D0130E
S2050009D1041C
S2050009D2F42B
S2050009D3FF1F
S2050009D4130A
S2050009D50517
S2050009D60B10
S2050009D7001A
S2050009D8EF2A
S2050009D90018
S2050009DAD047
S2050009DB080E
S2050009DCE332
S2050009DD1AFA
S2050009DE040F
S2050009DFFE14
S2050009E033DE
S2050009E10907
S2050009E27996
S2050009E3010D
S2050009E433DA
S2050009E50507
S2050009E69972
S2050009E7000A
S2050009E88386
S2050009E920E8
S2050009EAC146
S2050009EB0402
S2050009EC0302
S2050009ED24E0
S2050009EE8182
S2050009EF04FE
S2050009F0837E
S2050009F124DC
S2050009F241BE
S2050009F304FA
S2050009F403FA
S2050009F529D3
S2050009F601FA
S2050009F704F6
S2050009F88376
S2050009F929CF
S2050009FAC136
S2050009FB03F3
S2050009FC03F2
S2050009FD2ACA
S2050009FE8172
S2050009FF03EF
S205000A00836D
S205000A012AC5
S205000A0241AD
S205000A0303EA
S205000A0403E9
S205000A052BC0
S205000A0601E9
S205000A0703E6
S205000A088365
S205000A092BBC
S205000A0AC125
S205000A0B02E3
S205000A0C13D1
S205000A0D01E2
S205000A0E01E1
S205000A0F05DC
S205000A106779
S205000A11805F
S205000A1200DE
S205000A1300DD
S205000A149349
S205000A1509D2
S205000A16F1E9
S205000A1701D8
S205000A189345
S205000A1906D1
S205000A1A9046
S205000A1B00D5
S205000A1C13C1
S205000A1D874C
S205000A1E676B
S205000A1FFCD5
S205000A20933D
S205000A217758
S205000A22F5D9
S205000A2300CD
S205000A243399
S205000A2509C2
S205000A26F7D3
S205000A2700C9
S205000A2813B5
S205000A2909BE
S205000A2A09BD
S205000A2B03C2
S205000A2C13B1
S205000A2D794A
S205000A2EF9C9
S205000A2F0FB2
S205000A30635D
S205000A31FCC3
S205000A32F6C8
S205000A3302BB
S205000A34A319
S205000A358F2C
S205000A362991
S205000A37FFBA
S205000A3813A5
S205000A395562
S205000A3A4571
S205000A3B00B5
S205000A3C9321
S205000A3D892A
S205000A3EF9B9
S205000A3FFFB2
S205000A40E3CD
S205000A41109F
S205000A4205A9
S205000A43FEAF
S205000A449319
S205000A4504A7
S205000A4600AA
S205000A4700A9
S205000A489315
S205000A497730
S205000A4A2A7C
S205000A4B00A5
S205000A4CE3C1
S205000A4D445F
S205000A4E8022
S205000A4FF2AF
S205000A50633D
S205000A519A05
S205000A520A94
S205000A531885
S205000A549309
S205000A550B90
S205000A56009A
S205000A570099
S205000A581385
S205000A590B8C
S205000A5A0096
S205000A5B0293
S205000A5CE3B1
S205000A5D1281
S205000A5E0989
S205000A5FF49D
S205000A60137D
S205000A61850A
S205000A62048A
S205000A63008D
S205000A646F1D
S205000A65F09B
S205000A665F2B
S205000A67F891
S205000A6893F5
S205000A6989FE
S205000A6AF98D
S205000A6BFF86
S205000A6C1371
S205000A6D89FA
S205000A6E077B
S205000A6F037E
S205000A70235D
S205000A7180FF
S205000A722955
S205000A73017C
S205000A741369
S205000A755526
S205000A764535
S205000A770079
S205000A78E395
S205000A791463
S205000A7A0571
S205000A7BFA7B
S205000A7C93E1
S205000A7D046F
S205000A7E0072
S205000A7F0071
S205000A8093DD
S205000A8177F8
S205000A822A44
S205000A83006D
S205000A84E389
S205000A854823
S205000A8680EA
S205000A87EE7B
S205000A886FF9
S205000A89F077
S205000A8A9FC7
S205000A8BFC69
S205000A8C93D1
S205000A8D075C
S205000A8E0062
S205000A8F035E
S205000A90233D
S205000A91104F
S205000A92F16D
S205000A93005D
S205000A9463F9
S205000A955803
S205000A96D08A
S205000A970059
S205000A9893C5
S205000A990750
S205000A9A1046
S205000A9B0055
S205000A9C1341
S205000A9D7AD9
S205000A9E272B
S205000A9F0051
S205000AA063ED
S205000AA198B7
S205000AA2F658
S205000AA30C41
S205000AA41339
S205000AA50546
S205000AA6004A
S205000AA70346
S205000AA8EF59
S205000AA90047
S205000AAAC086
S205000AAB7BCA
S205000AAC1331
S205000AAD053E
S205000AAE1032
S205000AAF0041
S205000AB06FD1
S205000AB1F04F
S205000AB29F9F
S205000AB3F34A
S205000AB493A9
S205000AB50734
S205000AB6D06A
S205000AB70237
S205000AB8A395
S205000AB98FA8
S205000ABAF93D
S205000ABBFE37
S205000ABC93A1
S205000ABD0B28
S205000ABE0032
S205000ABF0031
S205000AC0939D
S205000AC1042B
S205000AC2002E
S205000AC3002D
S205000AC49399
S205000AC589A2
S205000AC6E644
S205000AC7FF2A
S205000AC81315
S205000AC90B1C
S205000ACA0026
S205000ACB0223
S205000ACC1311
S205000ACD091A
S205000ACED052
S205000ACF021F
S205000AD06FB1
S205000AD1F02F
S205000AD21FFF
S205000AD3ED30
S205000AD463B9
S205000AD54CCF
S205000AD60515
S205000AD70C0D
S205000AD8A375
S205000AD90F08
S205000ADA0115
S205000ADB0015
S205000ADC6FA5
S205000ADDF023
S205000ADE5FB3
S205000ADFDB36
S205000AE013FD
S205000AE1040B
S205000AE2000E
S205000AE3000D
S205000AE413F9
S205000AE50B00
S205000AE6000A
S205000AE70207
S205000AE86F99
S205000AE9F017
S205000AEA9F67
S205000AEBEB1A
S205000AEC9371
S205000AED778C
S205000AEE2AD8
S205000AEF0001
S205000AF013ED
S205000AF1BB44
S205000AF217E7
S205000AF300FD
S205000AF433C9
S205000AF50BF0
S205000AF6609A
S205000AF741B8
S205000AF813E5
S205000AF97B7C
S205000AFA0BEB
S205000AFBFFF6
S205000AFC9361
S205000AFD0BE8
S205000AFE04EE
S205000AFF00F1
S205000B0013DC
S205000B010BE3
S205000B020BE2
S205000B0303E9
S205000B046388
S205000B059E4C
S205000B060ADF
S205000B0702E6
S205000B0813D4
S205000B098462
S205000B0A0BDA
S205000B0B00E4
S205000B0C13D0
S205000B0D04DE
S205000B0EF4ED
S205000B0FFFE1
S205000B1013CC
S205000B1105D9
S205000B120BD2
S205000B1300DC
S205000B14EFEC
S205000B1500DA
S205000B1600D9
S205000B177563
S205000B18E3F4
S205000B191ABC
S205000B1A04D1
S205000B1BFED6
S205000B1CE3F0
S205000B1D12C0
S205000B1E09C8
S205000B1FE8E8
S205000B20339C
S205000B218549
S205000B227459
S205000B2301CB
S205000B246F5C
S205000B25F0DA
S205000B265F6A
S205000B27ECDC
S205000B2813B4
S205000B29BB0B
S205000B2A17AE
S205000B2B00C4
S205000B2C3390
S205000B2D0BB7
S205000B2E6061
S205000B2F417F
S205000B3013AC
S205000B317B43
S205000B320BB2
S205000B33FFBD
S205000B34B308
S205000B350BAF
S205000B36E4D5
S205000B374078
S205000B3813A4
S205000B390BAB
S205000B3A0BAA
S205000B3B03B1
S205000B3CE3D0
S205000B3D862C
S205000B3E0AA7
S205000B3FFCB4
S205000B40634C
S205000B410AA4
S205000B4209A4
S205000B430AA2
S205000B441398
S205000B458426
S205000B460B9E
S205000B4700A8
S205000B489314
S205000B490B9B
S205000B4A00A5
S205000B4B00A4
S205000B4C6F34
S205000B4DF0B2
S205000B4E5F42
S205000B4FE5BB
S205000B50138C
S205000B510797
S205000B52D0CD
S205000B53029A
S205000B54A3F8
S205000B558F0B
S205000B56E9B0
S205000B57FE9A
S205000B589304
S205000B590492
S205000B5A0095
S205000B5B0094
S205000B5C9300
S205000B5D8909
S205000B5EE6AB
S205000B5FFF91
S205000B60137C
S205000B610985
S205000B62D0BD
S205000B63028A
S205000B64E3A8
S205000B654842
S205000B668009
S205000B67E0A8
S205000B681374
S205000B690B7B
S205000B6A0085
S205000B6B0282
S205000B6C6F14
S205000B6DF092
S205000B6E5F22
S205000B6FE39D
S205000B7093EC
S205000B7184FA
S205000B72F687
S205000B73FF7D
S205000B746318
S205000B750278
S205000B760A6F
S205000B770474
S205000B7893E4
S205000B79096D
S205000B7A0075
S205000B7B0371
S205000B7C1360
S205000B7D0969
S205000B7E0071
S205000B7F036D
S205000B80630C
S205000B8182EC
S205000B820A63
S205000B830468
S205000B841358
S205000B850565
S205000B860069
S205000B870365
S205000B88EF78
S205000B890066
S205000B8AC0A5
S205000B8B6DF7
S205000B8C1350
S205000B8D79E9
S205000B8EF968
S205000B8F0F51
S205000B90134C
S205000B9184DA
S205000B920459
S205000B93005C
S205000B941348
S205000B950456
S205000B96F465
S205000B97FF59
S205000B981344
S205000B990551
S205000B9A094C
S205000B9B0054
S205000B9CEF64
S205000B9D0052
S205000B9E80D1
S205000B9F6CE4
S205000BA0E36C
S205000BA11A34
S205000BA20449
S205000BA3FE4E
S205000BA41338
S205000BA585C5
S205000BA61435
S205000BA70048
S205000BA86FD8
S205000BA9F056
S205000BAA1F26
S205000BABE460
S205000BAC3310
S205000BAD053D
S205000BAEA0A1
S205000BAF4000
S205000BB0A39C
S205000BB10F2F
S205000BB2013C
S205000BB3003C
S205000BB46FCC
S205000BB5F04A
S205000BB61F1A
S205000BB7CE6A
S205000BB893A4
S205000BB9092D
S205000BBA0035
S205000BBB0232
S205000BBC1320
S205000BBD0929
S205000BBE0031
S205000BBF022E
S205000BC06FC0
S205000BC1F03E
S205000BC21F0E
S205000BC3FC30
S205000BC49398
S205000BC584A6
S205000BC6F435
S205000BC7FF29
S205000BC81314
S205000BC985A1
S205000BCA091C
S205000BCB0024
S205000BCCEF34
S205000BCD0022
S205000BCE80A1
S205000BCF69B7
S205000BD0E33C
S205000BD19A84
S205000BD20419
S205000BD3FE1E
S205000BD41308
S205000BD50515
S205000BD60019
S205000BD70315
S205000BD8EF28
S205000BD90016
S205000BDAC055
S205000BDB68AC
S205000BDC1300
S205000BDD050D
S205000BDE040D
S205000BDF0010
S205000BE06FA0
S205000BE1F01E
S205000BE29F6E
S205000BE3E02C
S205000BE4E328
S205000BE50EFC
S205000BE60900
S205000BE7E622
S205000BE813F4
S205000BE90BFB
S205000BEA0005
S205000BEB0202
S205000BEC9370
S205000BED0BF7
S205000BEE0001
S205000BEF0000
S205000BF06F90
S205000BF1F00E
S205000BF21FDE
S205000BF3DB21
S205000BF413E8
S205000BF58971
S205000BF60BEE
S205000BF700F8
S205000BF813E4
S205000BF98472
S205000BFA0BEA
S205000BFB00F4
S205000BFC9360
S205000BFD0BE7
S205000BFE00F1
S205000BFF00F0
S205000C006F7F
S205000C01F0FD
S205000C021FCD
S205000C03DD0E
S205000C0413D7
S205000C0501E8
S205000C0601E7
S205000C07F8EF
S205000C0823C3
S205000C092CB9
S205000C0A8163
S205000C0B04DF
S205000C0C23BF
S205000C0D24BD
S205000C0E419F
S205000C0F05DA
S205000C1023BB
S205000C112CB1
S205000C12815B
S205000C1303D8
S205000C1423B7
S205000C152EAB
S205000C1611C7
S205000C1704D3
S205000C1823B3
S205000C192AAB
S205000C1A9143
S205000C1B04CF
S205000C1C23AF
S205000C1D28A9
S205000C1E21AF
S205000C1F05CA
S205000C2023AB
S205000C2126A7
S205000C22319B
S205000C2305C6
S205000C2423A7
S205000C2522A7
S205000C265177
S205000C2705C2
S205000C2823A3
S205000C2920A5
S205000C2A6163
S205000C2B05BE
S205000C2C239F
S205000C2D2E93
S205000C2E714F
S205000C2F03BC
S205000C30239B
S205000C312A93
S205000C32912B
S205000C3303B8
S205000C342397
S205000C352891
S205000C36A117
S205000C3703B4
S205000C382393
S205000C39268F
S205000C3AB103
S205000C3B03B0
S205000C3C238F
S205000C3D228F
S205000C3EB1FF
S205000C3F06A9
S205000C40238B
S205000C412489
S205000C42C1EB
S205000C4306A5
S205000C442387
S205000C452683
S205000C46D1D7
S205000C4706A1
S205000C482383
S205000C49287D
S205000C4AE1C3
S205000C4B069D
S205000C4C237F
S205000C4D2A77
S205000C4EF1AF
S205000C4F0699
S205000C50237B
S205000C512C71
S205000C52019B
S205000C530794
S205000C542377
S205000C552E6B
S205000C561187
S205000C570790
S205000C581383
S205000C590C89
S205000C5A058F
S205000C5B0093
S205000C5C038F
S205000C5D454C
S205000C5E058B
S205000C5F008F
S205000C60137B
S205000C610A83
S205000C62414B
S205000C630685
S205000C642367
S205000C652E5B
S205000C664147
S205000C670186
S205000C681373
S205000C690481
S205000C6A0084
S205000C6B0083
S205000C6C631F
S205000C6D0E73
S205000C6E057B
S205000C6F027D
S205000C70B7C7
S205000C710A73
S205000C72106C
S205000C73007B
S205000C7493E7
S205000C7587F2
S205000C768AEE
S205000C770C6B
S205000C7893E3
S205000C79096C
S205000C7A5024
S205000C7B0271
S205000C7C93DF
S205000C7D0B66
S205000C7ED0A0
S205000C7F026D
S205000C80135B
S205000C810964
S205000C82006C
S205000C830368
S205000C8493D7
S205000C850465
S205000C8690D8
S205000C870067
S205000C882343
S205000C89263F
S205000C8AF173
S205000C8B0063
S205000C8C63FF
S205000C8D0E53
S205000C8E352B
S205000C8F055A
S205000C90EF6F
S205000C91005D
S205000C92401C
S205000C935DFE
S205000C941347
S205000C950455
S205000C961444
S205000C970057
S205000C9893C3
S205000C990A4B
S205000C9A0C48
S205000C9B0053
S205000C9C034F
S205000C9DC58C
S205000C9E1A36
S205000C9F004F
S205000CA0133B
S205000CA18CC1
S205000CA21A32
S205000CA3004B
S205000CA4E367
S205000CA51435
S205000CA60543
S205000CA7FE49
S205000CA883C3
S205000CA92025
S205000CAAC183
S205000CAB053E
S205000CAC132F
S205000CAD053C
S205000CAE043C
S205000CAF003F
S205000CB0033B
S205000CB12419
S205000CB281BB
S205000CB30536
S205000CB483B7
S205000CB52415
S205000CB641F7
S205000CB70532
S205000CB80333
S205000CB9290C
S205000CBA0133
S205000CBB052E
S205000CBC83AF
S205000CBD2908
S205000CBEC16F
S205000CBF042B
S205000CC0032B
S205000CC12A03
S205000CC281AB
S205000CC30427
S205000CC483A7
S205000CC52AFF
S205000CC641E7
S205000CC70423
S205000CC80323
S205000CC92BFA
S205000CCA0123
S205000CCB041F
S205000CCC839F
S205000CCD2BF6
S205000CCEC15F
S205000CCF031C
S205000CD0031B
S205000CD12CF1
S205000CD2819B
S205000CD30318
S205000CD48397
S205000CD52CED
S205000CD641D7
S205000CD70314
S205000CD80313
S205000CD92DE8
S205000CDA0113
S205000CDB0310
S205000CDC838F
S205000CDD2DE4
S205000CDEC14F
S205000CDF020D
S205000CE013FB
S205000CE1010C
S205000CE2010B
S205000CE30803
S205000CE467A3
S205000CE58089
S205000CE60008
S205000CE70007
S205000CE80303
S205000CE945C0
S205000CEA1CE8
S205000CEB0003
S205000CECE31F
S205000CED0EF3
S205000CEE05FB
S205000CEFFA05
S205000CF0936B
S205000CF10AF3
S205000CF21CE0
S205000CF300FB
S205000CF46397
S205000CF50EEB
S205000CF635C3
S205000CF709EE
S205000CF813E3
S205000CF907EE
S205000CFA00F4
S205000CFB00F3
S205000CFC638F
S205000CFD0EE3
S205000CFE757B
S205000CFF07E8
S205000D00638A
S205000D0114D8
S205000D0225C6
S205000D0309E1
S205000D0403E6
S205000D05C523
S205000D061ACD
S205000D0700E6
S205000D0813D2
S205000D09677D
S205000D0A27BC
S205000D0B00E2
S205000D0C934E
S205000D0D8A56
S205000D0E1AC5
S205000D0F00DE
S205000D10E3FA
S205000D110AD2
S205000D1225B6
S205000D13FFDB
S205000D149346
S205000D1505D3
S205000D1620B7
S205000D1700D6
S205000D1813C2
S205000D1906CE
S205000D1A05CE
S205000D1BFDD5
S205000D1C933E
S205000D1D7759
S205000D1EF6D9
S205000D1F0FBF
S205000D2013BA
S205000D210BC1
S205000D2200CB
S205000D2300CA
S205000D246366
S205000D25E4E4
S205000D26F4D3
S205000D2702C4
S205000D2803C2
S205000D29C5FF
S205000D2A1AA9
S205000D2B00C2
S205000D2C932E
S205000D2D17A9
S205000D2E2B94
S205000D2F00BE
S205000D30B30A
S205000D318735
S205000D326754
S205000D3301B9
S205000D349326
S205000D359721
S205000D3617A0
S205000D3700B6
S205000D383382
S205000D390BA9
S205000D3AF6BD
S205000D3B00B2
S205000D3C139E
S205000D3D06AA
S205000D3E05AA
S205000D3FFDB1
S205000D40931A
S205000D417735
S205000D42F6B5
S205000D430F9B
S205000D449316
S205000D458A1E
S205000D461A8D
S205000D4700A6
S205000D48E3C2
S205000D49F0B4
S205000D4AF4AF
S205000D4BFEA4
S205000D4C930E
S205000D4D0799
S205000D4E306F
S205000D4F0797
S205000D50633A
S205000D510894
S205000D52F5A6
S205000D530E8C
S205000D541386
S205000D550593
S205000D568512
S205000D57FA9C
S205000D581382
S205000D59751F
S205000D5AF59E
S205000D5B0F83
S205000D5C93FE
S205000D5D0789
S205000D5E008F
S205000D5F028C
S205000D60E3AA
S205000D61EE9E
S205000D62A7E4
S205000D63F298
S205000D648306
S205000D652761
S205000D66C1C6
S205000D670086
S205000D681372
S205000D69156F
S205000D6A255E
S205000D6B0082
S205000D6C334E
S205000D6D057B
S205000D6EF58A
S205000D6F007E
S205000D7083FA
S205000D712755
S205000D720576
S205000D73007A
S205000D746712
S205000D7580F8
S205000D760770
S205000D770076
S205000D780372
S205000D79452F
S205000D7A2C47
S205000D7B0072
S205000D7C93DE
S205000D7D0A66
S205000D7E2C43
S205000D7F006E
S205000D80135A
S205000D810765
S205000D82105B
S205000D83006A
S205000D84E386
S205000D850068
S205000D862542
S205000D87F96D
S205000D8893D2
S205000D89055F
S205000D8A0063
S205000D8B0062
S205000D8C6FF2
S205000D8DF070
S205000D8EDF80
S205000D8FF866
S205000D90134A
S205000D918CD0
S205000D920A51
S205000D93005A
S205000D946FEA
S205000D95F068
S205000D96DF78
S205000D97EF67
S205000D980352
S205000D99252F
S205000D9A0A49
S205000D9B0052
S205000D9C93BE
S205000D9D0749
S205000D9E103F
S205000D9F0648
S205000DA093BA
S205000DA10646
S205000DA20B40
S205000DA3004A
S205000DA41336
S205000DA50642
S205000DA60047
S205000DA70046
S205000DA893B2
S205000DA9053F
S205000DAA0043
S205000DAB0141
S205000DACEF52
S205000DADF050
S205000DAE1F20
S205000DAFA995
S205000DB0132A
S205000DB10A32
S205000DB24AF1
S205000DB3003A
S205000DB43306
S205000DB50434
S205000DB6A493
S205000DB70036
S205000DB86FC6
S205000DB9F044
S205000DBA5FD4
S205000DBBEE44
S205000DBC032E
S205000DBD250B
S205000DBE0A25
S205000DBF002E
S205000DC0939A
S205000DC10725
S205000DC2101B
S205000DC30624
S205000DC49396
S205000DC50622
S205000DC60B1C
S205000DC70026
S205000DC81312
S205000DC9061E
S205000DCA0023
S205000DCB0022
S205000DCC938E
S205000DCD051B
S205000DCEA07F
S205000DCF001E
S205000DD0EF2E
S205000DD1F02C
S205000DD2DF3C
S205000DD3A674
S205000DD41306
S205000DD50A0E
S205000DD64ACD
S205000DD70016
S205000DD833E2
S205000DD90410
S205000DDAA46F
S205000DDB0012
S205000DDC6FA2
S205000DDDF020
S205000DDE1FF0
S205000DDFEC22
S205000DE0030A
S205000DE125E7
S205000DE20A01
S205000DE3000A
S205000DE49376
S205000DE50701
S205000DE610F7
S205000DE70600
S205000DE89372
S205000DE906FE
S205000DEA0BF8
S205000DEB0002
S205000DEC13EE
S205000DED06FA
S205000DEE10EF
S205000DEF00FE
S205000DF0936A
S205000DF105F7
S205000DF2A05B
S205000DF300FA
S205000DF4EF0A
S205000DF5F008
S205000DF69F58
S205000DF7A452
S205000DF813E2
S205000DF90AEA
S205000DFA4AA9
S205000DFB00F2
S205000DFC33BE
S205000DFD04EC
S205000DFEA44B
S205000DFF00EE
S205000E006F7D
S205000E01F0FB
S205000E02DF0B
S205000E03E900
S205000E048365
S205000E054C9B
S205000E060ADC
S205000E0700E5
S205000E0813D1
S205000E09776C
S205000E0A17CB
S205000E0B00E1
S205000E0C13CD
S205000E0D0AD5
S205000E0E4A94
S205000E0F00DD
S205000E106379
S205000E1102D9
S205000E120BCF
S205000E130CCD
S205000E146375
S205000E158651
S205000E160CCA
S205000E171EB7
S205000E189341
S205000E1907CC
S205000E1A10C2
S205000E1B00D1
S205000E1C636D
S205000E1D18B7
S205000E1EFBD3
S205000E1F12BB
S205000E2013B9
S205000E218546
S205000E220CBE
S205000E2300C9
S205000E24EFD9
S205000E2500C7
S205000E2600C6
S205000E274481
S205000E2813B1
S205000E290BB8
S205000E2A10B2
S205000E2B00C1
S205000E2C338D
S205000E2D04BB
S205000E2E645A
S205000E2F01BC
S205000E306F4D
S205000E31F0CB
S205000E32DFDB
S205000E33E6D3
S205000E3403B5
S205000E352592
S205000E360AAC
S205000E3700B5
S205000E389321
S205000E3907AC
S205000E3A10A2
S205000E3B04AD
S205000E3C6F41
S205000E3DF0BF
S205000E3E5F4F
S205000E3FF6B7
S205000E4003A9
S205000E412D7E
S205000E420AA0
S205000E4300A9
S205000E441395
S205000E450A9D
S205000E464A5C
S205000E4700A5
S205000E486341
S205000E49089B
S205000E4A0D95
S205000E4B0C95
S205000E4C039D
S205000E4D455A
S205000E4E0D91
S205000E4F009D
S205000E501389
S205000E517C1F
S205000E521783
S205000E530099
S205000E546335
S205000E550E89
S205000E560B8B
S205000E570C89
S205000E586331
S205000E59068D
S205000E5A058D
S205000E5B0889
S205000E5C93FD
S205000E5D0788
S205000E5E008E
S205000E5F008D
S205000E6093F9
S205000E618704
S205000E621773
S205000E630089
S205000E643355
S205000E650780
S205000E66FD89
S205000E670085
S205000E680381
S205000E69473C
S205000E6A077B
S205000E6B0081
S205000E6CE39D
S205000E6D1A65
S205000E6E0777
S205000E6FFE7F
S205000E706319
S205000E71C8B3
S205000E726713
S205000E730772
S205000E7493E5
S205000E750C6B
S205000E760076
S205000E770273
S205000E786311
S205000E7984EF
S205000E7A056D
S205000E7B0071
S205000E7C93DD
S205000E7D0C63
S205000E7E006E
S205000E7F036A
S205000E801359
S205000E810B60
S205000E82006A
S205000E830069
S205000E841355
S205000E850C5B
S205000E860066
S205000E870065
S205000E8893D1
S205000E890D56
S205000E8A0D55
S205000E8B0061
S205000E8CEF71
S205000E8D005F
S205000E8E80DE
S205000E8F3D20
S205000E900359
S205000E91C596
S205000E921D3D
S205000E930059
S205000E9493C5
S205000E9587D0
S205000E960D49
S205000E970055
S205000E9893C1
S205000E998DC6
S205000E9A1D35
S205000E9B0051
S205000E9CE36D
S205000E9D1837
S205000E9E0549
S205000E9FFE4F
S205000EA0B399
S205000EA10645
S205000EA2AB9F
S205000EA34108
S205000EA493B5
S205000EA586C1
S205000EA61630
S205000EA70045
S205000EA83311
S205000EA98BB8
S205000EAAD76B
S205000EAB0041
S205000EACE35D
S205000EAD003F
S205000EAE0C32
S205000EAFF845
S205000EB093A9
S205000EB1FC3F
S205000EB2FC3E
S205000EB30F2A
S205000EB41325
S205000EB50D2A
S205000EB60C2A
S205000EB70035
S205000EB81321
S205000EB90D26
S205000EBAFD35
S205000EBBFF32
S205000EBC131D
S205000EBD85AA
S205000EBE0C22
S205000EBF002D
S205000EC0EF3D
S205000EC1002B
S205000EC240EA
S205000EC33AEF
S205000EC4E345
S205000EC51A0D
S205000EC60D19
S205000EC7FE27
S205000EC8B371
S205000EC9061D
S205000ECA8B97
S205000ECB0120
S205000ECC33ED
S205000ECD041B
S205000ECED44A
S205000ECF001D
S205000ED06FAD
S205000ED1F02B
S205000ED2DF3B
S205000ED3DC3D
S205000ED463B5
S205000ED51CFB
S205000ED6070F
S205000ED70C09
S205000ED8E331
S205000ED98291
S205000EDA0C06
S205000EDBDC35
S205000EDC6FA1
S205000EDDF01F
S205000EDE5FAF
S205000EDFF419
S205000EE033D9
S205000EE10B00
S205000EE2FB0F
S205000EE340C9
S205000EE463A5
S205000EE58E79
S205000EE60501
S205000EE70401
S205000EE89371
S205000EE90DF6
S205000EEA0002
S205000EEB03FE
S205000EEC936D
S205000EED0CF3
S205000EEE00FE
S205000EEF03FA
S205000EF06399
S205000EF11EDD
S205000EF20CEE
S205000EF308F1
S205000EF413E5
S205000EF50CEB
S205000EF60BEB
S205000EF700F5
S205000EF813E1
S205000EF90CE7
S205000EFAFCF6
S205000EFBFFF2
S205000EFC13DD
S205000EFD856A
S205000EFE0DE1
S205000EFF00ED
S205000F00EFFC
S205000F0100EA
S205000F0240A9
S205000F0336B2
S205000F04E304
S205000F051ACC
S205000F060CD9
S205000F07FEE6
S205000F0803E0
S205000F09459D
S205000F0A0DD4
S205000F0B00E0
S205000F0CE3FC
S205000F0D1EC0
S205000F0E05D8
S205000F0FF6E6
S205000F1033A8
S205000F1104D6
S205000F126475
S205000F1301D7
S205000F146F68
S205000F15F0E6
S205000F169F36
S205000F17D8FC
S205000F186370
S205000F190EC4
S205000F1A0BC6
S205000F1B08C8
S205000F1C3798
S205000F1D0DC1
S205000F1E10BD
S205000F1F00CC
S205000F2013B8
S205000F217C4E
S205000F2217B2
S205000F2300C8
S205000F2413B4
S205000F2505C1
S205000F268045
S205000F2702C2
S205000F2813B0
S205000F290DB5
S205000F2A0DB4
S205000F2B0CB4
S205000F2C6F50
S205000F2DF0CE
S205000F2E1F9E
S205000F2FF3C9
S205000F306358
S205000F3116A4
S205000F320CAD
S205000F3306B2
S205000F34E3D4
S205000F3504B2
S205000F3605B0
S205000F37D6DE
S205000F389320
S205000F390CA6
S205000F3A00B1
S205000F3B02AE
S205000F3C6F40
S205000F3DF0BE
S205000F3EDFCE
S205000F3FF4B8
S205000F409318
S205000F410D9D
S205000F4200A9
S205000F4302A6
S205000F449314
S205000F450C9A
S205000F4600A5
S205000F4702A2
S205000F486F34
S205000F49F0B2
S205000F4A9F02
S205000F4BFAA6
S205000F4C138C
S205000F4D0B93
S205000F4EFBA2
S205000F4FFF9D
S205000F506338
S205000F519EFC
S205000F520594
S205000F530692
S205000F541384
S205000F550C8A
S205000F560095
S205000F570292
S205000F586330
S205000F590E84
S205000F5A078A
S205000F5B068A
S205000F5C137C
S205000F5D8509
S205000F5E0C81
S205000F5F008C
S205000F60EF9C
S205000F61008A
S205000F624049
S205000F633058
S205000F6493F4
S205000F650C7A
S205000F661075
S205000F670084
S205000F681370
S205000F697C06
S205000F6AFC85
S205000F6B0F71
S205000F6C136C
S205000F6D0D71
S205000F6E0B72
S205000F6F007C
S205000F701368
S205000F710D6D
S205000F72FD7C
S205000F73FF79
S205000F741364
S205000F750571
S205000F760C69
S205000F770074
S205000F78EF84
S205000F790072
S205000F7AC0B1
S205000F7B2E42
S205000F7CE38C
S205000F7D1A54
S205000F7E0D60
S205000F7FFE6E
S205000F80B3B8
S205000F810C5E
S205000F829BCE
S205000F830167
S205000F843334
S205000F850462
S205000F8694D1
S205000F870163
S205000F886FF4
S205000F89F072
S205000F8A5F02
S205000F8BD18F
S205000F8C134C
S205000F8D0C52
S205000F8E0B52
S205000F8F005C
S205000F901348
S205000F910B4F
S205000F920059
S205000F930058
S205000F94E374
S205000F951A3C
S205000F960550
S205000F97EE66
S205000F986FE4
S205000F99F062
S205000F9A9FB2
S205000F9BF15F
S205000F9C133C
S205000F9D0C42
S205000F9E004D
S205000F9F004C
S205000FA093B8
S205000FA10C3E
S205000FA20049
S205000FA30246
S205000FA4E364
S205000FA51234
S205000FA60540
S205000FA7EE56
S205000FA86FD4
S205000FA9F052
S205000FAA5FE2
S205000FABCF71
S205000FACE35C
S205000FAD9AA4
S205000FAE0C31
S205000FAFE656
S205000FB06FCC
S205000FB1F04A
S205000FB2DF5A
S205000FB3CE6A
S205000FB43700
S205000FB50D29
S205000FB61025
S205000FB70034
S205000FB81320
S205000FB90C26
S205000FBA0031
S205000FBB0030
S205000FBC131C
S205000FBD0D21
S205000FBE0D20
S205000FBF0C20
S205000FC09398
S205000FC10C1E
S205000FC20029
S205000FC30226
S205000FC41314
S205000FC50521
S205000FC680A5
S205000FC70222
S205000FC86FB4
S205000FC9F032
S205000FCA1F02
S205000FCBEC34
S205000FCC130C
S205000FCD0C12
S205000FCE001D
S205000FCF0319
S205000FD0E338
S205000FD11604
S205000FD20712
S205000FD3F820
S205000FD41304
S205000FD50D09
S205000FD60B0A
S205000FD70014
S205000FD81300
S205000FD90D05
S205000FDAFD14
S205000FDBFF11
S205000FDC13FC
S205000FDD0509
S205000FDE0C01
S205000FDF000C
S205000FE0EF1C
S205000FE1000A
S205000FE240C9
S205000FE328E0
S205000FE4E324
S205000FE51AEC
S205000FE60DF8
S205000FE7FE06
S205000FE8E320
S205000FE98280
S205000FEA0CF5
S205000FEBE41C
S205000FEC13EC
S205000FED8579
S205000FEE0CF1
S205000FEF00FC
S205000FF013E8
S205000FF10BEF
S205000FF21BDE
S205000FF300F8
S205000FF4EF08
S205000FF500F6
S205000FF600F5
S205000FF727CD
S205000FF833C0
S205000FF904EE
S205000FFA648D
S205000FFB01EF
S205000FFC6F80
S205000FFDF0FE
S205000FFE1FCE
S205000FFFCA22
S2050010006387
S2050010018A5F
S20500100205E3
S20500100300E7
S20500100413D3
S2050010050CD9
S20500100600E4
S20500100703E0
S205001008E3FF
S20500100906DB
S20500100A07D9
S20500100BFCE3
S20500100C934B
S20500100D0CD1
S20500100E00DC
S20500100F00DB
S2050010106F6B
S205001011F0E9
S2050010129F39
S205001013F5E2
S20500101413C3
S2050010150CC9
S20500101600D4
S20500101702D1
S205001018E3EF
S2050010190EC3
S20500101A07C9
S20500101BFAD5
S20500101C933B
S20500101D0CC1
S20500101E00CC
S20500101F00CB
S2050010206F5B
S205001021F0D9
S2050010229F29
S205001023F4D3
S20500102413B3
S20500102501C4
S20500102601C3
S205001027FFC4
S205001028239F
S205001029249D
S20500102A813F
S20500102B00BF
S20500102C239B
S20500102D229B
S20500102E912B
S20500102F00BB
S2050010302397
S2050010312693
S20500103211A7
S20500103300B7
S2050010349323
S20500103504B1
S20500103605AF
S20500103700B3
S20500103803AF
S205001039456C
S20500103A05AB
S20500103B00AF
S20500103C139B
S20500103D04A9
S20500103E00AC
S20500103F00AB
S2050010406347
S2050010410C9D
S20500104205A3
S20500104300A7
S205001044EFB7
S20500104500A5
S20500104600A4
S2050010472281
S205001048138F
S205001049049D
S20500104A148C
S20500104B009F
S20500104CB3EB
S20500104D8716
S20500104E8418
S20500104F009B
S2050010500397
S205001051C5D4
S2050010520791
S2050010530097
S205001054E3B3
S205001055187D
S205001056058F
S205001057FE95
S205001058137F
S205001059058C
S20500105AA0F0
S20500105B008F
S20500105CEF9F
S20500105D008D
S20500105E800C
S20500105F206B
S2050010608307
S2050010612069
S205001062C1C7
S2050010630087
S2050010641373
S2050010650580
S2050010660480
S2050010670083
S205001068037F
S205001069245D
S20500106A81FF
S20500106B007F
S20500106C83FB
S20500106D2459
S20500106E413B
S20500106F007B
S2050010701367
S2050010710178
S2050010720177
S2050010730176
S205001074670F
S20500107580F5
S2050010760074
S2050010770073
S2050010786F03
S2050010790071
S20500107A0070
S20500107B006F
S20500107C3737
S20500107D77F6
S20500107E105C
S20500107F1A51
S20500108083E7
S2050010812742
S2050010820761
S2050010830067
S2050010841353
S2050010850164
S2050010860163
S205001087FF64
S205001088B3AF
S20500108995CC
S20500108AA5BB
S20500108B005F
S20500108C233B
S20500108D2637
S20500108EF16B
S20500108F005B
S20500109083D7
S2050010912633
S205001092C197
S2050010930057
S20500109493C3
S205001095074E
S2050010961044
S2050010970053
S205001098B39F
S20500109997BA
S20500109AA7A9
S20500109B004F
S20500109C93BB
S20500109DC786
S20500109EF755
S20500109FFF4C
S2050010A0B397
S2050010A1F752
S2050010A2D771
S2050010A30047
S2050010A42323
S2050010A5261F
S2050010A6F153
S2050010A70043
